:020000040000FA
:040000000000001EDE
:0400010003FF3FE5D5
:0400020003FE7FE199
:0400030003FDBF3604
:0400040003FCFF55A5
:0400050003FC3E704A
:0400060003FB7DBEBD
:0400070003FABC5EDE
:0400080003F9FA07F7
:0400090003F937556B
:04000A0003F873C7BD
:04000B0003F7B051F6
:04000C0003F6EB56B6
:04000D0003F62528A9
:04000E0003F55EC1D7
:04000F0003F4965808
:0400100003F3CD53D6
:0400110003F303D51D
:0400120003F237BC02
:0400130003F16BBDCD
:0400140003F09CC495
:0400150003EFCD53D5
:0400160003EEFC1DDC
:0400170003EE286963
:0400180003ED544A56
:0400190003EC7CE890
:04001A0003EBA3ED64
:04001B0003EAC95BD0
:04001C0003E9EC7692
:04001D0003E90CBC2B
:04001E0003E82AB712
:04001F0003E7471399
:0400200003E660E3B0
:0400210003E5771D5F
:0400220003E48B1454
:0400230003E39BFC5C
:0400240003E2AA68E1
:0400250003E1B51925
:0400260003E0BD0333
:0400270003DFC0D85B
:0400280003DEC1CD65
:0400290003DDBF85AF
:04002A0003DCB9BA80
:04002B0003DBAF3311
:04002C0003DAA055FE
:04002D0003D98E4025
:04002E0003D8785229
:04002F0003D75DBCDA
:0400300003D63DDADC
:0400310003D51A21B8
:0400320003D3F0DD27
:0400330003D2C37AB7
:0400340003D18FAABB
:0400350003D0576637
:0400360003CF192CAF
:0400370003CDD560C0
:0400380003CC8C0E5B
:0400390003CB3C7544
:04003A0003C9E70807
:04003B0003C88ABCB0
:04003C0003C72820AE
:04003D0003C5BDAD8D
:04003E0003C44CDDCE
:04003F0003C2D50023
:0400400003C155079C
:0400410003BFCD3FED
:0400420003BE3DA814
:0400430003BCA566EF
:0400440003BB04C333
:0400450003B95B3967
:0400460003B7A863F1
:0400470003B5ECDB36
:0400480003B4276175
:0400490003B2576344
:04004A0003B07CC0C3
:04004B0003AE97E386
:04004C0003ACA781D9
:04004D0003AAABCB8C
:04004E0003A8A483DC
:04004F0003A6908DE7
:0400500003A46F9FF7
:0400510003A2428143
:0400520003A007D12F
:04005300039DBEF358
:04005400039B678320
:04005500039901907A
:0400560003968CA9D8
:04005700039406D731
:040058000391711F80
:04005900038ECAB494
:04005A00038C11936F
:04005B00038946C708
:04005C00038669E7C7
:04005D000383782F72
:04005E00038072EEBB
:04005F00037D59B70D
:04006000037A29A551
:040061000376E378C7
:04006200037385B8E7
:040063000370102CEA
:04006400036C823374
:040065000368D9BF94
:040066000365165BBD
:0400670003613827D2
:04006800035D3BD821
:0400690003592234E1
:04006A000354EAB1A0
:04006B000350918D20
:04006C00034C174AE0
:04006D0003477A705B
:04006E000342B9FF91
:04006F00033DD38EEC
:040070000338C73D4D
:04007100033391D6EE
:04007200032E3247E0
:040073000328A711A6
:040074000322EF086C
:04007500031D07342C
:040076000316EEC4BB
:040077000310A2AD23
:04007800030A21B89E
:0400790003036918FC
:04007A0002FC76B05E
:04007B0002F547EA59
:04007C0002EDDAA90E
:04007D0002E62CA4C7
:04007E0002DE3A075D
:04007F0002D5FF7730
:04008000000000007C
:04008100000000007B
:04008200000000007A
:040083000000000079
:040084000000000078
:040085000000000077
:040086000000000076
:040087000000000075
:040088000000000074
:040089000000000073
:04008A000000000072
:04008B000000000071
:04008C000000000070
:04008D00000000006F
:04008E00000000006E
:04008F00000000006D
:04009000000000006C
:04009100000000006B
:04009200000000006A
:040093000000000069
:040094000000000068
:040095000000000067
:040096000000000066
:040097000000000065
:040098000000000064
:040099000000000063
:04009A000000000062
:04009B000000000061
:04009C000000000060
:04009D00000000005F
:04009E00000000005E
:04009F00000000005D
:0400A000000000005C
:0400A100000000005B
:0400A200000000005A
:0400A3000000000059
:0400A4000000000058
:0400A5000000000057
:0400A6000000000056
:0400A7000000000055
:0400A8000000000054
:0400A9000000000053
:0400AA000000000052
:0400AB000000000051
:0400AC000000000050
:0400AD00000000004F
:0400AE00000000004E
:0400AF00000000004D
:0400B000000000004C
:0400B100000000004B
:0400B200000000004A
:0400B3000000000049
:0400B4000000000048
:0400B5000000000047
:0400B6000000000046
:0400B7000000000045
:0400B8000000000044
:0400B9000000000043
:0400BA000000000042
:0400BB000000000041
:0400BC000000000040
:0400BD00000000003F
:0400BE00000000003E
:0400BF00000000003D
:0400C000000000003C
:0400C100000000003B
:0400C200000000003A
:0400C3000000000039
:0400C4000000000038
:0400C5000000000037
:0400C6000000000036
:0400C7000000000035
:0400C8000000000034
:0400C9000000000033
:0400CA000000000032
:0400CB000000000031
:0400CC000000000030
:0400CD00000000002F
:0400CE00000000002E
:0400CF00000000002D
:0400D000000000002C
:0400D100000000002B
:0400D200000000002A
:0400D3000000000029
:0400D4000000000028
:0400D5000000000027
:0400D6000000000026
:0400D7000000000025
:0400D8000000000024
:0400D9000000000023
:0400DA000000000022
:0400DB000000000021
:0400DC000000000020
:0400DD00000000001F
:0400DE00000000001E
:0400DF00000000001D
:0400E000000000001C
:0400E100000000001B
:0400E200000000001A
:0400E3000000000019
:0400E4000000000018
:0400E5000000000017
:0400E6000000000016
:0400E7000000000015
:0400E8000000000014
:0400E9000000000013
:0400EA000000000012
:0400EB000000000011
:0400EC000000000010
:0400ED00000000000F
:0400EE00000000000E
:0400EF00000000000D
:0400F000000000000C
:0400F100000000000B
:0400F200000000000A
:0400F3000000000009
:0400F4000000000008
:0400F5000000000007
:0400F6000000000006
:0400F7000000000005
:0400F8000000000004
:0400F9000000000003
:0400FA000000000002
:0400FB000000000001
:0400FC000000000000
:0400FD0000000000FF
:0400FE0000000000FE
:0400FF0000000000FD
:00000001ff
