:020000040000FA
:030000007FFFF58A
:03000100001FFFDE
:03000200003FFFBD
:03000300005FFF9C
:03000400007FFF7B
:03000500009FFE5B
:0300060000BFFD3B
:0300070000DFFC1B
:0300080000FFFAFC
:03000900011FF8DC
:03000A00013FF5BE
:03000B00015FF2A0
:03000C00017FEE83
:03000D00019FE967
:03000E0001BFE34C
:03000F0001DFDC32
:0300100001FFD518
:03001100021FCCFF
:03001200023FC3E7
:03001300025FB8D1
:03001400027FACBC
:03001500029F9FA8
:0300160002BF9195
:0300170002DF8184
:0300180002FF7074
:03001900031F5D65
:03001A00033F4958
:03001B00035F334D
:03001C00037F1B44
:03001D00039F023C
:03001E0003BEE737
:03001F0003DECA33
:0300200003FEAB31
:03002100041E8A30
:03002200043E6732
:03002300045E4236
:03002400047E1B3C
:03002500049DF245
:0300260004BDC650
:0300270004DD985D
:0300280004FD676D
:03002900051D347E
:03002A00053CFF93
:03002B00055CC7AA
:03002C00057C8CC4
:03002D00059C4FE0
:03002E0005BC0E00
:03002F0005DBCB23
:0300300005FB8647
:03003100061B3D6E
:03003200063AF19A
:03003300065AA2C8
:03003400067A50F9
:030035000699FB2E
:0300360006B9A266
:0300370006D946A1
:0300380006F8E7E0
:0300390007188520
:03003A0007381F65
:03003B000757B5AF
:03003C00077748FB
:03003D000796D74C
:03003E0007B6639F
:03003F0007D5EAF8
:0300400007F56E53
:030041000814EEB2
:0300420008346A15
:030043000853E27D
:03004400087356E8
:030045000892C658
:0300460008B232CB
:0300470008D19A43
:0300480008F0FDC0
:0300490009105C3F
:03004A00092FB7C4
:03004B00094F0D4D
:03004C00096E5EDC
:03004D00098DAB6F
:03004E0009ACF406
:03004F0009CC38A1
:0300500009EB7742
:030051000A0AB1E7
:030052000A29E791
:030053000A49183F
:030054000A6843F4
:030055000A876AAD
:030056000AA68C6B
:030057000AC5A92E
:030058000AE4C0F7
:030059000B03D2C4
:03005A000B22DF97
:03005B000B41E76F
:03005C000B60EA4C
:03005D000B7FE72F
:03005E000B9EDE18
:03005F000BBDD105
:030060000BDCBDF9
:030061000BFBA4F2
:030062000C1A85F0
:030063000C3961F4
:030064000C5837FE
:030065000C77070E
:030066000C95D125
:030067000CB49640
:030068000CD35462
:030069000CF20C8A
:03006A000D10BFB7
:03006B000D2F6BEB
:03006C000D4E1125
:03006D000D6CB166
:03006E000D8B4BAC
:03006F000DA9DEFA
:030070000DC86B4D
:030071000DE6F2A7
:030072000E057206
:030073000E23EC6D
:030074000E425FDA
:030075000E60CC4E
:030076000E7F32C8
:030077000E9D9249
:030078000EBBEAD2
:030079000EDA3C60
:03007A000EF888F5
:03007B000F16CC91
:03007C000F350A33
:03007D000F5340DE
:03007E000F71708F
:03007F000F8F9947
:030080000FADBA07
:030081000FCBD5CD
:030082000FE9E89B
:030083001007F56E
:030084001025FA4A
:030085001043F82D
:030086001061EE18
:03008700107FDD0A
:03008800109DC503
:0300890010BBA504
:03008A0010D97E0C
:03008B0010F7501B
:03008C0011151A31
:03008D001132DC51
:03008E0011509777
:03008F00116E4AA5
:03009000118BF5DC
:0300910011A99919
:0300920011C7355E
:0300930011E4C9AC
:0300940012025500
:03009500121FD95E
:03009600123D56C2
:03009700125ACA30
:03009800127837A4
:0300990012959B22
:03009A0012B2F7A8
:03009B0012D04C34
:03009C0012ED98CA
:03009D00130ADC67
:03009E001328180C
:03009F0013454BBB
:0300A00013627771
:0300A100137F9A30
:0300A200139CB4F8
:0300A30013B9C7C7
:0300A40013D6D19F
:0300A50013F3D280
:0300A6001410CB68
:0300A700142DBC59
:0300A800144AA453
:0300A90014678356
:0300AA0014845A61
:0300AB0014A12875
:0300AC0014BDEE92
:0300AD0014DAABB7
:0300AE0014F75FE5
:0300AF0015140A1B
:0300B0001530AD5B
:0300B100154D47A3
:0300B2001569D8F5
:0300B3001586604F
:0300B40015A2E0B2
:0300B50015BF561E
:0300B60015DBC394
:0300B70015F82811
:0300B80016148497
:0300B9001630D628
:0300BA00164D1FC1
:0300BB0016696063
:0300BC001685970F
:0300BD0016A1C5C4
:0300BE0016BDEA82
:0300BF0016DA0648
:0300C00016F61918
:0300C100171222F1
:0300C200172E22D4
:0300C300174A19C0
:0300C400176607B5
:0300C5001781EBB5
:0300C600179DC6BD
:0300C70017B998CE
:0300C80017D560E9
:0300C90017F11F0D
:0300CA00180CD43B
:0300CB0018288072
:0300CC00184422B3
:0300CD00185FBBFE
:0300CE00187B4B51
:0300CF001896D0B0
:0300D00018B24D16
:0300D10018CDBF88
:0300D20018E92901
:0300D30019048885
:0300D400191FDE13
:0300D500193B2AAA
:0300D60019566D4B
:0300D7001971A6F6
:0300D800198CD5AB
:0300D90019A7FA6A
:0300DA0019C31631
:0300DB0019DE2803
:0300DC0019F930DF
:0300DD001A142EC4
:0300DE001A2F23B3
:0300DF001A4A0DAD
:0300E0001A64EEB1
:0300E1001A7FC5BE
:0300E2001A9A92D5
:0300E3001AB556F5
:0300E4001AD00F20
:0300E5001AEABE56
:0300E6001B056493
:0300E7001B1FFFDD
:0300E8001B3A912F
:0300E9001B55188C
:0300EA001B6F96F3
:0300EB001B8A0964
:0300EC001BA473DF
:0300ED001BBED265
:0300EE001BD928F3
:0300EF001BF3738D
:0300F0001C0DB430
:0300F1001C27ECDD
:0300F2001C421994
:0300F3001C5C3C56
:0300F4001C765522
:0300F5001C9063F9
:0300F6001CAA68D9
:0300F7001CC462C4
:0300F8001CDE53B8
:0300F9001CF839B7
:0300FA001D1215BF
:0300FB001D2BE7D3
:0300FC001D45AEF1
:0300FD001D5F6C18
:0300FE001D791F4A
:0300FF001D92C887
:030100001DAC67CC
:030101001DC5FB1E
:030102001DDF8579
:030103001DF905DE
:030104001E127B4D
:030105001E2BE6C8
:030106001E45484B
:030107001E5E9EDB
:030108001E77EB74
:030109001E912D17
:03010A001EAA65C5
:03010B001EC3937D
:03010C001EDCB640
:03010D001EF5CF0D
:03010E001F0EDEE3
:03010F001F27E2C5
:030110001F40DDB0
:030111001F59CCA7
:030112001F72B2A7
:030113001F8B8DB2
:030114001FA45DC8
:030115001FBD24E7
:030116001FD5E012
:030117001FEE9147
:0301180020073885
:03011900201FD5CF
:03011A0020386822
:03011B002050F081
:03011C0020696EE9
:03011D002081E15D
:03011E00209A4ADA
:03011F0020B2A863
:0301200020CAFDF5
:0301210020E34692
:0301220020FB8639
:030123002113BBEA
:03012400212BE6A6
:030125002144066C
:03012600215C1C3D
:0301270021742719
:03012800218C28FF
:0301290021A41FEF
:03012A0021BC0BEA
:03012B0021D3EDF0
:03012C0021EBC5FF
:03012D0022039218
:03012E00221B543D
:03012F0022330D6B
:03013000224ABBA5
:0301310022625EE9
:030132002279F738
:0301330022918690
:0301340022A90BF2
:0301350022C08560
:0301360022D7F4D9
:0301370022EF5A5A
:030138002306B5E6
:03013900231E057D
:03013A0023354B1F
:03013B00234C87CB
:03013C002363B981
:03013D00237AE042
:03013E002391FC0E
:03013F0023A90FE2
:0301400023C017C2
:0301410023D715AC
:0301420023EE08A1
:030143002404F1A0
:03014400241BD0A9
:030145002432A4BD
:0301460024496EDB
:0301470024602E03
:030148002476E337
:03014900248D8E74
:03014A0024A42FBB
:03014B0024BAC60D
:03014C0024D15269
:03014D0024E7D4D0
:03014E0024FE4C40
:03014F002514B9BB
:03015000252B1C40
:03015100254175D0
:030152002557C46A
:03015300256E080E
:03015400258442BD
:03015500259A7276
:0301560025B09839
:0301570025C6B307
:0301580025DCC5DE
:0301590025F2CCC0
:03015A002608C8AC
:03015B00261EBBA2
:03015C002634A4A2
:03015D00264A82AD
:03015E00266056C2
:03015F00267620E1
:03016000268BE00B
:0301610026A1953F
:0301620026B7417C
:0301630026CCE2C5
:0301640026E27A16
:0301650026F80772
:03016600270D8AD8
:0301670027230348
:03016800273872C3
:03016900274DD748
:03016A00276331D7
:03016B0027788270
:03016C00278DC913
:03016D0027A305C0
:03016E0027B83877
:03016F0027CD6039
:0301700027E27F04
:0301710027F793DA
:03017200280C9EB8
:0301730028219FA1
:0301740028369595
:03017500284B8292
:0301760028606599
:0301770028753DAB
:03017800288A0CC6
:03017900289ED1EC
:03017A0028B38C1B
:03017B0028C83D54
:03017C0028DCE498
:03017D0028F182E4
:03017E002906153A
:03017F00291A9F9B
:03018000292F1F05
:030181002943957A
:03018200295801F8
:03018300296C6381
:030184002980BC13
:0301850029950BAE
:0301860029A95054
:0301870029BD8B04
:0301880029D1BCBE
:0301890029E5E481
:03018A0029FA024D
:03018B002A0E1623
:03018C002A222103
:03018D002A3622ED
:03018E002A4A19E1
:03018F002A5E07DE
:030190002A71EAE7
:030191002A85C5F7
:030192002A999512
:030193002AAD5C36
:030194002AC11A63
:030195002AD4CE9B
:030196002AE878DC
:030197002AFC1926
:030198002B0FB07A
:030199002B233DD8
:03019A002B36C140
:03019B002B4A3CB0
:03019C002B5DAD2B
:03019D002B7115AE
:03019E002B84733C
:03019F002B97C7D4
:0301A0002BAB1373
:0301A1002BBE541E
:0301A2002BD18DD1
:0301A3002BE4BC8E
:0301A4002BF7E155
:0301A5002C0AFD24
:0301A6002C1E10FC
:0301A7002C311ADE
:0301A8002C441ACA
:0301A9002C5710C0
:0301AA002C69FEBF
:0301AB002C7CE2C7
:0301AC002C8FBDD8
:0301AD002CA28FF2
:0301AE002CB55716
:0301AF002CC81643
:0301B0002CDACC7A
:0301B1002CED79B9
:0301B2002D001C01
:0301B3002D12B654
:0301B4002D2548AE
:0301B5002D37D013
:0301B6002D4A4E81
:0301B7002D5CC4F8
:0301B8002D6F3177
:0301B9002D819401
:0301BA002D93EF93
:0301BB002DA6402E
:0301BC002DB888D3
:0301BD002DCAC781
:0301BE002DDCFE37
:0301BF002DEF2BF6
:0301C0002E014FBE
:0301C1002E136A90
:0301C2002E257D6A
:0301C3002E37864E
:0301C4002E49863B
:0301C5002E5B7E30
:0301C6002E6D6C2F
:0301C7002E7F5236
:0301C8002E912F46
:0301C9002EA3035F
:0301CA002EB4CE82
:0301CB002EC690AD
:0301CC002ED849E1
:0301CD002EE9FA1E
:0301CE002EFBA263
:0301CF002F0D41B0
:0301D0002F1ED708
:0301D1002F306567
:0301D2002F41E9D1
:0301D3002F536542
:0301D4002F64D9BC
:0301D5002F76443E
:0301D6002F87A6CA
:0301D7002F98FF5F
:0301D8002FAA50FB
:0301D9002FBB98A1
:0301DA002FCCD84F
:0301DB002FDE0E06
:0301DC002FEF3DC5
:0301DD003000638C
:0301DE003011805D
:0301DF0030229536
:0301E0003033A118
:0301E1003044A502
:0301E2003055A0F5
:0301E300306693F0
:0301E40030777DF4
:0301E50030885F00
:0301E60030993815
:0301E70030AA0932
:0301E80030BAD258
:0301E90030CB9286
:0301EA0030DC4ABC
:0301EB0030ECFAFB
:0301EC0030FDA142
:0301ED00310E4090
:0301EE00311ED7E8
:0301EF00312F6548
:0301F000313FEBB1
:0301F10031506921
:0301F2003160DF9A
:0301F30031714C1B
:0301F4003181B2A4
:0301F50031920F35
:0301F60031A264CF
:0301F70031B2B072
:0301F80031C2F51C
:0301F90031D331CE
:0301FA0031E36688
:0301FB0031F3924B
:0301FC003203B615
:0301FD003213D2E8
:0301FE003223E6C3
:0301FF003233F2A6
:00000001ff
