:020000040000FA
:020000000200FC
:020001000201FA
:020002000203F7
:020003000205F4
:020004000207F1
:020005000209EE
:02000600020BEB
:02000700020DE8
:02000800020FE5
:020009000211E2
:02000A000213DF
:02000B000215DC
:02000C000217D9
:02000D000219D6
:02000E00021BD3
:02000F00021CD1
:02001000021ECE
:020011000220CB
:020012000222C8
:020013000224C5
:020014000226C2
:020015000227C0
:020016000229BD
:02001700022BBA
:02001800022DB7
:02001900022FB4
:02001A000230B2
:02001B000232AF
:02001C000234AC
:02001D000236A9
:02001E000237A7
:02001F000239A4
:02002000023BA1
:02002100023D9E
:02002200023E9C
:02002300024099
:02002400024296
:02002500024394
:02002600024591
:0200270002478E
:0200280002488C
:02002900024A89
:02002A00024C86
:02002B00024D84
:02002C00024F81
:02002D0002507F
:02002E0002527C
:02002F00025479
:02003000025577
:02003100025774
:02003200025872
:02003300025A6F
:02003400025C6C
:02003500025D6A
:02003600025F67
:02003700026065
:02003800026262
:02003900026360
:02003A0002655D
:02003B0002665B
:02003C00026858
:02003D00026956
:02003E00026B53
:02003F00026C51
:02004000026E4E
:02004100026F4C
:02004200027149
:02004300027247
:02004400027444
:02004500027542
:02004600027640
:0200470002783D
:0200480002793B
:02004900027B38
:02004A00027C36
:02004B00027E33
:02004C00027F31
:02004D0002802F
:02004E0002822C
:02004F0002832A
:02005000028527
:02005100028625
:02005200028723
:02005300028920
:02005400028A1E
:02005500028B1C
:02005600028D19
:02005700028E17
:02005800028F15
:02005900029112
:02005A00029210
:02005B0002930E
:02005C0002950B
:02005D00029609
:02005E00029707
:02005F00029805
:02006000029A02
:02006100029B00
:02006200029CFE
:02006300029EFB
:02006400029FF9
:0200650002A0F7
:0200660002A1F5
:0200670002A3F2
:0200680002A4F0
:0200690002A5EE
:02006A0002A6EC
:02006B0002A7EA
:02006C0002A9E7
:02006D0002AAE5
:02006E0002ABE3
:02006F0002ACE1
:0200700002ADDF
:0200710002AFDC
:0200720002B0DA
:0200730002B1D8
:0200740002B2D6
:0200750002B3D4
:0200760002B5D1
:0200770002B6CF
:0200780002B7CD
:0200790002B8CB
:02007A0002B9C9
:02007B0002BAC7
:02007C0002BBC5
:02007D0002BDC2
:02007E0002BEC0
:02007F0002BFBE
:0200800002C0BC
:0200810002C1BA
:0200820002C2B8
:0200830002C3B6
:0200840002C4B4
:0200850002C5B2
:0200860002C6B0
:0200870002C8AD
:0200880002C9AB
:0200890002CAA9
:02008A0002CBA7
:02008B0002CCA5
:02008C0002CDA3
:02008D0002CEA1
:02008E0002CF9F
:02008F0002D09D
:0200900002D19B
:0200910002D299
:0200920002D397
:0200930002D495
:0200940002D593
:0200950002D691
:0200960002D78F
:0200970002D88D
:0200980002D98B
:0200990002DA89
:02009A0002DB87
:02009B0002DC85
:02009C0002DD83
:02009D0002DE81
:02009E0002DF7F
:02009F0002E07D
:0200A00002E17B
:0200A10002E279
:0200A20002E377
:0200A30002E475
:0200A40002E573
:0200A50002E671
:0200A60002E76F
:0200A70002E86D
:0200A80002E96B
:0200A90002EA69
:0200AA0002EB67
:0200AB0002EB66
:0200AC0002EC64
:0200AD0002ED62
:0200AE0002EE60
:0200AF0002EF5E
:0200B00002F05C
:0200B10002F15A
:0200B20002F258
:0200B30002F356
:0200B40002F454
:0200B50002F453
:0200B60002F551
:0200B70002F64F
:0200B80002F74D
:0200B90002F84B
:0200BA0002F949
:0200BB0002FA47
:0200BC0002FB45
:0200BD0002FB44
:0200BE0002FC42
:0200BF0002FD40
:0200C00002FE3E
:0200C10002FF3C
:0200C200030039
:0200C300030137
:0200C400030136
:0200C500030234
:0200C600030332
:0200C700030430
:0200C80003052E
:0200C90003062C
:0200CA0003062B
:0200CB00030729
:0200CC00030827
:0200CD00030925
:0200CE00030A23
:0200CF00030A22
:0200D000030B20
:0200D100030C1E
:0200D200030D1C
:0200D300030E1A
:0200D400030E19
:0200D500030F17
:0200D600031015
:0200D700031113
:0200D800031112
:0200D900031210
:0200DA0003130E
:0200DB0003140C
:0200DC0003140B
:0200DD00031509
:0200DE00031607
:0200DF00031705
:0200E000031704
:0200E100031802
:0200E200031900
:0200E300031AFE
:0200E400031AFD
:0200E500031BFB
:0200E600031CF9
:0200E700031DF7
:0200E800031DF6
:0200E900031EF4
:0200EA00031FF2
:0200EB00031FF1
:0200EC000320EF
:0200ED000321ED
:0200EE000322EB
:0200EF000322EA
:0200F0000323E8
:0200F1000324E6
:0200F2000324E5
:0200F3000325E3
:0200F4000326E1
:0200F5000326E0
:0200F6000327DE
:0200F7000328DC
:0200F8000328DB
:0200F9000329D9
:0200FA00032AD7
:0200FB00032AD6
:0200FC00032BD4
:0200FD00032CD2
:0200FE00032CD1
:0200FF00032DCF
:02010000032ECC
:02010100032ECB
:02010200032FC9
:020103000330C7
:020104000330C6
:020105000331C4
:020106000332C2
:020107000332C1
:020108000333BF
:020109000334BD
:02010A000334BC
:02010B000335BA
:02010C000335B9
:02010D000336B7
:02010E000337B5
:02010F000337B4
:020110000338B2
:020111000339B0
:020112000339AF
:02011300033AAD
:02011400033AAC
:02011500033BAA
:02011600033CA8
:02011700033CA7
:02011800033DA5
:02011900033DA4
:02011A00033EA2
:02011B00033FA0
:02011C00033F9F
:02011D0003409D
:02011E0003409C
:02011F0003419A
:02012000034298
:02012100034297
:02012200034395
:02012300034394
:02012400034492
:02012500034491
:0201260003458F
:0201270003468D
:0201280003468C
:0201290003478A
:02012A00034789
:02012B00034887
:02012C00034886
:02012D00034984
:02012E00034983
:02012F00034A81
:02013000034B7F
:02013100034B7E
:02013200034C7C
:02013300034C7B
:02013400034D79
:02013500034D78
:02013600034E76
:02013700034E75
:02013800034F73
:02013900034F72
:02013A00035070
:02013B0003506F
:02013C0003516D
:02013D0003516C
:02013E0003526A
:02013F00035269
:02014000035367
:02014100035366
:02014200035464
:02014300035463
:02014400035561
:0201450003565F
:0201460003565E
:0201470003575C
:0201480003575B
:02014900035859
:02014A00035858
:02014B00035956
:02014C00035955
:02014D00035954
:02014E00035A52
:02014F00035A51
:02015000035B4F
:02015100035B4E
:02015200035C4C
:02015300035C4B
:02015400035D49
:02015500035D48
:02015600035E46
:02015700035E45
:02015800035F43
:02015900035F42
:02015A00036040
:02015B0003603F
:02015C0003613D
:02015D0003613C
:02015E0003623A
:02015F00036239
:02016000036238
:02016100036336
:02016200036335
:02016300036433
:02016400036432
:02016500036530
:0201660003652F
:0201670003662D
:0201680003662C
:0201690003672A
:02016A00036729
:02016B00036728
:02016C00036826
:02016D00036825
:02016E00036923
:02016F00036922
:02017000036A20
:02017100036A1F
:02017200036A1E
:02017300036B1C
:02017400036B1B
:02017500036C19
:02017600036C18
:02017700036D16
:02017800036D15
:02017900036D14
:02017A00036E12
:02017B00036E11
:02017C00036F0F
:02017D00036F0E
:02017E00036F0D
:02017F0003700B
:0201800003700A
:02018100037108
:02018200037107
:02018300037106
:02018400037204
:02018500037203
:02018600037301
:02018700037300
:020188000373FF
:020189000374FD
:02018A000374FC
:02018B000375FA
:02018C000375F9
:02018D000375F8
:02018E000376F6
:02018F000376F5
:020190000377F3
:020191000377F2
:020192000377F1
:020193000378EF
:020194000378EE
:020195000378ED
:020196000379EB
:020197000379EA
:02019800037AE8
:02019900037AE7
:02019A00037AE6
:02019B00037BE4
:02019C00037BE3
:02019D00037BE2
:02019E00037CE0
:02019F00037CDF
:0201A000037DDD
:0201A100037DDC
:0201A200037DDB
:0201A300037ED9
:0201A400037ED8
:0201A500037ED7
:0201A600037FD5
:0201A700037FD4
:0201A800037FD3
:0201A9000380D1
:0201AA000380D0
:0201AB000381CE
:0201AC000381CD
:0201AD000381CC
:0201AE000382CA
:0201AF000382C9
:0201B0000382C8
:0201B1000383C6
:0201B2000383C5
:0201B3000383C4
:0201B4000384C2
:0201B5000384C1
:0201B6000384C0
:0201B7000385BE
:0201B8000385BD
:0201B9000385BC
:0201BA000386BA
:0201BB000386B9
:0201BC000386B8
:0201BD000387B6
:0201BE000387B5
:0201BF000387B4
:0201C0000388B2
:0201C1000388B1
:0201C2000388B0
:0201C3000389AE
:0201C4000389AD
:0201C5000389AC
:0201C600038AAA
:0201C700038AA9
:0201C800038AA8
:0201C900038AA7
:0201CA00038BA5
:0201CB00038BA4
:0201CC00038BA3
:0201CD00038CA1
:0201CE00038CA0
:0201CF00038C9F
:0201D000038D9D
:0201D100038D9C
:0201D200038D9B
:0201D300038E99
:0201D400038E98
:0201D500038E97
:0201D600038F95
:0201D700038F94
:0201D800038F93
:0201D900038F92
:0201DA00039090
:0201DB0003908F
:0201DC0003908E
:0201DD0003918C
:0201DE0003918B
:0201DF0003918A
:0201E000039189
:0201E100039287
:0201E200039286
:0201E300039285
:0201E400039383
:0201E500039382
:0201E600039381
:0201E70003947F
:0201E80003947E
:0201E90003947D
:0201EA0003947C
:0201EB0003957A
:0201EC00039579
:0201ED00039578
:0201EE00039577
:0201EF00039675
:0201F000039674
:0201F100039673
:0201F200039771
:0201F300039770
:0201F40003976F
:0201F50003976E
:0201F60003986C
:0201F70003986B
:0201F80003986A
:0201F900039869
:0201FA00039967
:0201FB00039966
:0201FC00039965
:0201FD00039A63
:0201FE00039A62
:0201FF00039A61
:02020000039A5F
:02020100039B5D
:02020200039B5C
:02020300039B5B
:02020400039B5A
:02020500039C58
:02020600039C57
:02020700039C56
:02020800039C55
:02020900039D53
:02020A00039D52
:02020B00039D51
:02020C00039D50
:02020D00039E4E
:02020E00039E4D
:02020F00039E4C
:02021000039E4B
:02021100039F49
:02021200039F48
:02021300039F47
:02021400039F46
:0202150003A044
:0202160003A043
:0202170003A042
:0202180003A041
:0202190003A13F
:02021A0003A13E
:02021B0003A13D
:02021C0003A13C
:02021D0003A23A
:02021E0003A239
:02021F0003A238
:0202200003A237
:0202210003A335
:0202220003A334
:0202230003A333
:0202240003A332
:0202250003A430
:0202260003A42F
:0202270003A42E
:0202280003A42D
:0202290003A42C
:02022A0003A52A
:02022B0003A529
:02022C0003A528
:02022D0003A527
:02022E0003A625
:02022F0003A624
:0202300003A623
:0202310003A622
:0202320003A720
:0202330003A71F
:0202340003A71E
:0202350003A71D
:0202360003A71C
:0202370003A81A
:0202380003A819
:0202390003A818
:02023A0003A817
:02023B0003A915
:02023C0003A914
:02023D0003A913
:02023E0003A912
:02023F0003A911
:0202400003AA0F
:0202410003AA0E
:0202420003AA0D
:0202430003AA0C
:0202440003AA0B
:0202450003AB09
:0202460003AB08
:0202470003AB07
:0202480003AB06
:0202490003AC04
:02024A0003AC03
:02024B0003AC02
:02024C0003AC01
:02024D0003AC00
:02024E0003ADFE
:02024F0003ADFD
:0202500003ADFC
:0202510003ADFB
:0202520003ADFA
:0202530003AEF8
:0202540003AEF7
:0202550003AEF6
:0202560003AEF5
:0202570003AEF4
:0202580003AFF2
:0202590003AFF1
:02025A0003AFF0
:02025B0003AFEF
:02025C0003AFEE
:02025D0003B0EC
:02025E0003B0EB
:02025F0003B0EA
:0202600003B0E9
:0202610003B0E8
:0202620003B1E6
:0202630003B1E5
:0202640003B1E4
:0202650003B1E3
:0202660003B1E2
:0202670003B1E1
:0202680003B2DF
:0202690003B2DE
:02026A0003B2DD
:02026B0003B2DC
:02026C0003B2DB
:02026D0003B3D9
:02026E0003B3D8
:02026F0003B3D7
:0202700003B3D6
:0202710003B3D5
:0202720003B4D3
:0202730003B4D2
:0202740003B4D1
:0202750003B4D0
:0202760003B4CF
:0202770003B4CE
:0202780003B5CC
:0202790003B5CB
:02027A0003B5CA
:02027B0003B5C9
:02027C0003B5C8
:02027D0003B6C6
:02027E0003B6C5
:02027F0003B6C4
:0202800003B6C3
:0202810003B6C2
:0202820003B6C1
:0202830003B7BF
:0202840003B7BE
:0202850003B7BD
:0202860003B7BC
:0202870003B7BB
:0202880003B7BA
:0202890003B8B8
:02028A0003B8B7
:02028B0003B8B6
:02028C0003B8B5
:02028D0003B8B4
:02028E0003B8B3
:02028F0003B9B1
:0202900003B9B0
:0202910003B9AF
:0202920003B9AE
:0202930003B9AD
:0202940003B9AC
:0202950003BAAA
:0202960003BAA9
:0202970003BAA8
:0202980003BAA7
:0202990003BAA6
:02029A0003BAA5
:02029B0003BBA3
:02029C0003BBA2
:02029D0003BBA1
:02029E0003BBA0
:02029F0003BB9F
:0202A00003BB9E
:0202A10003BC9C
:0202A20003BC9B
:0202A30003BC9A
:0202A40003BC99
:0202A50003BC98
:0202A60003BC97
:0202A70003BD95
:0202A80003BD94
:0202A90003BD93
:0202AA0003BD92
:0202AB0003BD91
:0202AC0003BD90
:0202AD0003BE8E
:0202AE0003BE8D
:0202AF0003BE8C
:0202B00003BE8B
:0202B10003BE8A
:0202B20003BE89
:0202B30003BE88
:0202B40003BF86
:0202B50003BF85
:0202B60003BF84
:0202B70003BF83
:0202B80003BF82
:0202B90003BF81
:0202BA0003BF80
:0202BB0003C07E
:0202BC0003C07D
:0202BD0003C07C
:0202BE0003C07B
:0202BF0003C07A
:0202C00003C079
:0202C10003C177
:0202C20003C176
:0202C30003C175
:0202C40003C174
:0202C50003C173
:0202C60003C172
:0202C70003C171
:0202C80003C26F
:0202C90003C26E
:0202CA0003C26D
:0202CB0003C26C
:0202CC0003C26B
:0202CD0003C26A
:0202CE0003C269
:0202CF0003C367
:0202D00003C366
:0202D10003C365
:0202D20003C364
:0202D30003C363
:0202D40003C362
:0202D50003C361
:0202D60003C360
:0202D70003C45E
:0202D80003C45D
:0202D90003C45C
:0202DA0003C45B
:0202DB0003C45A
:0202DC0003C459
:0202DD0003C458
:0202DE0003C556
:0202DF0003C555
:0202E00003C554
:0202E10003C553
:0202E20003C552
:0202E30003C551
:0202E40003C550
:0202E50003C54F
:0202E60003C64D
:0202E70003C64C
:0202E80003C64B
:0202E90003C64A
:0202EA0003C649
:0202EB0003C648
:0202EC0003C647
:0202ED0003C745
:0202EE0003C744
:0202EF0003C743
:0202F00003C742
:0202F10003C741
:0202F20003C740
:0202F30003C73F
:0202F40003C73E
:0202F50003C83C
:0202F60003C83B
:0202F70003C83A
:0202F80003C839
:0202F90003C838
:0202FA0003C837
:0202FB0003C836
:0202FC0003C835
:0202FD0003C933
:0202FE0003C932
:0202FF0003C931
:0203000003C92F
:0203010003C92E
:0203020003C92D
:0203030003C92C
:0203040003C92B
:0203050003CA29
:0203060003CA28
:0203070003CA27
:0203080003CA26
:0203090003CA25
:02030A0003CA24
:02030B0003CA23
:02030C0003CA22
:02030D0003CA21
:02030E0003CB1F
:02030F0003CB1E
:0203100003CB1D
:0203110003CB1C
:0203120003CB1B
:0203130003CB1A
:0203140003CB19
:0203150003CB18
:0203160003CC16
:0203170003CC15
:0203180003CC14
:0203190003CC13
:02031A0003CC12
:02031B0003CC11
:02031C0003CC10
:02031D0003CC0F
:02031E0003CC0E
:02031F0003CD0C
:0203200003CD0B
:0203210003CD0A
:0203220003CD09
:0203230003CD08
:0203240003CD07
:0203250003CD06
:0203260003CD05
:0203270003CD04
:0203280003CE02
:0203290003CE01
:02032A0003CE00
:02032B0003CEFF
:02032C0003CEFE
:02032D0003CEFD
:02032E0003CEFC
:02032F0003CEFB
:0203300003CEFA
:0203310003CEF9
:0203320003CFF7
:0203330003CFF6
:0203340003CFF5
:0203350003CFF4
:0203360003CFF3
:0203370003CFF2
:0203380003CFF1
:0203390003CFF0
:02033A0003CFEF
:02033B0003D0ED
:02033C0003D0EC
:02033D0003D0EB
:02033E0003D0EA
:02033F0003D0E9
:0203400003D0E8
:0203410003D0E7
:0203420003D0E6
:0203430003D0E5
:0203440003D0E4
:0203450003D1E2
:0203460003D1E1
:0203470003D1E0
:0203480003D1DF
:0203490003D1DE
:02034A0003D1DD
:02034B0003D1DC
:02034C0003D1DB
:02034D0003D1DA
:02034E0003D1D9
:02034F0003D2D7
:0203500003D2D6
:0203510003D2D5
:0203520003D2D4
:0203530003D2D3
:0203540003D2D2
:0203550003D2D1
:0203560003D2D0
:0203570003D2CF
:0203580003D2CE
:0203590003D3CC
:02035A0003D3CB
:02035B0003D3CA
:02035C0003D3C9
:02035D0003D3C8
:02035E0003D3C7
:02035F0003D3C6
:0203600003D3C5
:0203610003D3C4
:0203620003D3C3
:0203630003D3C2
:0203640003D4C0
:0203650003D4BF
:0203660003D4BE
:0203670003D4BD
:0203680003D4BC
:0203690003D4BB
:02036A0003D4BA
:02036B0003D4B9
:02036C0003D4B8
:02036D0003D4B7
:02036E0003D4B6
:02036F0003D5B4
:0203700003D5B3
:0203710003D5B2
:0203720003D5B1
:0203730003D5B0
:0203740003D5AF
:0203750003D5AE
:0203760003D5AD
:0203770003D5AC
:0203780003D5AB
:0203790003D5AA
:02037A0003D6A8
:02037B0003D6A7
:02037C0003D6A6
:02037D0003D6A5
:02037E0003D6A4
:02037F0003D6A3
:0203800003D6A2
:0203810003D6A1
:0203820003D6A0
:0203830003D69F
:0203840003D69E
:0203850003D79C
:0203860003D79B
:0203870003D79A
:0203880003D799
:0203890003D798
:02038A0003D797
:02038B0003D796
:02038C0003D795
:02038D0003D794
:02038E0003D793
:02038F0003D792
:0203900003D791
:0203910003D88F
:0203920003D88E
:0203930003D88D
:0203940003D88C
:0203950003D88B
:0203960003D88A
:0203970003D889
:0203980003D888
:0203990003D887
:02039A0003D886
:02039B0003D885
:02039C0003D884
:02039D0003D883
:02039E0003D981
:02039F0003D980
:0203A00003D97F
:0203A10003D97E
:0203A20003D97D
:0203A30003D97C
:0203A40003D97B
:0203A50003D97A
:0203A60003D979
:0203A70003D978
:0203A80003D977
:0203A90003D976
:0203AA0003DA74
:0203AB0003DA73
:0203AC0003DA72
:0203AD0003DA71
:0203AE0003DA70
:0203AF0003DA6F
:0203B00003DA6E
:0203B10003DA6D
:0203B20003DA6C
:0203B30003DA6B
:0203B40003DA6A
:0203B50003DA69
:0203B60003DA68
:0203B70003DB66
:0203B80003DB65
:0203B90003DB64
:0203BA0003DB63
:0203BB0003DB62
:0203BC0003DB61
:0203BD0003DB60
:0203BE0003DB5F
:0203BF0003DB5E
:0203C00003DB5D
:0203C10003DB5C
:0203C20003DB5B
:0203C30003DB5A
:0203C40003DB59
:0203C50003DC57
:0203C60003DC56
:0203C70003DC55
:0203C80003DC54
:0203C90003DC53
:0203CA0003DC52
:0203CB0003DC51
:0203CC0003DC50
:0203CD0003DC4F
:0203CE0003DC4E
:0203CF0003DC4D
:0203D00003DC4C
:0203D10003DC4B
:0203D20003DC4A
:0203D30003DD48
:0203D40003DD47
:0203D50003DD46
:0203D60003DD45
:0203D70003DD44
:0203D80003DD43
:0203D90003DD42
:0203DA0003DD41
:0203DB0003DD40
:0203DC0003DD3F
:0203DD0003DD3E
:0203DE0003DD3D
:0203DF0003DD3C
:0203E00003DD3B
:0203E10003DD3A
:0203E20003DE38
:0203E30003DE37
:0203E40003DE36
:0203E50003DE35
:0203E60003DE34
:0203E70003DE33
:0203E80003DE32
:0203E90003DE31
:0203EA0003DE30
:0203EB0003DE2F
:0203EC0003DE2E
:0203ED0003DE2D
:0203EE0003DE2C
:0203EF0003DE2B
:0203F00003DE2A
:0203F10003DF28
:0203F20003DF27
:0203F30003DF26
:0203F40003DF25
:0203F50003DF24
:0203F60003DF23
:0203F70003DF22
:0203F80003DF21
:0203F90003DF20
:0203FA0003DF1F
:0203FB0003DF1E
:0203FC0003DF1D
:0203FD0003DF1C
:0203FE0003DF1B
:0203FF0003DF1A
:00000001ff
