:020000040000FA
:03000000040000F9
:0300010003FFFEFC
:0300020003FFFAFF
:0300030003FFF404
:0300040003FFEA0D
:0300050003FFDE18
:0300060003FFD025
:0300070003FFBE36
:0300080003FFAA49
:0300090003FF945E
:03000A0003FF7A77
:03000B0003FF5E92
:03000C0003FF40AF
:03000D0003FF1FCF
:03000E0003FEFBF3
:03000F0003FED419
:0300100003FEAB41
:0300110003FE7F6C
:0300120003FE5199
:0300130003FE20C9
:0300140003FDECFD
:0300150003FDB632
:0300160003FD7D6A
:0300170003FD42A4
:0300180003FD04E1
:0300190003FCC322
:03001A0003FC8064
:03001B0003FC3AA9
:03001C0003FBF2F1
:03001D0003FBA73B
:03001E0003FB5988
:03001F0003FB09D7
:0300200003FAB729
:0300210003FA627D
:0300220003FA0AD4
:0300230003F9B02E
:0300240003F95489
:0300250003F8F5E8
:0300260003F89349
:0300270003F82FAC
:0300280003F7C912
:0300290003F7607A
:03002A0003F6F5E5
:03002B0003F68752
:03002C0003F617C1
:03002D0003F5A434
:03002E0003F530A7
:03002F0003F4B81F
:0300300003F43F97
:0300310003F3C313
:0300320003F34491
:0300330003F2C411
:0300340003F24193
:0300350003F1BC18
:0300360003F1349F
:0300370003F0AA29
:0300380003F01EB4
:0300390003EF9042
:03003A0003EEFFD3
:03003B0003EE6D64
:03003C0003EDD8F9
:03003D0003ED418F
:03003E0003ECA729
:03003F0003EC0CC3
:0300400003EB6E61
:0300410003EACF00
:0300420003EA2DA1
:0300430003E98945
:0300440003E8E3EB
:0300450003E83B92
:0300460003E7903D
:0300470003E6E4E9
:0300480003E63696
:0300490003E58646
:03004A0003E4D4F8
:03004B0003E420AB
:03004C0003E36962
:03004D0003E2B11A
:03004E0003E1F7D4
:03004F0003E13C8E
:0300500003E07E4C
:0300510003DFBE0C
:0300520003DEFDCD
:0300530003DE3990
:0300540003DD7455
:0300550003DCAD1C
:0300560003DBE4E5
:0300570003DB1AAE
:0300580003DA4E7A
:0300590003D98048
:03005A0003D8B018
:03005B0003D7DEEA
:03005C0003D70BBC
:03005D0003D63790
:03005E0003D56067
:03005F0003D4883F
:0300600003D3AE19
:0300610003D2D3F4
:0300620003D1F6D1
:0300630003D118AE
:0300640003D0388E
:0300650003CF5670
:0300660003CE7353
:0300670003CD8F37
:0300680003CCA91D
:0300690003CBC105
:03006A0003CAD9ED
:03006B0003C9EED8
:03006C0003C903C2
:03006D0003C816AF
:03006E0003C7279E
:03006F0003C6378E
:0300700003C5467F
:0300710003C45471
:0300720003C36065
:0300730003C26B5A
:0300740003C17550
:0300750003C07D48
:0300760003BF8441
:0300770003BE8A3B
:0300780003BD8F36
:0300790003BC9332
:03007A0003BB9530
:03007B0003BA962F
:03007C0003B9972E
:03007D0003B8962F
:03007E0003B79431
:03007F0003B69134
:0300800003B58C39
:0300810003B4873E
:0300820003B38144
:0300830003B27A4B
:0300840003B17154
:0300850003B0685D
:0300860003AF5E67
:0300870003AE5372
:0300880003AD477E
:0300890003AC3A8B
:03008A0003AB2C99
:03008B0003AA1DA8
:03008C0003A90DB8
:03008D0003A7FDC9
:03008E0003A6EBDB
:03008F0003A5D9ED
:0300900003A4C600
:0300910003A3B313
:0300920003A29E28
:0300930003A1893D
:0300940003A07353
:03009500039F5C6A
:03009600039E4482
:03009700039D2C9A
:03009800039C13B3
:03009900039AFACD
:03009A000399DFE8
:03009B000398C502
:03009C000397A91E
:03009D0003968D3A
:03009E0003957057
:03009F0003945374
:0300A00003933592
:0300A100039217B0
:0300A2000390F8D0
:0300A300038FD8F0
:0300A400038EB810
:0300A500038D9830
:0300A600038C7652
:0300A700038B5573
:0300A800038A3395
:0300A900038911B7
:0300AA000387EEDB
:0300AB000386CAFF
:0300AC000385A722
:0300AD0003848346
:0300AE0003835E6B
:0300AF0003823990
:0300B000038114B5
:0300B100037FEEDC
:0300B200037EC802
:0300B300037DA228
:0300B400037C7B4F
:0300B500037B5575
:0300B600037A2D9D
:0300B700037906C4
:0300B8000377DEED
:0300B9000376B615
:0300BA0003758E3D
:0300BB0003746566
:0300BC0003733C8F
:0300BD00037214B7
:0300BE000370EAE2
:0300BF00036FC10B
:0300C000036E9735
:0300C100036D6E5E
:0300C200036C4488
:0300C300036B1AB2
:0300C4000369F0DD
:0300C5000368C508
:0300C60003679B32
:0300C7000366705D
:0300C80003654588
:0300C90003641BB2
:0300CA000362F0DE
:0300CB000361C509
:0300CC0003609A34
:0300CD00035F6F5F
:0300CE00035E448A
:0300CF00035D18B6
:0300D000035BEDE2
:0300D100035AC20D
:0300D20003599738
:0300D30003586C63
:0300D4000357408F
:0300D500035615BA
:0300D6000354EAE6
:0300D7000353BF11
:0300D8000352933D
:0300D90003516868
:0300DA0003503D93
:0300DB00034F12BE
:0300DC00034DE7EA
:0300DD00034CBC15
:0300DE00034B9140
:0300DF00034A676A
:0300E00003493C95
:0300E100034811C0
:0300E2000346E7EB
:0300E3000345BD15
:0300E4000344933F
:0300E5000343686A
:0300E60003423F93
:0300E700034115BD
:0300E800033FEBE8
:0300E900033EC211
:0300EA00033D983B
:0300EB00033C6F64
:0300EC00033B468D
:0300ED00033A1DB6
:0300EE000338F5DF
:0300EF000337CC08
:0300F0000336A430
:0300F10003357C58
:0300F20003345480
:0300F30003332CA8
:0300F400033205CF
:0300F5000330DEF7
:0300F600032FB71E
:0300F700032E9045
:0300F800032D6A6B
:0300F900032C4392
:0300FA00032B1DB8
:0300FB000329F8DE
:0300FC000328D204
:0300FD000327AD29
:0300FE000326884E
:0300FF0003256373
:00000001ff
