:020000040000FA
:0300000003243F97
:0300010003223F98
:0300020003203F99
:03000300031E3F9A
:03000400031C3F9B
:03000500031A3F9C
:0300060003183F9D
:0300070003163E9F
:0300080003143EA0
:0300090003123EA1
:03000A0003103EA2
:03000B00030E3DA4
:03000C00030C3DA5
:03000D00030A3CA7
:03000E0003083BA9
:03000F0003063BAA
:0300100003043AAC
:03001100030239AE
:03001200030037B1
:0300130002FE36B4
:0300140002FC34B7
:0300150002FA33B9
:0300160002F831BC
:0300170002F62FBF
:0300180002F42DC2
:0300190002F22AC6
:03001A0002F028C9
:03001B0002EE25CD
:03001C0002EC22D1
:03001D0002EA1FD5
:03001E0002E81CD9
:03001F0002E618DE
:0300200002E414E3
:0300210002E210E8
:0300220002E00BEE
:0300230002DE07F3
:0300240002DC02F9
:0300250002D9FC01
:0300260002D7F707
:0300270002D5F10E
:0300280002D3EB15
:0300290002D1E41D
:03002A0002CFDD25
:03002B0002CDD62D
:03002C0002CBCE36
:03002D0002C9C73E
:03002E0002C7BE48
:03002F0002C5B651
:0300300002C3AD5B
:0300310002C1A366
:0300320002BF9971
:0300330002BD8F7C
:0300340002BB8488
:0300350002B97994
:0300360002B76EA0
:0300370002B562AD
:0300380002B355BB
:0300390002B148C9
:03003A0002AF3BD7
:03003B0002AD2DE6
:03003C0002AB1EF6
:03003D0002A91005
:03003E0002A70016
:03003F0002A4F028
:0300400002A2E039
:0300410002A0CF4B
:03004200029EBD5E
:03004300029CAB71
:03004400029A9885
:0300450002988599
:03004600029671AE
:0300470002945CC4
:03004800029247DA
:03004900029031F1
:03004A00028E1A09
:03004B00028C0321
:03004C000289EB3B
:03004D000287D354
:03004E000285BA6E
:03004F000283A089
:03005000028185A5
:03005100027F6AC1
:03005200027D4EDE
:03005300027B31FC
:030054000279131B
:030055000276F53B
:030056000274D65B
:030057000272B67C
:030058000270959E
:03005900026E73C1
:03005A00026C51E4
:03005B00026A2D09
:03005C000268092E
:03005D000265E455
:03005E000263BE7C
:03005F00026197A4
:03006000025F6FCD
:03006100025D46F7
:03006200025B1D21
:030063000258F24E
:030064000256C67B
:0300650002549AA8
:0300660002526CD7
:0300670002503D07
:03006800024E0D38
:03006900024BDD6A
:03006A000249AB9D
:03006B00024778D1
:03006C0002454307
:03006D0002430E3D
:03006E000240D875
:03006F00023EA0AE
:03007000023C67E8
:03007100023A2D23
:030072000237F260
:030073000235B69D
:03007400023378DC
:030075000231391C
:03007600022EF95E
:03007700022CB7A1
:03007800022A74E5
:030079000228302A
:03007A000225EA72
:03007B000223A3BA
:03007C0002215B03
:03007D00021F114E
:03007E00021CC59C
:03007F00021A78EA
:030080000000007D
:030081000000007C
:030082000000007B
:030083000000007A
:0300840000000079
:0300850000000078
:0300860000000077
:0300870000000076
:0300880000000075
:0300890000000074
:03008A0000000073
:03008B0000000072
:03008C0000000071
:03008D0000000070
:03008E000000006F
:03008F000000006E
:030090000000006D
:030091000000006C
:030092000000006B
:030093000000006A
:0300940000000069
:0300950000000068
:0300960000000067
:0300970000000066
:0300980000000065
:0300990000000064
:03009A0000000063
:03009B0000000062
:03009C0000000061
:03009D0000000060
:03009E000000005F
:03009F000000005E
:0300A0000000005D
:0300A1000000005C
:0300A2000000005B
:0300A3000000005A
:0300A40000000059
:0300A50000000058
:0300A60000000057
:0300A70000000056
:0300A80000000055
:0300A90000000054
:0300AA0000000053
:0300AB0000000052
:0300AC0000000051
:0300AD0000000050
:0300AE000000004F
:0300AF000000004E
:0300B0000000004D
:0300B1000000004C
:0300B2000000004B
:0300B3000000004A
:0300B40000000049
:0300B50000000048
:0300B60000000047
:0300B70000000046
:0300B80000000045
:0300B90000000044
:0300BA0000000043
:0300BB0000000042
:0300BC0000000041
:0300BD0000000040
:0300BE000000003F
:0300BF000000003E
:0300C0000000003D
:0300C1000000003C
:0300C2000000003B
:0300C3000000003A
:0300C40000000039
:0300C50000000038
:0300C60000000037
:0300C70000000036
:0300C80000000035
:0300C90000000034
:0300CA0000000033
:0300CB0000000032
:0300CC0000000031
:0300CD0000000030
:0300CE000000002F
:0300CF000000002E
:0300D0000000002D
:0300D1000000002C
:0300D2000000002B
:0300D3000000002A
:0300D40000000029
:0300D50000000028
:0300D60000000027
:0300D70000000026
:0300D80000000025
:0300D90000000024
:0300DA0000000023
:0300DB0000000022
:0300DC0000000021
:0300DD0000000020
:0300DE000000001F
:0300DF000000001E
:0300E0000000001D
:0300E1000000001C
:0300E2000000001B
:0300E3000000001A
:0300E40000000019
:0300E50000000018
:0300E60000000017
:0300E70000000016
:0300E80000000015
:0300E90000000014
:0300EA0000000013
:0300EB0000000012
:0300EC0000000011
:0300ED0000000010
:0300EE000000000F
:0300EF000000000E
:0300F0000000000D
:0300F1000000000C
:0300F2000000000B
:0300F3000000000A
:0300F40000000009
:0300F50000000008
:0300F60000000007
:0300F70000000006
:0300F80000000005
:0300F90000000004
:0300FA0000000003
:0300FB0000000002
:0300FC0000000001
:0300FD0000000000
:0300FE00000000FF
:0300FF00000000FE
:00000001ff
