:020000040000FA
:020000000C787A
:020001000C836E
:020002000C8E62
:020003000C9857
:020004000CA549
:020005000CB23B
:020006000CBB31
:020007000CC328
:020008000CD01A
:020009000CD910
:02000A000CE008
:02000B000CECFB
:02000C000CF3F3
:02000D000CFCE9
:02000E000D09DA
:02000F000D0FD3
:020010000D17CA
:020011000D21BF
:020012000D2AB5
:020013000D32AC
:020014000D39A4
:020015000D419B
:020016000D4893
:020017000D4F8B
:020018000D5683
:020019000D5E7A
:02001A000D6572
:02001B000D6D69
:02001C000D7560
:02001D000D7B59
:02001E000D8152
:02001F000D8A48
:020020000D9140
:020021000D953B
:020022000D9A35
:020023000DA02E
:020024000DA924
:020025000DAF1D
:020026000DB615
:020027000DBB0F
:020028000DBE0B
:020029000DC701
:02002A000DCAFD
:02002B000DD1F5
:02002C000DD6EF
:02002D000DDCE8
:02002E000DE0E3
:02002F000DE4DE
:020030000DEAD7
:020031000DF1CF
:020032000DF6C9
:020033000DFBC3
:020034000E00BC
:020035000E04B7
:020036000E08B2
:020037000E0FAA
:020038000E11A7
:020039000E16A1
:02003A000E1A9C
:02003B000E2194
:02003C000E2391
:02003D000E258E
:02003E000E2B87
:02003F000E3081
:020040000E347C
:020041000E3877
:020042000E3B73
:020043000E3E6F
:020044000E426A
:020045000E4764
:020046000E4C5E
:020047000E4F5A
:020048000E5256
:020049000E5552
:02004A000E594D
:02004B000E5D48
:02004C000E5F45
:02004D000E6043
:02004E000E663C
:02004F000E6938
:020050000E6D33
:020051000E702F
:020052000E732B
:020053000E7528
:020054000E7923
:020055000E7E1D
:020056000E7F1B
:020057000E8118
:020058000E8612
:020059000E890E
:02005A000E8C0A
:02005B000E8F06
:02005C000E9202
:02005D000E94FF
:02005E000E96FC
:02005F000E97FA
:020060000E99F7
:020061000EA0EF
:020062000EA2EC
:020063000EA2EB
:020064000EA3E9
:020065000EA9E2
:020066000EA9E1
:020067000EACDD
:020068000EAFD9
:020069000EB1D6
:02006A000EB3D3
:02006B000EB5D0
:02006C000EB7CD
:02006D000EB9CA
:02006E000EBCC6
:02006F000EC0C1
:020070000EC3BD
:020071000EC5BA
:020072000EC7B7
:020073000EC9B4
:020074000ECAB2
:020075000ECBB0
:020076000ECFAB
:020077000ED0A9
:020078000ED3A5
:020079000ED5A2
:02007A000ED89E
:02007B000EDB9A
:02007C000EDB99
:02007D000EDD96
:02007E000EDF93
:02007F000EE091
:020080000B8DE6
:020081000B99D9
:020082000BABC6
:020083000BB8B8
:020084000BC3AC
:020085000BD39B
:020086000BE08D
:020087000BEC80
:020088000BFB70
:020089000C0564
:02008A000C1355
:02008B000C1F48
:02008C000C283E
:02008D000C372E
:02008E000C4222
:02008F000C4D16
:020090000C570B
:020091000C62FF
:020092000C6CF4
:020093000C77E8
:020094000C81DD
:020095000C89D4
:020096000C95C7
:020097000C9DBE
:020098000CA6B4
:020099000CB0A9
:02009A000CB99F
:02009B000CC295
:02009C000CCE88
:02009D000CD67F
:02009E000CDD77
:02009F000CE66D
:0200A0000CEF63
:0200A1000CF65B
:0200A2000CFC54
:0200A3000D0747
:0200A4000D0C41
:0200A5000D1636
:0200A6000D1B30
:0200A7000D2228
:0200A8000D2821
:0200A9000D3216
:0200AA000D390E
:0200AB000D4105
:0200AC000D47FE
:0200AD000D4DF7
:0200AE000D53F0
:0200AF000D59E9
:0200B0000D5EE3
:0200B1000D67D9
:0200B2000D6CD3
:0200B3000D74CA
:0200B4000D7BC2
:0200B5000D80BC
:0200B6000D86B5
:0200B7000D8AB0
:0200B8000D8FAA
:0200B9000D96A2
:0200BA000D9C9B
:0200BB000DA294
:0200BC000DA88D
:0200BD000DAC88
:0200BE000DB182
:0200BF000DB57D
:0200C0000DBC75
:0200C1000DBF71
:0200C2000DC46B
:0200C3000DCA64
:0200C4000DCE5F
:0200C5000DD15B
:0200C6000DD952
:0200C7000DDD4D
:0200C8000DE247
:0200C9000DE543
:0200CA000DEA3D
:0200CB000DED39
:0200CC000DF332
:0200CD000DF72D
:0200CE000DFB28
:0200CF000DFF23
:0200D0000E041C
:0200D1000E0817
:0200D2000E0B13
:0200D3000E0F0E
:0200D4000E1408
:0200D5000E1803
:0200D6000E1BFF
:0200D7000E1EFB
:0200D8000E23F5
:0200D9000E25F2
:0200DA000E28EE
:0200DB000E2BEA
:0200DC000E2FE5
:0200DD000E33E0
:0200DE000E38DA
:0200DF000E3AD7
:0200E0000E3DD3
:0200E1000E40CF
:0200E2000E44CA
:0200E3000E47C6
:0200E4000E4BC1
:0200E5000E4FBC
:0200E6000E51B9
:0200E7000E54B5
:0200E8000E59AF
:0200E9000E5CAB
:0200EA000E5DA9
:0200EB000E60A5
:0200EC000E63A1
:0200ED000E679C
:0200EE000E689A
:0200EF000E6C95
:0200F0000E6F91
:0200F1000E708F
:0200F2000E7589
:0200F3000E7984
:0200F4000E7B81
:0200F5000E7D7E
:0200F6000E7E7C
:0200F7000E8178
:0200F8000E8573
:0200F9000E886F
:0200FA000E8B6B
:0200FB000E8E67
:0200FC000E9064
:0200FD000E9261
:0200FE000E945E
:0200FF000E965B
:020100000A668D
:020101000A767C
:020102000A8A67
:020103000A9A56
:020104000AAC43
:020105000ABC32
:020106000ACF1E
:020107000ADF0D
:020108000AEDFE
:020109000AFFEB
:02010A000B0DDB
:02010B000B1CCB
:02010C000B29BD
:02010D000B3AAB
:02010E000B479D
:02010F000B5390
:020110000B637F
:020111000B736E
:020112000B7F61
:020113000B8B54
:020114000B9747
:020115000BA439
:020116000BB02C
:020117000BBB20
:020118000BC713
:020119000BD405
:02011A000BE1F7
:02011B000BEAED
:02011C000BF8DE
:02011D000C01D3
:02011E000C0CC7
:02011F000C15BD
:020120000C23AE
:020121000C2BA5
:020122000C349B
:020123000C3F8F
:020124000C4885
:020125000C517B
:020126000C5A71
:020127000C6367
:020128000C6E5B
:020129000C7751
:02012A000C8047
:02012B000C883E
:02012C000C9035
:02012D000C9B29
:02012E000CA221
:02012F000CA919
:020130000CB20F
:020131000CBB05
:020132000CC4FB
:020133000CCBF3
:020134000CD0ED
:020135000CD7E5
:020136000CDEDD
:020137000CE6D4
:020138000CEDCC
:020139000CF6C2
:02013A000CFCBB
:02013B000D01B4
:02013C000D0BA9
:02013D000D0FA4
:02013E000D159D
:02013F000D2190
:020140000D258B
:020141000D2887
:020142000D337B
:020143000D3776
:020144000D3C70
:020145000D416A
:020146000D4961
:020147000D4E5B
:020148000D5553
:020149000D5A4D
:02014A000D6046
:02014B000D6540
:02014C000D693B
:02014D000D6E35
:02014E000D742E
:02014F000D7B26
:020150000D811F
:020151000D851A
:020152000D8A14
:020153000D900D
:020154000D9507
:020155000D9A01
:020156000D9FFB
:020157000DA2F7
:020158000DA5F3
:020159000DADEA
:02015A000DB1E5
:02015B000DB6DF
:02015C000DBBD9
:02015D000DBED5
:02015E000DC2D0
:02015F000DC5CC
:020160000DC8C8
:020161000DCDC2
:020162000DD2BC
:020163000DD6B7
:020164000DDAB2
:020165000DDFAC
:020166000DE4A6
:020167000DE7A2
:020168000DEA9E
:020169000DED9A
:02016A000DF195
:02016B000DF590
:02016C000DF98B
:02016D000DFC87
:02016E000DFF83
:02016F000E037D
:020170000E0877
:020171000E0D71
:020172000E106D
:020173000E126A
:020174000E1368
:020175000E1664
:020176000E1B5E
:020177000E2058
:020178000E2255
:020179000E2452
:02017A000E264F
:02017B000E2D47
:02017C000E2E45
:02017D000E3141
:02017E000E363B
:02017F000E3937
:00000001ff
