:020000040000FA
:03000000049AEC73
:0300010004A03C1C
:0300020004A591C1
:0300030004AAEF5D
:0300040004B054F1
:0300050004B5BC83
:0300060004BB2B0D
:0300070004C0A191
:0300080004C61D0E
:0300090004CBA085
:03000A0004D124FA
:03000B0004D6B365
:03000C0004DC4BC6
:03000D0004E1E823
:03000E0004E78A7A
:03000F0004ED34C9
:0300100004F2E017
:0300110004F89957
:0300120004FE5495
:03001300050416CB
:030014000509DFFC
:03001500050FAF25
:0300160005158647
:03001700051B6561
:0300180005214A75
:0300190005273385
:03001A00052D268B
:03001B0005331F8B
:03001C0005392083
:03001D00053F2676
:03001E0005453560
:03001F00054B4B43
:0300200005516720
:0300210005578AF6
:03002200055DB3C6
:030023000563E48E
:03002400056A1B4F
:0300250005705A09
:030026000576A3B9
:03002700057CF164
:030028000583430A
:030029000589A0A6
:03002A0005900539
:03002B00059670C7
:03002C00059CE54B
:03002D0005A35ECA
:03002E0005A9DE43
:03002F0005B067B2
:0300300005B6FA18
:0300310005BD9278
:0300320005C431D1
:0300330005CAD625
:0300340005D1876C
:0300350005D83AB1
:0300360005DEFAEA
:0300370005E5C11B
:0300380005EC8F45
:0300390005F36666
:03003A0005FA4282
:03003B0006012992
:03003C000608179C
:03003D00060F0C9F
:03003E0006160C97
:03003F00061D1289
:0300400006242073
:03004100062B3754
:0300420006325132
:0300430006397902
:030044000640A8CB
:030045000647DE8D
:03004600064F1E44
:03004700065663F7
:03004800065DB59D
:0300490006650F3A
:03004A00066C6FD2
:03004B000673D960
:03004C00067B4AE6
:03004D000682C662
:03004E00068A48D7
:03004F000691D443
:03005000069968A6
:0300510006A108FD
:0300520006A8AB52
:0300530006B05C98
:0300540006B812D9
:0300550006BFD50E
:0300560006C79F3B
:0300570006CF725F
:0300580006D74A7E
:0300590006DF318E
:03005A0006E71F97
:03005B0006EF1895
:03005C0006F7188C
:03005D0006FF217A
:03005E000707335E
:03005F00070F4D3B
:030060000717730C
:03006100071FA3D3
:030062000727DA93
:0300630007301C47
:03006400073869F1
:030065000740BA97
:0300660007491A2D
:03006700075184BA
:030068000759F73E
:03006900076271BA
:03006A00076AF62C
:03006B0007738494
:03006C00077C20EE
:03006D000784C342
:03006E00078D6F8C
:03006F00079624CD
:03007000079EE404
:0300710007A7AF2F
:0300720007B0854F
:0300730007B96664
:0300740007C24F71
:0300750007CB4274
:0300760007D4416B
:0300770007DD4C56
:0300780007E65C3C
:0300790007EF7C12
:03007A0007F8A2E2
:03007B000801D5A4
:03007C00080B115D
:03007D0008145B09
:03007E00081DAEAC
:03007F0008270A45
:03008000083075D0
:030081000839E853
:03008200084365CB
:03008300084CEE38
:030084000856819A
:03008500086020F0
:030086000869C93D
:0300870008737F7C
:03008800087D40B0
:0300890008870DD8
:03008A000890E0FB
:03008B00089AC40C
:03008C0008A4B312
:03008D0008AEAA10
:03008E0008B8B1FE
:03008F0008C2C2E2
:0300900008CCDFBA
:0300910008D70687
:0300920008E1364C
:0300930008EB7700
:0300940008F5C4A8
:0300950009001748
:03009600090A7CD8
:030097000914E960
:03009800091F65D8
:030099000929EB47
:03009A0009347EA8
:03009B00093F1BFF
:03009C000949C748
:03009D0009548281
:03009E00095F43B4
:03009F00096A16D5
:0300A0000974F2EE
:0300A100097FDDF7
:0300A200098AD0F8
:0300A3000995D2EA
:0300A40009A0E3CD
:0300A50009AC01A2
:0300A60009B72770
:0300A70009C25D2E
:0300A80009CDA1DE
:0300A90009D8F380
:0300AA0009E45016
:0300AB0009EFB7A3
:0300AC0009FB311C
:0300AD000A06B38D
:0300AE000A1244EF
:0300AF000A1DE443
:0300B0000A29908A
:0300B1000A3549C4
:0300B2000A4113ED
:0300B3000A4CE70D
:0300B4000A58C91E
:0300B5000A64BB1F
:0300B6000A70B716
:0300B7000A7CC5FB
:0300B8000A88DED5
:0300B9000A95079E
:0300BA000AA13B5D
:0300BB000AAD810A
:0300BC000AB9D1AD
:0300BD000AC6343C
:0300BE000AD2A3C0
:0300BF000ADF2035
:0300C0000AEBA99F
:0300C1000AF846F4
:0300C2000B04ED3F
:0300C3000B11A37B
:0300C4000B1E69A7
:0300C5000B2B3EC4
:0300C6000B3820D4
:0300C7000B4511D5
:0300C8000B5213C5
:0300C9000B5F22A8
:0300CA000B6C4379
:0300CB000B79713D
:0300CC000B86AEF2
:0300CD000B93FB97
:0300CE000BA1592A
:0300CF000BAEC1B4
:0300D0000BBC3E28
:0300D1000BC9C98F
:0300D2000BD762E7
:0300D3000BE50D2D
:0300D4000BF2C567
:0300D5000C008E8E
:0300D6000C0E69A4
:0300D7000C1C51AD
:0300D8000C2A4CA3
:0300D9000C38538D
:0300DA000C466E63
:0300DB000C549929
:0300DC000C62D4DF
:0300DD000C711E85
:0300DE000C7F791B
:0300DF000C8DE69F
:0300E0000C9C6114
:0300E1000CAAF076
:0300E2000CB98EC8
:0300E3000CC83A0C
:0300E4000CD6FD3A
:0300E5000CE5CE59
:0300E6000CF4AD6A
:0300E7000D03A264
:0300E8000D12A551
:0300E9000D21BC2A
:0300EA000D30E2F4
:0300EB000D4019AC
:0300EC000D4F6550
:0300ED000D5EBFE6
:0300EE000D6E2E66
:0300EF000D7DADD7
:0300F0000D8D3E35
:0300F1000D9CE281
:0300F2000DAC98BA
:0300F3000DBC5DE4
:0300F4000DCC37F9
:0300F5000DDC24FB
:0300F6000DEC20EE
:0300F7000DFC31CC
:0300F8000E0C5794
:0300F9000E1C8951
:0300FA000E2CD2F7
:0300FB000E3D2E89
:0300FC000E4D9C0A
:0300FD000E5E1F75
:0300FE000E6EB2D1
:0300FF000E7F5A17
:00000001ff
