:020000040000FA
:0200000002AD4F
:0200010002B04B
:0200020002B347
:0200030002B742
:0200040002BF39
:0200050002C334
:0200060002C630
:0200070002C92C
:0200080002CE26
:0200090002D221
:02000A0002D51D
:02000B0002DA17
:02000C0002DE12
:02000D0002E50A
:02000E0002E905
:02000F0002EC01
:0200100002EEFE
:0200110002F4F7
:0200120002F8F2
:0200130002FBEE
:020014000305E2
:020015000307DF
:02001600030ADB
:02001700030ED6
:020018000313D0
:020019000318CA
:02001A00031EC3
:02001B000323BD
:02001C000327B8
:02001D00032CB2
:02001E000331AC
:02001F000334A8
:02002000033BA0
:0200210003409A
:02002200034594
:02002300034A8E
:02002400034F88
:02002500035581
:0200260003587D
:02002700035F75
:0200280003646F
:02002900036B67
:02002A00036E63
:02002B0003725E
:02002C00037857
:02002D00037E50
:02002E00038449
:02002F00038844
:02003000038C3F
:02003100039139
:02003200039930
:02003300039E2A
:0200340003A423
:0200350003A81E
:0200360003B114
:0200370003B70D
:0200380003BC07
:0200390003C101
:02003A0003C7FA
:02003B0003CBF5
:02003C0003CFF0
:02003D0003D5E9
:02003E0003DDE0
:02003F0003E2DA
:0200400003E8D3
:0200410003EDCD
:0200420003F5C4
:0200430003FABE
:020044000400B6
:020045000407AE
:02004600040DA7
:020047000412A1
:0200480004179B
:02004900042190
:02004A0004258B
:02004B00042C83
:02004C0004327C
:02004D00043974
:02004E0004416B
:02004F00044863
:02005000044F5B
:02005100045653
:02005200045B4D
:02005300046047
:02005400046B3B
:02005500046F36
:0200560004792B
:02005700047F24
:0200580004841E
:02005900048B16
:02005A0004920E
:02005B00049A05
:02005C0004A2FC
:02005D0004A9F4
:02005E0004B1EB
:02005F0004B9E2
:0200600004BFDB
:0200610004C5D4
:0200620004CDCB
:0200630004D4C3
:0200640004DBBB
:0200650004E1B4
:0200660004EBA9
:0200670004F2A1
:0200680004FA98
:02006900050090
:02006A00050C83
:02006B0005127C
:02006C00051974
:02006D0005226A
:02006E00052A61
:02006F00053159
:02007000053950
:02007100054147
:0200720005483F
:02007300055036
:02007400055D28
:02007500056321
:02007600056F14
:0200770005750D
:02007800057B06
:020079000584FC
:02007A00058EF1
:02007B000597E7
:02007C00059FDE
:02007D0005A9D3
:02007E0005B3C8
:02007F0005BDBD
:02008000055227
:02008100054A2E
:02008200054037
:0200830005393D
:02008400053441
:02008500052D47
:02008600052350
:02008700051C56
:0200880005135E
:02008900050C64
:02008A0005046B
:02008B0004FC73
:02008C0004F678
:02008D0004EE7F
:02008E0004E686
:02008F0004DF8C
:0200900004D991
:0200910004CF9A
:0200920004CA9E
:0200930004C2A5
:0200940004BDA9
:0200950004B7AE
:0200960004ACB8
:0200970004A6BD
:02009800049FC3
:02009900049BC6
:02009A000491CF
:02009B00048BD4
:02009C000483DB
:02009D00047CE1
:02009E000477E5
:02009F00046EED
:0200A000046AF0
:0200A1000464F5
:0200A200045BFD
:0200A300045502
:0200A400045105
:0200A50004490C
:0200A600044311
:0200A700043D16
:0200A80004381A
:0200A900043021
:0200AA00042A26
:0200AB00042629
:0200AC00041D31
:0200AD00041835
:0200AE0004113B
:0200AF00040D3E
:0200B000040743
:0200B10003FF4B
:0200B20003FA4F
:0200B30003F553
:0200B40003F057
:0200B50003EA5C
:0200B60003E560
:0200B70003DE66
:0200B80003D96A
:0200B90003D46E
:0200BA0003CE73
:0200BB0003C878
:0200BC0003C37C
:0200BD0003BD81
:0200BE0003B984
:0200BF0003B18B
:0200C00003AD8E
:0200C10003A793
:0200C20003A297
:0200C300039D9B
:0200C4000397A0
:0200C5000394A2
:0200C600038AAB
:0200C7000387AD
:0200C8000385AE
:0200C900037CB6
:0200CA000378B9
:0200CB000373BD
:0200CC00036EC1
:0200CD00036AC4
:0200CE000364C9
:0200CF00035ECE
:0200D0000359D2
:0200D1000355D5
:0200D2000350D9
:0200D300034CDC
:0200D4000346E1
:0200D5000342E4
:0200D600033FE6
:0200D700033AEA
:0200D8000334EF
:0200D9000331F1
:0200DA00032CF5
:0200DB000327F9
:0200DC000322FD
:0200DD00031D01
:0200DE00031A03
:0200DF00031408
:0200E00003100B
:0200E100030C0E
:0200E200030613
:0200E300030216
:0200E40002FE1A
:0200E50002FB1C
:0200E60002F71F
:0200E70002F322
:0200E80002EF25
:0200E90002EB28
:0200EA0002E72B
:0200EB0002E22F
:0200EC0002DD33
:0200ED0002D936
:0200EE0002D638
:0200EF0002D23B
:0200F00002CD3F
:0200F10002C843
:0200F20002C446
:0200F30002C247
:0200F40002BE4A
:0200F50002BA4D
:0200F60002B74F
:0200F70002B055
:0200F80002AC58
:0200F90002A85B
:0200FA0002A45E
:0200FB0002A061
:0200FC00029D63
:0200FD00029A65
:0200FE00029767
:0200FF0002936A
:00000001ff
