:020000040000FA
:040000000B504F371B
:040001000B4AAB4AB1
:040002000B450FC4D7
:040003000B3F7C91A2
:040004000B39F19B28
:040005000B346ED07A
:040006000B2EF419B0
:040007000B298165DB
:040008000B2416A00F
:040009000B1EB3B661
:04000A000B195894E2
:04000B000B140528A5
:04000C000B0EB960BE
:04000D000B0975283E
:04000E000B04387037
:04000F000AFF0326BB
:040010000AF9D538DC
:040011000AF4AE94AB
:040012000AEF8F2A38
:040013000AEA76E996
:040014000AE565C0D4
:040015000AE05B9F03
:040016000ADB587633
:040017000AD65C3475
:040018000AD166CAD9
:040019000ACC78296C
:04001A000AC7904041
:04001B000AC2AF0165
:04001C000ABDD45CE9
:04001D000AB90044D8
:04001E000AB432A846
:04001F000AAF6B7B3E
:040020000AAAAAAFCF
:040021000AA5F03408
:040022000AA13BFEF6
:040023000A9C8DFEA8
:040024000A97E6272A
:040025000A93446C8A
:040026000A8EA8BED8
:040027000A8A13111D
:040028000A8583586A
:040029000A80F987C9
:04002A000A7C758F48
:04002B000A77F766F3
:04002C000A737EFED7
:04002D000A6F0C4BFF
:04002E000A6A9F417A
:04002F000A6637D452
:040030000A61D5F993
:040031000A5D79A348
:040032000A5922C77E
:040033000A54D15A40
:040034000A50855099
:040035000A4C3E9E95
:040036000A47FD393F
:040037000A43C117A0
:040038000A3F8A2CC5
:040039000A3B586EB8
:04003A000A372BD185
:04003B000A33044D33
:04003C000A2EE1D6D1
:04003D000A2AC46265
:04003E000A26ABE7FC
:04003F000A22985C9D
:040040000A1E89B556
:040041000A1A7FEA2E
:040042000A167AF12F
:040043000A127AC063
:040044000A0E7F4ED3
:040045000A0A88918A
:040046000A0696818F
:040047000A02A913ED
:0400480009FEC040AD
:0400490009FADBFDD8
:04004A0009F6FC4374
:04004B0009F321088C
:04004C0009EF4A442A
:04004D0009EB77EE56
:04004E0009E7A9FE17
:04004F0009E3E06B76
:0400500009E01B2C7C
:0400510009DC5A3B31
:0400520009D89D8E9E
:0400530009D4E51DCA
:0400540009D130E1BD
:0400550009CD80D27F
:0400560009C9D4E719
:0400570009C62D1990
:0400580009C28961EF
:0400590009BEE9B73C
:04005A0009BB4E127E
:04005B0009B7B66DBE
:04005C0009B422BF02
:04005D0009B0930251
:04005E0009AD072DB4
:04005F0009A97F3A32
:0400600009A5FB23D0
:0400610009A27ADE98
:04006200099EFE678E
:04006300099B85B6BA
:04006400099810C522
:0400650009949F8BD0
:0400660009913204C6
:04006700098DC8280F
:04006800098A61F1AF
:040069000986FF58AD
:04006A000983A05610
:04006B00098044E7DD
:04006C00097CED031B
:04006D00097998A3D2
:04006E00097647C305
:04006F000972FA5CBC
:04007000096FB067FD
:04007100096C69DFCE
:04007200096926BE34
:040073000965E6FE37
:040074000962AA99DA
:04007500095F718925
:04007600095C3BC91D
:0400770009590953C7
:040078000955DA222A
:040079000952AE2F4B
:04007A00094F85762F
:04007B00094C5FF1DC
:04007C0009493D9A57
:04007D0009461E6DA5
:04007E0009430263CD
:04007F00093FE978D4
:04008000093CD3A7BD
:040081000939C0E990
:040082000936B13B4F
:040083000933A49702
:0400840009309AF9AC
:04008500092D945A53
:04008600092A90B6FD
:0400870009279009AC
:040088000924924D68
:040089000921977E34
:04008A00091E9F9715
:04008B00091BAA9310
:04008C000918B86D2A
:04008D000915C92266
:04008E000912DCACCB
:04008F00090FF3065C
:04009000090D0C2D1D
:04009100090A281C14
:04009200090746CE46
:040093000904683FB5
:0400940009018C6A68
:0400950008FEB34C62
:0400960008FBDCE0A7
:0400970008F9092239
:0400980008F6380D21
:0400990008F3699E61
:04009A0008F09DD0FD
:04009B0008EDD49FF9
:04009C0008EB0E0857
:04009D0008E84A0520
:04009E0008E5889356
:04009F0008E2C9AFFB
:0400A00008E00D5413
:0400A10008DD537EA5
:0400A20008DA9C2AB2
:0400A30008D7E75340
:0400A40008D534F651
:0400A50008D28510E8
:0400A60008CFD79B0D
:0400A70008CD2C95BF
:0400A80008CA83FA05
:0400A90008C7DDC7E0
:0400AA0008C539F755
:0400AB0008C2988768
:0400AC0008BFF9741C
:0400AD0008BD5CBA74
:0400AE0008BAC25575
:0400AF0008B82A4320
:0400B00008B5947F7C
:0400B10008B3010689
:0400B20008B06FD54E
:0400B30008ADE0E9CB
:0400B40008AB543D04
:0400B50008A8C9D0FE
:0400B60008A6419DBA
:0400B70008A3BBA13E
:0400B80008A137DA8A
:0400B900089EB643A4
:0400BA00089C36DB8D
:0400BB000899B99C4B
:0400BC0008973E85DE
:0400BD000894C5934B
:0400BE0008924EC294
:0400BF00088FDA0FBD
:0400C000088D6777C9
:0400C100088AF6F7BC
:0400C2000888888D95
:0400C30008861C345B
:0400C4000883B1EB11
:0400C500088149AFB6
:0400C600087EE37C51
:0400C700087C7F4FE3
:0400C800087A1D276E
:0400C9000877BCFFF9
:0400CA0008755ED681
:0400CB00087302A80C
:0400CC000870A8729E
:0400CD00086E503336
:0400CE00086BF9E7DB
:0400CF000869A58B8C
:0400D0000867531D4D
:0400D1000865029A22
:0400D2000862B3FF0E
:0400D3000860674B0F
:0400D400085E1C7A2C
:0400D500085BD38968
:0400D60008598C77C2
:0400D700085747403F
:0400D800085503E3E1
:0400D9000852C25CAB
:0400DA00085082A99F
:0400DB00084E44C8BF
:0400DC00084C08B60E
:0400DD000849CE7090
:0400DE00084795F644
:0400DF0008455F432E
:0400E00008432A5552
:0400E1000840F72BB1
:0400E200083EC5C24D
:0400E300083C961827
:0400E400083A682945
:0400E50008383BF5A7
:0400E600083611784F
:0400E7000833E8B141
:0400E8000831C19D7D
:0400E900082F9C3A06
:0400EA00082D7886DF
:0400EB00082B567E0A
:0400EC000829362188
:0400ED000827176B5E
:0400EE000824FA5C8C
:0400EF000822DEF114
:0400F0000820C528F7
:0400F100081EACFE3B
:0400F200081C9673DD
:0400F300081A8182E4
:0400F40008186E2B4F
:0400F50008165C6C21
:0400F60008144C425C
:0400F70008123DAB03
:0400F800081030A616
:0400F900080E253098
:0400FA00080C1B488B
:0400FB00080A12EBF2
:0400FC0008080C18CC
:0400FD00080606CC1F
:0400FE0008040306E9
:0400FF00080200C42F
:0401000010000008E3
:040101000FF80602EB
:040102000FF017E003
:040103000FE835824A
:040104000FE05ECCDE
:040105000FD893A2DA
:040106000FD0D3E65D
:040107000FC91F7C81
:040108000FC1764C61
:040109000FB9D8381A
:04010A000FB24524C7
:04010B000FAABCFA81
:04010C000FA33F9C62
:04010D000F9BCCF286
:04010E000F9464E204
:04010F000F8D0752F7
:040110000F85B42C77
:040111000F7E6B569C
:040112000F772CB87F
:040113000F6FF8383A
:040114000F68CDC2E1
:040115000F61AD3E8B
:040116000F5A969452
:040117000F5389AE4B
:040118000F4C86768C
:040119000F458CD42E
:04011A000F3E9CB444
:04011B000F37B600E4
:04011C000F30D8A424
:04011D000F2A048A17
:04011E000F23399CD6
:04011F000F1C77C872
:040120000F15BEF603
:040121000F0F0F1697
:040122000F08681446
:040123000F01C9DA25
:040124000EFB345644
:040125000EF4A774B9
:040126000EEE232492
:040127000EE7A750E8
:040128000EE133E8C9
:040129000EDAC8D84A
:04012A000ED4661079
:04012B000ECE0B7C6D
:04012C000EC7B90C35
:04012D000EC16EB0E1
:04012E000EBB2C5484
:04012F000EB4F1E831
:040130000EAEBF5CF4
:040131000EA894A0E0
:040132000EA271A206
:040133000E9C565276
:040134000E9642A23F
:040135000E90368072
:040136000E8A31DE1E
:040137000E8434AC52
:040138000E7E3EDA1F
:040139000E78505894
:04013A000E72691ABE
:04013B000E6C8910AD
:04013C000E66B02A71
:04013D000E60DE5C16
:04013E000E5B1396AB
:04013F000E554FCA40
:040140000E4F92EAE2
:040141000E49DCEA9D
:040142000E442DBA80
:040143000E3E854C9B
:040144000E38E396F8
:040145000E334888A5
:040146000E2DB416B0
:040147000E28263226
:040148000E229ED015
:040149000E1D1DE486
:04014A000E17A36089
:04014B000E122F3829
:04014C000E0CC16272
:04014D000E0759CE72
:04014E000E01F87234
:04014F000DFC9D42C4
:040150000DF748342B
:040151000DF1F9387B
:040152000DECB048B8
:040153000DE76D54F3
:040154000DE2305236
:040155000DDCF9388C
:040156000DD7C7F802
:040157000DD29C8C9D
:040158000DCD76E66D
:040159000DC856FA7D
:04015A000DC33CC0D5
:04015B000DBE282C81
:04015C000DB919368A
:04015D000DB40FD0FE
:04015E000DAF0BF2E4
:04015F000DAA0D9246
:040160000DA514A62F
:040161000DA02124A8
:040162000D9B3300BE
:040163000D964A3477
:040164000D9166B4DF
:040165000D8C8876FF
:040166000D87AF72E0
:040167000D82DBA08A
:040168000D7E0CF408
:040169000D79436663
:04016A000D747EEEA4
:04016B000D6FBF80D5
:04016C000D6B0516FC
:04016D000D664FA626
:04016E000D619F2858
:04016F000D5CF3949C
:040170000D584CE0FA
:040171000D53AB027D
:040172000D4F0DF62A
:040173000D4A75B00C
:040174000D45E2282B
:040175000D4153588D
:040176000D3CC9383B
:040177000D3843BE3E
:040178000D33C2E29F
:040179000D2F469E62
:04017A000D2ACEE894
:04017B000D265BBC36
:04017C000D21ED0E56
:04017D000D1D82D8FA
:04017E000D191D1426
:04017F000D14BBB8E8
:040180000D105EC040
:040181000D0C062239
:040182000D07B1D8DC
:040183000D0361DA2D
:040184000CFF162036
:040185000CFACEA6FC
:040186000CF68B6484
:040187000CF24C50DA
:040188000CEE116800
:040189000CE9DAA003
:04018A000CE5A7F6E3
:04018B000CE17962A8
:04018C000CDD4EDC5C
:04018D000CD9285E03
:04018E000CD505E2A5
:04018F000CD0E76049
:040190000CCCCCD4F3
:040191000CC8B638A8
:040192000CC4A38274
:040193000CC094B058
:040194000CBC89BA5C
:040195000CB8829888
:040196000CB47F48DE
:040197000CB07FC069
:040198000CAC83FE2A
:040199000CA88BF82B
:04019A000CA497AC6E
:04019B000CA0A712FB
:04019C000C9CBA24D9
:04019D000C98D0DC0E
:04019E000C94EB369C
:04019F000C91092C8A
:0401A0000C8D2AB8E0
:0401A1000C894FD6A0
:0401A2000C85787ED2
:0401A3000C81A4AA7D
:0401A4000C7DD458A2
:0401A5000C7A078247
:0401A6000C763E2075
:0401A7000C7278302E
:0401A8000C6EB5AA7A
:0401A9000C6AF68C5A
:0401AA000C673ACED6
:0401AB000C63826CF3
:0401AC000C5FCD60B7
:0401AD000C5C1BA823
:0401AE000C586D3A42
:0401AF000C54C21812
:0401B0000C511A369E
:0401B1000C4D7594E8
:0401B2000C49D42CF4
:0401B3000C4635F8C9
:0401B4000C429AF46B
:0401B5000C3F031CDC
:0401B6000C3B6E6C24
:0401B7000C37DCDC49
:0401B8000C344E6C49
:0401B9000C30C3142F
:0401BA000C2D3AD2FC
:0401BB000C29B59EB8
:0401BC000C26337862
:0401BD000C22B45804
:0401BE000C1F383C9E
:0401BF000C1BBF1E38
:0401C0000C1848FCD3
:0401C1000C14D5CE77
:0401C2000C11659423
:0401C3000C0DF848DF
:0401C4000C0A8DE4B0
:0401C5000C07266697
:0401C6000C03C1CA9B
:0401C7000C00600CBC
:0401C8000BFD012802
:0401C9000BF9A51871
:0401CA000BF64BDA0B
:0401CB000BF2F56AD4
:0401CC000BEFA1C2D2
:0401CD000BEC50E205
:0401CE000BE902C275
:0401CF000BE5B76223
:0401D0000BE26EBC14
:0401D1000BDF28CC4C
:0401D2000BDBE58ED0
:0401D3000BD8A500A0
:0401D4000BD5671EC2
:0401D5000BD22BE23C
:0401D6000BCEF34C0D
:0401D7000BCBBD563B
:0401D8000BC889FEC9
:0401D9000BC5593EBB
:0401DA000BC22B1613
:0401DB000BBEFF7EDA
:0401DC000BBBD6780B
:0401DD000BB8AFFCB0
:0401DE000BB58C08C9
:0401DF000BB26A985D
:0401E0000BAF4BAC6A
:0401E1000BAC2F3CF8
:0401E2000BA9154808
:0401E3000BA5FDCAA1
:0401E4000BA2E8C2C0
:0401E5000B9FD62A6C
:0401E6000B9CC600A8
:0401E7000B99B84276
:0401E8000B96ACEADC
:0401E9000B93A3F6DB
:0401EA000B909D6475
:0401EB000B8D9930AF
:0401EC000B8A97588B
:0401ED000B8797D60F
:0401EE000B849AAA3A
:0401EF000B819FD011
:0401F0000B7EA74497
:0401F1000B7BB106CD
:0401F2000B78BD0EBB
:0401F3000B75CB5E5F
:0401F4000B72DBF0BF
:0401F5000B6FEEC4DA
:0401F6000B6D03D4B6
:0401F7000B6A1B1E56
:0401F8000B6734A0BD
:0401F9000B645058EB
:0401FA000B616E42E5
:0401FB000B5E8E5AAF
:0401FC000B5BB0A049
:0401FD000B58D50EB8
:0401FE000B55FBA4FE
:0401FF000B5324601A
:00000001ff
