:020000040000FA
:03000000000002FB
:030001001FEB569C
:030002001FD6A85E
:030003001FC1FC1E
:030004001FAD50DD
:030005001F98A79A
:030006001F83FB5A
:030007001F6F5315
:030008001F5AACD0
:030009001F46038C
:03000A001F315F44
:03000B001F1CBAFD
:03000C001F0816B4
:03000D001EF3726D
:03000E001EDED320
:03000F001ECA33D3
:030010001EB59684
:030011001EA0FB33
:030012001E8C63DE
:030013001E77CC89
:030014001E633632
:030015001E4EA3D9
:030016001E3A117E
:030017001E25841F
:030018001E10FABD
:030019001DFC705B
:03001A001DE7EBF4
:03001B001DD36B87
:03001C001DBEED19
:03001D001DAA70A9
:03001E001D95FB32
:03001F001D8186BA
:030020001D6D163D
:030021001D58A7C0
:030022001D443E3C
:030023001D2FDAB4
:030024001D1B7A27
:030025001D071C98
:030026001CF2C306
:030027001CDE6F6D
:030028001CCA20CF
:030029001CB5D72C
:03002A001CA19185
:03002B001C8D52D7
:03002C001C791824
:03002D001C64E16F
:03002E001C50B0B3
:03002F001C3C87EF
:030030001C286128
:030031001C144359
:030032001C002788
:030033001BEC12B1
:030034001BD805D1
:030035001BC3FDED
:030036001BAFF904
:030037001B9BFE12
:030038001B880C16
:030039001B741E17
:03003A001B603216
:03003B001B4C5209
:03003C001B387BF3
:03003D001B24A5DC
:03003E001B10DBB9
:03003F001AFD1790
:030040001AE95961
:030041001AD5A627
:030042001AC1F8E8
:030043001AAE52A0
:030044001A9AB253
:030045001A871CFB
:030046001A738F9B
:030047001A600834
:030048001A4C8DC2
:030049001A39134E
:03004A001A25A8CC
:03004B001A12473F
:03004C0019FEECAE
:03004D0019EB9418
:03004E0019D84B73
:03004F0019C50AC6
:0300500019B1D40F
:03005100199EA84D
:03005200198B8483
:03005300197865B4
:03005400196554D7
:0300550019524FEE
:03005600193F52FD
:03005700192C5C05
:0300580019197201
:03005900190690F5
:03005A0018F3BDDB
:03005B0018E0F1B9
:03005C0018CE3388
:03005D0018BB7B52
:03005E0018A8CF10
:03005F0018962EC2
:0300600018839969
:0300610018710F04
:03006200185E8F96
:03006300184C1D19
:030064001839B296
:0300650018275504
:0300660018150169
:030067001802BCC0
:0300680017F0820C
:0300690017DE544B
:03006A0017CC2E82
:03006B0017BA18A9
:03006C0017A80CC6
:03006D0017960FD4
:03006E0017841CD8
:03006F00177239CC
:0300700017605FB7
:03007100174E9493
:03007200173CD365
:03007300172B2127
:0300740017197BDE
:030075001707DE8C
:0300760016F65328
:0300770016E4D5B7
:0300780016D36636
:0300790016C201AB
:03007A0016B0AC11
:03007B00169F636A
:03007C00168E27B6
:03007D00167CFDF1
:03007E00166BDC22
:03007F00165ACB43
:030080001649C757
:030081001638D658
:030082001627EB53
:030083001617133A
:0300840016064A13
:0300850015F58FDF
:0300860015E4E49A
:0300870015D44746
:0300880015C3B9E4
:0300890015B33874
:03008A0015A2C7F5
:03008B0015926665
:03008C00158212C8
:03008D001571CE1C
:03008E0015619D5C
:03008F0015517A8E
:03009000154166B1
:0300910015315DC9
:03009200152168CD
:03009300151183C1
:030094001501AFA4
:0300950014F1E97A
:0300960014E2333E
:0300970014D28FF1
:0300980014C2FB94
:0300990014B37528
:03009A0014A403A8
:03009B0014949B1F
:03009C0014854A7E
:03009D00147608CE
:03009E001466D60F
:03009F001457B73C
:0300A0001448A859
:0300A1001439A867
:0300A200142ABB62
:0300A300141BDD4E
:0300A400140D1523
:0300A50013FE57F0
:0300A60013EFAFA6
:0300A70013E11949
:0300A80013D293DD
:0300A90013C41F5E
:0300AA0013B5BECD
:0300AB0013A76C2C
:0300AC0013992F76
:0300AD00138B00B2
:0300AE00137CE7D9
:0300AF00136EDFEE
:0300B0001360EBEF
:0300B100135306E0
:0300B200134535BE
:0300B3001337738D
:0300B4001329C944
:0300B500131C30E9
:0300B600130EA581
:0300B70013013101
:0300B80012F3D16F
:0300B90012E681CB
:0300BA0012D94414
:0300BB0012CC1B49
:0300BC0012BF046C
:0300BD0012B2027A
:0300BE0012A50F79
:0300BF0012983460
:0300C000128B6937
:0300C100127EB4F8
:0300C200127210A7
:0300C30012658043
:0300C400125904CA
:0300C500124C9D3D
:0300C6001240479E
:0300C700123406EA
:0300C8001227D923
:0300C900121BC344
:0300CA00120FBD55
:0300CB001203C954
:0300CC0011F7ED3C
:0300CD0011EC250E
:0300CE0011E072CC
:0300CF0011D4CE7B
:0300D00011C94013
:0300D10011BDCA94
:0300D20011B26503
:0300D30011A7175B
:0300D400119BDDA0
:0300D5001190B6D1
:0300D6001185A4ED
:0300D700117AA7F4
:0300D800116FC1E4
:0300D9001164EBC4
:0300DA00115A2F89
:0300DB00114F8240
:0300DC001144EEDE
:0300DD00113A7065
:0300DE00113004DA
:0300DF001125B038
:0300E000111B6F82
:0300E100111146B4
:0300E20011072FD4
:0300E30010FD2DE0
:0300E40010F343D3
:0300E50010E96BB4
:0300E60010DFAC7C
:0300E70010D6012F
:0300E80010CC6ACF
:0300E90010C2EA58
:0300EA0010B981C9
:0300EB0010B02B27
:0300EC0010A6E972
:0300ED00109DC1A2
:0300EE001094AEBD
:0300EF00108BAFC4
:0300F0001082CAB1
:0300F1001079F390
:0300F20010713852
:0300F300106894FE
:0300F40010600198
:0300F5001057861B
:0300F600104F2484
:0300F7001046D8D8
:0300F800103E9C1B
:0300F90010367C42
:0300FA00102E6E57
:0300FB0010267953
:0300FC00101E9C37
:0300FD001016D307
:0300FE00100F21BF
:0300FF0010078463
:00000001ff
