:020000040000FA
:0400000000000004F8
:040001000020000AD1
:040002000040002F8B
:040003000060009405
:040004000080015A1D
:0400050000A0029FB6
:0400060000C00484AE
:0400070000E0072AE4
:0400080001000AB039
:0400090001200F368D
:04000A00014014DDC0
:04000B0001601BC5B0
:04000C000180240D3E
:04000D0001A02DD74A
:04000E0001C03943B1
:04000F0001E0467056
:040010000200558015
:0400110002206693D0
:04001200024079CA65
:0400130002608F44B4
:040014000280A7249B
:0400150002A0C18AFA
:0400160002C0DE97AF
:0400170002E0FE6C99
:040018000301212996
:04001900032146F188
:04001A0003416FE54A
:04001B0003619C25BC
:04001C000381CBD4BD
:04001D0003A1FF1428
:04001E0003C23605DE
:04001F0003E270CBBD
:040020000402AF87A0
:040021000422F25C67
:040022000443396BEF
:04002300046384D816
:040024000483D4C5B8
:0400250004A42955B1
:0400260004C482ABE1
:0400270004E4E0EB22
:04002800050544374F
:040029000525ACB449
:04002A0005461A84E9
:04002B0005668DCD0C
:04002C00058706B38B
:04002D0005A7855945
:04002E0005C809E414
:04002F0005E8947AD2
:040030000609253F59
:040031000629BC5987
:04003200064A59EE33
:04003300066AFE2239
:04003400068BA91D71
:0400350006AC5B04B6
:0400360006CD13FFE1
:0400370006EDD433CB
:04003800070E9BC94B
:04003900072F6AE83B
:04003A00075041B773
:04003B000771205FCA
:04003C000792070818
:04003D0007B2F5DB36
:04003E0007D3ED01F6
:04003F0007F4ECA333
:040040000815F4EBC0
:040041000837060472
:040042000858201723
:040043000879434FA6
:04004400089A6FD9CE
:0400450008BBA5DF70
:0400460008DCE58D60
:0400470008FE2F116F
:04004800091F829674
:040049000940E04B3F
:04004A000962485CA3
:04004B000983BAF972
:04004C0009A5384F7B
:04004D0009C6C08F91
:04004E0009E853E783
:04004F000A09F28820
:040050000A2B9CA239
:040051000A4D52679B
:040052000A6F140914
:040053000A90E1B975
:040054000AB2BBAB86
:040055000AD4A21116
:040056000AF69521F0
:040057000B18950EDF
:040058000B3AA20EAF
:040059000B5CBC562A
:04005A000B7EE41E17
:04005B000BA1199C40
:04005C000BC35D086D
:04005D000BE5AE9B66
:04005E000C080E8DEF
:04005F000C2A7D1AD0
:040060000C4CFA7BCF
:040061000C6F86EDAD
:040062000C9222AA30
:040063000CB4CDF21A
:040064000CD789012B
:040065000CFA541627
:040066000D1D2F70CD
:040067000D401B52DB
:040068000D6317FA13
:040069000D8625AD2E
:04006A000DA944AEEA
:04006B000DCC753F04
:04006C000DEFB7A835
:04006D000E130C2E34
:04006E000E367319BE
:04006F000E59ECB08A
:040070000E7D793F49
:040071000EA1190EB5
:040072000EC4CC6B81
:040073000EE893A15F
:040074000F0C6F00FE
:040075000F305ED713
:040076000F54637749
:040077000F787D324F
:040078000F9CAC5CD1
:040079000FC0F1497A
:04007A000FE54C50F2
:04007B001009BDC8E3
:04007C00102E460CF0
:04007D001052E576C2
:04007E0010779C62F9
:04007F00109C6B2F37
:0400800010C1523D1C
:040081000000000477
:040082000000000476
:040083000000000475
:040084000000000474
:040085000000000473
:040086000000000472
:040087000000000471
:040088000000000470
:04008900000000046F
:04008A00000000046E
:04008B00000000046D
:04008C00000000046C
:04008D00000000046B
:04008E00000000046A
:04008F000000000469
:040090000000000468
:040091000000000467
:040092000000000466
:040093000000000465
:040094000000000464
:040095000000000463
:040096000000000462
:040097000000000461
:040098000000000460
:04009900000000045F
:04009A00000000045E
:04009B00000000045D
:04009C00000000045C
:04009D00000000045B
:04009E00000000045A
:04009F000000000459
:0400A0000000000458
:0400A1000000000457
:0400A2000000000456
:0400A3000000000455
:0400A4000000000454
:0400A5000000000453
:0400A6000000000452
:0400A7000000000451
:0400A8000000000450
:0400A900000000044F
:0400AA00000000044E
:0400AB00000000044D
:0400AC00000000044C
:0400AD00000000044B
:0400AE00000000044A
:0400AF000000000449
:0400B0000000000448
:0400B1000000000447
:0400B2000000000446
:0400B3000000000445
:0400B4000000000444
:0400B5000000000443
:0400B6000000000442
:0400B7000000000441
:0400B8000000000440
:0400B900000000043F
:0400BA00000000043E
:0400BB00000000043D
:0400BC00000000043C
:0400BD00000000043B
:0400BE00000000043A
:0400BF000000000439
:0400C0000000000438
:0400C1000000000437
:0400C2000000000436
:0400C3000000000435
:0400C4000000000434
:0400C5000000000433
:0400C6000000000432
:0400C7000000000431
:0400C8000000000430
:0400C900000000042F
:0400CA00000000042E
:0400CB00000000042D
:0400CC00000000042C
:0400CD00000000042B
:0400CE00000000042A
:0400CF000000000429
:0400D0000000000428
:0400D1000000000427
:0400D2000000000426
:0400D3000000000425
:0400D4000000000424
:0400D5000000000423
:0400D6000000000422
:0400D7000000000421
:0400D8000000000420
:0400D900000000041F
:0400DA00000000041E
:0400DB00000000041D
:0400DC00000000041C
:0400DD00000000041B
:0400DE00000000041A
:0400DF000000000419
:0400E0000000000418
:0400E1000000000417
:0400E2000000000416
:0400E3000000000415
:0400E4000000000414
:0400E5000000000413
:0400E6000000000412
:0400E7000000000411
:0400E8000000000410
:0400E900000000040F
:0400EA00000000040E
:0400EB00000000040D
:0400EC00000000040C
:0400ED00000000040B
:0400EE00000000040A
:0400EF000000000409
:0400F0000000000408
:0400F1000000000407
:0400F2000000000406
:0400F3000000000405
:0400F4000000000404
:0400F5000000000403
:0400F6000000000402
:0400F7000000000401
:0400F8000000000400
:0400F90000000004FF
:0400FA0000000004FE
:0400FB0000000004FD
:0400FC0000000004FC
:0400FD0000000004FB
:0400FE0000000004FA
:0400FF0000000004F9
:00000001ff
