:020000040000FA
:02000000155495
:02000100155593
:02000200155790
:0200030015588E
:0200040015598C
:0200050015598B
:02000600155A89
:02000700155E84
:02000800156180
:0200090015637D
:02000A00156679
:02000B00156B73
:02000C00156E6F
:02000D0015716B
:02000E00157764
:02000F00157A60
:02001000157E5B
:02001100158355
:02001200158651
:02001300158F47
:02001400159441
:02001500159A3A
:02001600159F34
:0200170015A72B
:0200180015AF22
:0200190015B51B
:02001A0015BB14
:02001B0015C20C
:02001C0015CEFF
:02001D0015D4F8
:02001E0015DEED
:02001F0015E6E4
:0200200015F1D8
:0200210015F8D0
:020022001603C3
:02002300160BBA
:020024001614B0
:020025001622A1
:02002600162A98
:0200270016358C
:02002800164080
:02002900164A75
:02002A00165965
:02002B00166459
:02002C00166F4D
:02002D00167A41
:02002E00168634
:02002F00169227
:0200300016A216
:0200310016AC0B
:0200320016BAFC
:0200330016C9EC
:0200340016D4E0
:0200350016E5CE
:0200360016F0C2
:020037001700B0
:02003800170CA3
:02003900171A94
:02003A00172984
:02003B00173874
:02003C00174665
:02003D00175951
:02003E00176643
:02003F00177632
:02004000178522
:02004100179412
:0200420017A302
:0200430017B3F1
:0200440017C3E0
:0200450017D2D0
:0200460017E6BB
:0200470017F5AB
:0200480018039B
:02004900181687
:02004A00182676
:02004B00183863
:02004C00184852
:02004D00185841
:02004E00186830
:02004F00187D1A
:02005000188D09
:02005100189DF8
:0200520018ADE7
:0200530018BDD6
:0200540018D0C2
:0200550018E3AE
:0200560018F39D
:02005700190589
:02005800191677
:02005900192963
:02005A00193B50
:02005B00194D3D
:02005C00195C2D
:02005D00197117
:02005E00198106
:02005F001991F5
:0200600019A5E0
:0200610019B9CB
:0200620019C9BA
:0200630019DDA5
:0200640019ED94
:0200650019FE82
:020066001A0F6F
:020067001A235A
:020068001A3448
:020069001A4536
:02006A001A5921
:02006B001A6811
:02006C001A7BFD
:02006D001A8FE8
:02006E001A9FD7
:02006F001AB1C4
:020070001AC2B2
:020071001AD79C
:020072001AE68C
:020073001AF879
:020074001B0966
:020075001B1B53
:020076001B2D40
:020077001B3E2E
:020078001B501B
:020079001B5F0B
:02007A001B73F6
:02007B001B82E6
:02007C001B96D1
:02007D001BA5C1
:02007E001BB7AE
:02007F001BC79D
:020080001BD98A
:020081001BEB77
:020082001BF869
:020083001C0C53
:020084001C1C42
:020085001C2C31
:020086001C3B21
:020087001C4E0D
:020088001C5DFD
:020089001C6DEC
:02008A001C7EDA
:02008B001C8CCB
:02008C001CA0B6
:02008D001CAEA7
:02008E001CBE96
:02008F001CCE85
:020090001CDC76
:020091001CED64
:020092001CFC54
:020093001D0A44
:020094001D1B32
:020095001D2C20
:020096001D3A11
:020097001D4703
:020098001D57F2
:020099001D64E4
:02009A001D73D4
:02009B001D84C2
:02009C001D90B5
:02009D001DA1A3
:02009E001DAC97
:02009F001DBD85
:0200A0001DC879
:0200A1001DD56B
:0200A2001DE659
:0200A3001DF24C
:0200A4001E003C
:0200A5001E0E2D
:0200A6001E1A20
:0200A7001E2B0E
:0200A8001E3602
:0200A9001E43F4
:0200AA001E50E6
:0200AB001E5DD8
:0200AC001E6CC8
:0200AD001E76BD
:0200AE001E83AF
:0200AF001E8DA4
:0200B0001E9B95
:0200B1001EA788
:0200B2001EB37B
:0200B3001EC16C
:0200B4001ECB61
:0200B5001ED754
:0200B6001EE248
:0200B7001EED3C
:0200B8001EF92F
:0200B9001F0422
:0200BA001F1015
:0200BB001F1C08
:0200BC001F27FC
:0200BD001F31F1
:0200BE001F3CE5
:0200BF001F47D9
:0200C0001F51CE
:0200C1001F5BC3
:0200C2001F65B8
:0200C3001F70AC
:0200C4001F7BA0
:0200C5001F8496
:0200C6001F8D8C
:0200C7001F9682
:0200C8001F9F78
:0200C9001FAA6C
:0200CA001FB362
:0200CB001FBE56
:0200CC001FC64D
:0200CD001FD042
:0200CE001FD73A
:0200CF001FE22E
:0200D0001FE926
:0200D1001FF41A
:0200D2001FFA13
:0200D300000625
:0200D400000C1E
:0200D500001712
:0200D600001E0A
:0200D700002502
:0200D800002CFA
:0200D9000034F1
:0200DA00003BE9
:0200DB000045DE
:0200DC00004CD6
:0200DD000054CD
:0200DE00005DC3
:0200DF000062BD
:0200E0000067B7
:0200E1000071AC
:0200E200007BA1
:0200E30000819A
:0200E400008892
:0200E500008D8C
:0200E600009385
:0200E700009A7D
:0200E80000A175
:0200E90000A86D
:0200EA0000AD67
:0200EB0000B261
:0200EC0000B959
:0200ED0000BF52
:0200EE0000C54B
:0200EF0000CB44
:0200F00000D03E
:0200F10000D736
:0200F20000DD2F
:0200F30000E328
:0200F40000E723
:0200F50000F019
:0200F60000F513
:0200F70000F80F
:0200F80000FF07
:0200F900010202
:0200FA000107FC
:0200FB00010EF4
:0200FC000112EF
:0200FD000114EC
:0200FE00011CE3
:0200FF00011FDF
:00000001ff
