:020000040000FA
:03000000020000FB
:03000100020000FA
:03000200020001F8
:03000300020003F5
:03000400020005F2
:03000500020008EE
:0300060002000CE9
:03000700020010E4
:03000800020015DE
:0300090002001BD7
:03000A00020021D0
:03000B00020028C8
:03000C00020030BF
:03000D00020038B6
:03000E00020041AC
:03000F0002004BA1
:0300100002005596
:030011000200608A
:0300120002006C7D
:0300130002007870
:0300140002008562
:0300150002009353
:030016000200A144
:030017000200B034
:030018000200C023
:030019000200D111
:03001A000200E2FF
:03001B000200F4EC
:03001C00020106D8
:03001D00020119C4
:03001E0002012DAF
:03001F0002014299
:0300200002015783
:0300210002016D6C
:0300220002018454
:0300230002019B3C
:030024000201B323
:030025000201CC09
:030026000201E6EE
:03002700020200D2
:0300280002021BB6
:030029000202369A
:03002A000202537C
:03002B000202705E
:03002C0002028E3F
:03002D000202AC20
:03002E000202CB00
:03002F000202EBDF
:0300300002030CBC
:0300310002032D9A
:0300320002034F77
:0300330002037253
:030034000203962E
:030035000203BA09
:030036000203DFE3
:03003700020405BB
:0300380002042C93
:030039000204536B
:03003A0002047C41
:03003B000204A418
:03003C000204CEED
:03003D000204F9C1
:03003E0002052494
:03003F0002055067
:0300400002057D39
:030041000205AA0B
:030042000205D9DB
:03004300020608AA
:0300440002063879
:0300450002066947
:0300460002069A15
:030047000206CDE1
:03004800020700AC
:0300490002073477
:03004A0002076941
:03004B0002079F0A
:03004C000207D5D3
:03004D0002080D99
:03004E0002084560
:03004F0002087E26
:030050000208B8EB
:030051000208F3AF
:0300520002092F71
:0300530002096C33
:030054000209A9F5
:030055000209E8B5
:03005600020A2774
:03005700020A6733
:03005800020AA9F0
:03005900020AEBAD
:03005A00020B2E68
:03005B00020B7223
:03005C00020BB7DD
:03005D00020BFD96
:03005E00020C434E
:03005F00020C8B05
:03006000020CD4BB
:03006100020D1E6F
:03006200020D6824
:03006300020DB4D7
:03006400020E0188
:03006500020E4F39
:03006600020E9EE9
:03006700020EED99
:03006800020F3E46
:03006900020F90F3
:03006A00020FE39F
:03006B0002103749
:03006C0002108CF3
:03006D000210E39B
:03006E0002113A42
:03006F00021193E8
:030070000211EC8E
:0300710002124731
:030072000212A3D4
:0300730002130075
:0300740002135E16
:030075000213BEB5
:0300760002141E53
:03007700021480F0
:030078000214E38C
:0300790002154825
:03007A000215ADBF
:03007B0002161456
:03007C0002167CED
:03007D000216E682
:03007E0002175016
:03007F000217BCA9
:0300800002182A39
:030081000000007C
:030082000000007B
:030083000000007A
:0300840000000079
:0300850000000078
:0300860000000077
:0300870000000076
:0300880000000075
:0300890000000074
:03008A0000000073
:03008B0000000072
:03008C0000000071
:03008D0000000070
:03008E000000006F
:03008F000000006E
:030090000000006D
:030091000000006C
:030092000000006B
:030093000000006A
:0300940000000069
:0300950000000068
:0300960000000067
:0300970000000066
:0300980000000065
:0300990000000064
:03009A0000000063
:03009B0000000062
:03009C0000000061
:03009D0000000060
:03009E000000005F
:03009F000000005E
:0300A0000000005D
:0300A1000000005C
:0300A2000000005B
:0300A3000000005A
:0300A40000000059
:0300A50000000058
:0300A60000000057
:0300A70000000056
:0300A80000000055
:0300A90000000054
:0300AA0000000053
:0300AB0000000052
:0300AC0000000051
:0300AD0000000050
:0300AE000000004F
:0300AF000000004E
:0300B0000000004D
:0300B1000000004C
:0300B2000000004B
:0300B3000000004A
:0300B40000000049
:0300B50000000048
:0300B60000000047
:0300B70000000046
:0300B80000000045
:0300B90000000044
:0300BA0000000043
:0300BB0000000042
:0300BC0000000041
:0300BD0000000040
:0300BE000000003F
:0300BF000000003E
:0300C0000000003D
:0300C1000000003C
:0300C2000000003B
:0300C3000000003A
:0300C40000000039
:0300C50000000038
:0300C60000000037
:0300C70000000036
:0300C80000000035
:0300C90000000034
:0300CA0000000033
:0300CB0000000032
:0300CC0000000031
:0300CD0000000030
:0300CE000000002F
:0300CF000000002E
:0300D0000000002D
:0300D1000000002C
:0300D2000000002B
:0300D3000000002A
:0300D40000000029
:0300D50000000028
:0300D60000000027
:0300D70000000026
:0300D80000000025
:0300D90000000024
:0300DA0000000023
:0300DB0000000022
:0300DC0000000021
:0300DD0000000020
:0300DE000000001F
:0300DF000000001E
:0300E0000000001D
:0300E1000000001C
:0300E2000000001B
:0300E3000000001A
:0300E40000000019
:0300E50000000018
:0300E60000000017
:0300E70000000016
:0300E80000000015
:0300E90000000014
:0300EA0000000013
:0300EB0000000012
:0300EC0000000011
:0300ED0000000010
:0300EE000000000F
:0300EF000000000E
:0300F0000000000D
:0300F1000000000C
:0300F2000000000B
:0300F3000000000A
:0300F40000000009
:0300F50000000008
:0300F60000000007
:0300F70000000006
:0300F80000000005
:0300F90000000004
:0300FA0000000003
:0300FB0000000002
:0300FC0000000001
:0300FD0000000000
:0300FE00000000FF
:0300FF00000000FE
:00000001ff
