:020000040000FA
:03000000000004F9
:0300010003FF04F6
:030002000FE013F9
:03000300030DB931
:030004000C0400E9
:0300050007DA33E4
:0300060001CD50D9
:0300070002CB2009
:0300080000FE07F0
:030009000F597A12
:03000A000D27229D
:03000B000594ABAE
:03000C000F423D63
:03000D000BD19A7A
:03000E000775E78C
:03000F000884144E
:030010000F03F4E7
:030011000441EBBC
:030012000A614E32
:030013000BEF539D
:030014000B76B2B6
:030015000313DBF7
:030016000409CE0C
:0300170006578CFD
:03001800084E2F60
:030019000E278C23
:03001A00019D84C1
:03001B000181D789
:03001C000156A5E5
:03001D0008E7767B
:03001E0003E2DE1C
:03001F000174BBAE
:0300200003E0FCFE
:03002100001F04B9
:030022000D759CBD
:0300230005177648
:0300240001C041D7
:030025000F524B2C
:030026000A74AFAA
:0300270000321B89
:030028000D98131D
:030029000F56CAA5
:03002A00016184ED
:03002B000E8F7DB8
:03002C00003D6133
:03002D000DEF4094
:03002E000CF318B8
:03002F000003D7F4
:0300300006ECE9F2
:030031000E2E4D43
:030032000EA125F7
:030033000D1CD4CD
:030034000A1C9013
:03003500016583DF
:0300360009AD5FB2
:0300370004417F02
:030038000CAE7992
:030039000868371D
:03003A00067287C4
:03003B000F0A2E7B
:03003C00034E6C04
:03003D000CEB04C5
:03003E000DC2BA36
:03003F000F9A46CF
:0300400003C3C730
:0300410002CAA749
:030042000C1FF59B
:0300430005C73BB3
:030044000C03C4E6
:030045000106575A
:030046000C9B65AB
:030047000BD9AC26
:0300480000D14D97
:03004900023B4A2D
:03004A000B2984FB
:03004B000AB71BD6
:03004C0003B944B1
:03004D000C708DA7
:03004E000E3A8ED9
:03004F0005440560
:03005000003B6012
:030051000003B9F0
:0300520007682C10
:030053000ACFAF22
:030054000FF13A6F
:030055000D8871A2
:030056000B0AA0F2
:03005700005C2F1B
:03005800058676A4
:03005900026DF540
:03005A000E88FA13
:03005B000096A16B
:03005C000E5644F9
:03005D000C3F4510
:03005E000D394217
:03005F000254A99F
:030060000A83AC64
:03006100025399AE
:0300620003A6935F
:03006300056DAA7E
:030064000B6351DA
:0300650005C63796
:0300660001147A08
:0300670005C73A90
:03006800080E8AF5
:03006900078DBC44
:03006A000F180765
:03006B00046D9190
:03006C0007F8C7CB
:03006D00048C1AE6
:03006E000F20124E
:03006F000691B83F
:0300700003615ECB
:030071000771B85C
:030072000DC75364
:030073000A4863D5
:03007400097CDF25
:03007500004EFE3C
:030076000BCC02AE
:0300770000E55D44
:030078000C322423
:0300790001B0DEF5
:03007A000C899F4F
:03007B000ED07A2A
:03007C00014844F4
:03007D000325ABAD
:03007E0009D29A0A
:03007F0000B1F2DB
:0300800008E39200
:030081000908ACBF
:030082000D0872F4
:0300830005D5049C
:030084000930BC84
:030085000173BC48
:030086000D51D049
:030087000FA0982F
:030088000F1E0741
:0300890006372413
:03008A0002CF1B87
:03008B0006069EC8
:03008C00040389E1
:03008D0003B8D1E4
:03008E000EAEC8EB
:03008F0000CB960D
:03009000081C1237
:03009100049CD0FC
:03009200080384DC
:030093000588A637
:0300940001B16156
:030095000219C489
:030096000D3F40DB
:030097000A4B66AB
:0300980000DEED9A
:0300990008DCFF81
:03009A000A36C75C
:03009B000CB74659
:03009C0007CF6B20
:03009D0002626D8F
:03009E0002926D5E
:03009F000D8D5371
:0300A0000759F607
:0300A10002A57F36
:0300A200009111B9
:0300A300007FB12A
:0300A4000FE46FF7
:0300A5000A10CF6F
:0300A600080375D7
:0300A70000370A15
:0300A80006716975
:0300A9000B9301B5
:0300AA000D668060
:0300AB000670B329
:0300AC000DC0A8DC
:0300AD0006C01179
:0300AE000103DC6F
:0300AF00081D0D1C
:0300B0000369D40D
:0300B10005E6DD84
:0300B2000E00DE5F
:0300B30005665F80
:0300B40000D9BEB2
:0300B50000036ADB
:0300B6000D445E98
:0300B7000D88D1E0
:0300B800001B2406
:0300B9000E7704BB
:0300BA000C1CCA51
:0300BB00066510C7
:0300BC0004548168
:0300BD00066FDFEC
:0300BE0006904168
:0300BF0007B789F7
:0300C00005E51142
:0300C10005EA8FBE
:0300C20005412CC9
:0300C30009DED57E
:0300C400020BC468
:0300C500043834C8
:0300C6000ED258FF
:0300C700081C7C96
:0300C8000E035DC7
:0300C90005F4BB80
:0300CA000CB61958
:0300CB00063BB041
:0300CC000D7F990C
:0300CD0004592BA8
:0300CE0003548454
:0300CF00098A4F4C
:0300D0000C77B4F6
:0300D10007D67ED1
:0300D2000D756F3A
:0300D3000510CE47
:0300D4000C2B19D9
:0300D50005E5F04E
:0300D6000ADB350D
:0300D70008F64EDA
:0300D800034DA431
:0300D90001FC4DDA
:0300DA0001FBE542
:0300DB0004FE938D
:0300DC0001494790
:0300DD00018E1A77
:0300DE0004C6E66F
:0300DF000E1007F9
:0300E00004834C4A
:0300E100031314F2
:0300E20008659915
:0300E30006B069FB
:0300E40003940E74
:0300E50007F7D842
:0300E6000FE5E241
:0300E7000A673B6A
:0300E80009603874
:0300E900016CF9AE
:0300EA0009BE1537
:0300EB000BF571A1
:0300EC00040344C6
:0300ED00000343CA
:0300EE000019FBFB
:0300EF0006524F67
:0300F000067B2864
:0300F100060547BA
:0300F2000BE147D8
:0300F300005DC4E9
:0300F4000D05AB4C
:0300F5000C7EB4CA
:0300F6000A68078E
:0300F700033904C6
:0300F800042037AA
:0300F9000AE274A4
:0300FA0005BA162E
:0300FB0003366D5C
:0300FC00021B4D97
:0300FD000140C4FB
:0300FE000F72FF7F
:0300FF000B524859
:030100000333378F
:0301010004FF04F4
:030102000E13FCDD
:030103000B2620A8
:03010400081FEAE7
:03010500000334C0
:030106000CCA44DC
:03010700074904A1
:03010800070E538C
:0301090002458725
:03010A000D980746
:03010B000C0F16C0
:03010C000EF5B637
:03010D0005BAB878
:03010E000DD2E926
:03010F00029B65EB
:030110000D3C1192
:03011100048A2E2F
:030112000CEB1CD7
:0301130008373278
:03011400059CC483
:0301150001834320
:03011600056E84EF
:0301170007E227D5
:030118000C451F74
:0301190002C55CC0
:03011A00083B9B04
:03011B00060F4B81
:03011C00021AA222
:03011D000E8EC87B
:03011E0009D826D7
:03011F000E82D974
:03012000031F3C7E
:030121000A269F0C
:0301220001E010E9
:030123000445523E
:0301240006E7E506
:030125000AD639BE
:030126000C80FD4D
:0301270003A086AC
:03012800031A6453
:0301290008E704E0
:03012A000DF77F4F
:03012B00061B7E32
:03012C000FE74496
:03012D000499CF63
:03012E0008031BA8
:03012F00086A81DA
:030130000E753811
:030131000D0CECC6
:030132000146770C
:030133000248B8C7
:030134000133860E
:030135000906BDFB
:030136000E896BC4
:0301370000311B79
:030138000609367F
:03013900019A899F
:03013A000DD2DC07
:03013B000EECB512
:03013C0002572245
:03013D000E9DB361
:03013E00035084E7
:03013F0008EC6267
:0301400000C310E9
:0301410004E3A82C
:0301420008030FA0
:0301430005648EC2
:0301440000C27C7A
:0301450006370C6E
:030146000A252F58
:0301470009218EFD
:0301480007DBA929
:03014900030704A5
:03014A000F4475EA
:03014B00090B8A13
:03014C0004940711
:03014D000DBF7F64
:03014E000803089B
:03014F000E51044A
:030150000303079F
:030151000FC3D306
:03015200057970BC
:030153000C2F5915
:030154000300C4E1
:03015500000304A0
:03015600002FFE79
:030157000750BB93
:030158000FE8109D
:030159000B1D601B
:03015A0000A7718A
:03015B000EB7617B
:03015C0009E3A70D
:03015D000D133847
:03015E000968BA73
:03015F00062DD199
:0301600000BE8757
:030161000C74C556
:030162000293E520
:0301630002345E05
:03016400002F81E8
:03016500070B5332
:0301660006E67436
:0301670005642804
:030168000D986E81
:030169000FF43060
:03016A00023184DB
:03016B000F401032
:03016C00073172E6
:03016D000F25CC8F
:03016E0001385FF6
:03016F000C6C3BDA
:03017000049907E8
:030171000257DC56
:0301720002F0395F
:0301730008450438
:0301740008C1AA15
:030175000F474DE4
:030176000B1A055C
:030177000FCE3E6A
:0301780005362425
:03017900074F230A
:03017A00062F7ECF
:03017B0005F3F990
:03017C000EAD992C
:03017D000C4F75AF
:03017E000E9C9A3A
:03017F0009160856
:0301800002E8BED4
:0301810006DBDCBE
:03018200033ED663
:0301830009D7BDDC
:030184000FD19AFE
:030185000DAADDE3
:030186000F23DD67
:03018700032D6DD8
:030188000BD7850D
:030189000E3FF82E
:03018A00028147A8
:03018B0003A17B52
:03018C000F8119C7
:03018D0006CA2679
:03018E000CDF4043
:03018F0007CAC4D8
:03019000002E0A34
:030191000130B387
:0301920008700AE8
:0301930005EE6F07
:030194000C02E278
:030195000F48927E
:03019600068E844E
:030197000AC74E46
:0301980006F8DD89
:03019900082C52DD
:03019A000D5DEB0D
:03019B00076D04E9
:03019C00090C2328
:03019D0006B11890
:03019E0006852EA5
:03019F00005568A0
:0301A0000D82DCF1
:0301A10008F30C54
:0301A2000F005FEC
:0301A3000D6AA33F
:0301A4000347A36B
:0301A50000F3CB99
:0301A6000802D973
:0301A7000B30AB6F
:0301A8000E520CE8
:0301A9000645A068
:0301AA0008E4D492
:0301AB000CF4E66B
:0301AC000A17FE31
:0301AD0008BE4C3D
:0301AE00021742F3
:0301AF000002D576
:0301B0000D02D469
:0301B100042C4BD0
:0301B2000118F33E
:0301B3000FD8B6AC
:0301B4000CE34217
:0301B5000509A792
:0301B600056807D2
:0301B7000B57558E
:0301B800045F24BD
:0301B9000E27828C
:0301BA00066AE3EF
:0301BB000AE81C33
:0301BC0009546B78
:0301BD000F4D9152
:0301BE000A4BF2F7
:0301BF000794D0D2
:0301C000042C8A82
:0301C1000CC8EC7B
:0301C2000DC393D7
:0301C300030C57D3
:0301C400081BC451
:0301C50007E5AC9F
:0301C6000CCBB5AA
:0301C7000090079E
:0301C8000C47F9E8
:0301C900084ED607
:0301CA000C38AD41
:0301CB000EC52737
:0301CC0005D279E0
:0301CD0006505980
:0301CE00043302F5
:0301CF000266477E
:0301D00002C0B4B6
:0301D10005F6BB75
:0301D2000B8DEFA3
:0301D30001D0490F
:0301D40005BF80E4
:0301D50003086BB1
:0301D60003F66BC2
:0301D7000166EED0
:0301D80002BCEF77
:0301D9000DD494AE
:0301DA0006F6CA5C
:0301DB0000CCF461
:0301DC000C54AB15
:0301DD0008D380C4
:0301DE0003CAD77A
:0301DF0008EBBF6B
:0301E000020AE927
:0301E10007149967
:0301E2000E00B25A
:0301E3000AC6C584
:0301E4000F522E89
:0301E5000B764353
:0301E6000CE284A4
:0301E7000F16E30D
:0301E8000B580FA2
:0301E90008A3CD9B
:0301EA000BA56200
:0301EB0006AA025F
:0301EC0009954B27
:0301ED0001D5D465
:0301EE000A59BCEF
:0301EF000B834D32
:0301F0000B1DA83C
:0301F1000C517A34
:0301F2000F99C0A2
:0301F30002B894BB
:0301F40000AC0755
:0301F50001A3045F
:0301F6000AF242C8
:0301F7000F093CB1
:0301F8000D673858
:0301F9000290571A
:0301FA000802B147
:0301FB00042B7E54
:0301FC000A5C4159
:0301FD000AC00F26
:0301FE000250CAE2
:0301FF000ACC7BAC
:030200000AAAAF98
:030201000511D60E
:0302020009CCC064
:0302030005400FA4
:03020400005FC4D4
:0302050000A4D082
:030206000802AC3F
:0302070004DD0211
:0302080001FD5D98
:030209000688E183
:03020A0005F615E1
:03020B000002AA44
:03020C0000A95CEA
:03020D000017D007
:03020E0002A484C3
:03020F0008C4C35D
:030210000F02A832
:030211000DF328C2
:030212000A2C2A89
:03021300043AA00A
:030214000898B295
:030215000FA3F143
:030216000D9392B3
:03021700026EB1C3
:030218000A02A433
:030219000BD950AE
:03021A000B2F8B1C
:03021B0006EB8B64
:03021C00099354EF
:03021D0009433F53
:03021E0007A478BA
:03021F0001E39761
:0302200000A73301
:0302210008068B41
:0302220007802E24
:0302230009F0B32C
:03022400058976D3
:030225000BC761A3
:030226000969BCA7
:0302270006690461
:0302280005EDD30E
:030229000647C4C1
:03022A0000E4707D
:03022B000A46611F
:03022C0001FC20B2
:03022D00029740F5
:03022E0001A374B5
:03022F000F9DB16F
:0302300007EB5485
:0302310000D156A3
:030232000B6B84CF
:0302330003A3BF63
:0302340000294955
:0302350002681745
:0302360006802D12
:03023700033D0084
:030238000A0CE1CC
:0302390006F8764E
:03023A00009A32F5
:03023B000815D8CB
:03023C0009100E98
:03023D0009A5ED23
:03023E000A649FB0
:03023F0006410471
:03024000028F60CA
:030241000EFB0FA2
:03024200057E42F4
:030243000A59C491
:030244000C0CC9D6
:03024500034CBCAB
:0302460002FD2591
:03024700082786FF
:0302480009F34770
:03024900099DB05C
:03024A000271DD61
:03024B0009C0C522
:03024C000ED94484
:03024D000B002D76
:03024E00016862E2
:03024F000F2AF97A
:030250000B3F62FF
:030251000673969B
:030252000B6454E6
:030253000E7558CD
:030254000DC9A829
:03025500013BDF8B
:030256000A5682C3
:03025700044C5CF8
:0302580003F0E2CE
:0302590007B09E4D
:03025A0007899F72
:03025B000503F3A5
:03025C000B2A2842
:03025D000E81D33C
:03025E000D041973
:03025F000E164E2A
:0302600002828691
:03026100047043E3
:03026200075D1421
:0302630008154F2C
:030264000CACC51A
:0302650004777E9D
:0302660008028407
:03026700090CABD4
:03026800027F64AE
:0302690008679A89
:03026A0007EE8E0E
:03026B000752C176
:03026C0005E0DFCB
:03026D000BECB8DF
:03026E000ACA3485
:03026F000CC65961
:0302700005205412
:0302710000028008
:03027200027B8488
:030273000A77699E
:030274000EB8BB06
:030275000ED1B6F1
:03027600031D6CF9
:030277000CB904BB
:03027800057CEC16
:030279000FF6215C
:03027A00075F70AB
:03027B000F9ACA0D
:03027C00052A94BC
:03027D000D2B0442
:03027E00054B7EAF
:03027F0003C7FBB7
:0302800007627A98
:03028100075C6CAB
:03028200037030D6
:0302830003CA9318
:030284000904501A
:030285000C1BA0AF
:030286000E6DC634
:0302870009B0A813
:030288000FEC6B0D
:030289000B7513DF
:03028A000EE42F50
:03028B00051282D7
:03028C000111BCA1
:03028D000E262E0C
:03028E000FC08D11
:03028F000177B53F
:03029000070274EE
:030291000C315CD1
:0302920004E894E9
:030293000D19B989
:0302940008BDBCE6
:0302950003CECACB
:03029600024238E9
:03029700000272F0
:0302980000E8F784
:0302990000B85357
:03029A0003162226
:03029B00038516C2
:03029C00055F08F3
:03029D0003CF0686
:03029E0001CB6D24
:03029F000A10063C
:0302A0000F182B09
:0302A1000B18E84F
:0302A2000FFB311E
:0302A30007560DEE
:0302A4000268D31A
:0302A5000A1563D4
:0302A6000EDA6A03
:0302A70008CDA8D7
:0302A80007964076
:0302A900026704E5
:0302AA0007F8D082
:0302AB000E84E4DA
:0302AC0003BF4449
:0302AD000CD12150
:0302AE00065341B3
:0302AF0004486F91
:0302B0000217F141
:0302B100028803BD
:0302B2000FB8532F
:0302B3000B1C879A
:0302B4000D76C400
:0302B50006D23E30
:0302B6000E7DC8F2
:0302B70003066BD0
:0302B8000A320601
:0302B90000F9EB5E
:0302BA000B85842D
:0302BB0005250313
:0302BC00004C0BE8
:0302BD00068C6844
:0302BE000890C7DE
:0302BF000E1770A7
:0302C00005ED0D3C
:0302C10005E770DE
:0302C2000AE059F6
:0302C30008B04D33
:0302C4000A29679D
:0302C50001122FF4
:0302C60006207F90
:0302C70008F45CDC
:0302C8000012E43D
:0302C90008E13712
:0302CA00079F6427
:0302CB0007636264
:0302CC000A14060B
:0302CD00086401C1
:0302CE0001CCE080
:0302CF000C8A1482
:0302D0000593FB98
:0302D100009AF0A0
:0302D20008025DC2
:0302D3000CDBD26F
:0302D40006E2241B
:0302D50004748727
:0302D6000A91B7D3
:0302D70004D3222B
:0302D80005680DA9
:0302D9000510CF3E
:0302DA000319FF06
:0302DB000557AF15
:0302DC000820AC4B
:0302DD000E49BE09
:0302DE000120ED0F
:0302DF000068CDE7
:0302E0000253CCFA
:0302E100037F8216
:0302E20006F0091A
:0302E300060B57B0
:0302E4000094A0E3
:0302E5000CA7AFB4
:0302E60006B45902
:0302E7000179DCBE
:0302E800060255B6
:0302E900039E3041
:0302EA000FDF9E85
:0302EB0006960F65
:0302EC0009C9B28B
:0302ED0001B6F562
:0302EE000CCA0B2C
:0302EF000F9A7BE8
:0302F00004E6A57C
:0302F1000D8F5C12
:0302F20000937402
:0302F3000B0B6290
:0302F4000024D50E
:0302F500091E5887
:0302F6000542F6C8
:0302F70009E5E234
:0302F800025E267D
:0302F90000024FB1
:0302FA000A2423B0
:0302FB000E0C5690
:0302FC000EF648B3
:0302FD00060BC02D
:0302FE000260B2E9
:0302FF0008EF0203
:0303000004924D17
:030301000603BA36
:0303020003D5C759
:030303000A701D60
:030304000C0B6B74
:0303050000AD3F09
:030306000623E5E6
:0303070000024BA6
:03030800079BE46C
:030309000C00964F
:03030A0001F8A156
:03030B0004009556
:03030C0002454463
:03030D00029FB795
:03030E0000912B30
:03030F000D3F0F90
:030310000F6F0666
:030311000382EB79
:030312000B74D891
:030313000ED334D2
:030314000ABCC45C
:0303150001DCB751
:030316000C66C1B1
:0303170008133395
:03031800081B15AA
:030319000534495F
:03031A000D8DAD99
:03031B0004CB3DD3
:03031C0004024494
:03031D0009B5829D
:03031E0009D15EA4
:03031F000DA81C0A
:0303200003EE0DDC
:0303210000B5D054
:030322000D6C87D8
:0303230008D61FDA
:0303240007098A3C
:03032500016D0D5A
:0303260006B28498
:030327000AD3B244
:03032800070E8C31
:0303290009E19255
:03032A0007081DA4
:03032B000776BD95
:03032C00095794DA
:03032D000006B413
:03032E00040E803A
:03032F0003241292
:030330000023A205
:03033100030CF3C7
:0303320008FFBD04
:0303330004382269
:030334000C0B1F90
:030335000CE304D2
:03033600083BED94
:0303370004A03EE1
:030338000DA524EC
:0303390003E718BF
:03033A000D06624B
:03033B0003A3A178
:03033C00075C5A01
:03033D000CC78367
:03033E000D72122B
:03033F0007DB9544
:030340000F72C673
:030341000C9225F6
:030342000C7C929E
:030343000159F06D
:030344000233C4BD
:030345000AF1D9E1
:030346000C56E86A
:030347000BFD4467
:03034800045385D6
:03034900049934E0
:03034A0000DB864F
:03034B0001F208B4
:03034C00057B5BD3
:03034D000DD9F0D7
:03034E000230C0BA
:03034F000E60112C
:0303500003023471
:0303510005684DEF
:030352000F971AE8
:030353000043BCA8
:030354000AD08745
:030355000749CD88
:030356000262B58B
:030357000D720D17
:030358000E6F2104
:030359000FEE980C
:03035A00011F4D33
:03035B0005C730A3
:03035C0006402731
:03035D000F74F228
:03035E0002DE15A7
:03035F00067EBA5D
:0303600004E1A510
:030361000D161B5B
:0303620002ACD911
:030363000DB504D1
:030364000AB91DB6
:030365000ABBFED2
:030366000335D08C
:030367000E110A6A
:0303680009A77171
:0303690008BF1BAF
:03036A0002876F98
:03036B00029631C6
:03036C0008E4871B
:03036D0009CC09AF
:03036E000E03C9B2
:03036F00029D6983
:0303700009022B54
:0303710006F0068D
:030372000676BF4D
:0303730005F5028B
:0303740008157CED
:0303750003CBFCBB
:030376000452949A
:030377000926BB99
:0303780006067105
:0303790002ED6A28
:03037A000C12352D
:03037B0001E36833
:03037C000904D39E
:03037D000A4CAB7C
:03037E0002C0C0FA
:03037F000393B134
:0303800002222630
:0303810007F0067C
:0303820002A5B61B
:03038300040D5412
:03038400020FFB6A
:0303850006B304B8
:0303860000154817
:03038700006C6C9B
:030388000E02243E
:03038900033184B9
:03038A000E644BB3
:03038B000210312C
:03038C0004B4397D
:03038D0000D6088F
:03038E0004FF3930
:03038F0003BAB1FD
:03039000039200D5
:030391000F0AB997
:0303920004A3D0F1
:0303930006D2FF90
:030394000C022038
:030395000E8C9C2F
:030396000CBCC9D3
:0303970008C9563C
:0303980008D2B7D1
:0303990006E08FEC
:03039A0000DF2160
:03039B00089CBFFC
:03039C0003C73E56
:03039D000BE96CFD
:03039E000E688462
:03039F000C81A826
:0303A0000B475CAC
:0303A100039F04B3
:0303A200023E61B7
:0303A30007A91196
:0303A400082E160A
:0303A5000BE55411
:0303A6000EAD1F7A
:0303A7000027BE6E
:0303A80003B8F6A1
:0303A90000839B33
:0303AA00016718D0
:0303AB0004FD044A
:0303AC000D96B2F9
:0303AD00013AC64C
:0303AE0009A2C8D9
:0303AF000438C34C
:0303B0000214D460
:0303B10007FAD177
:0303B2000E57DC07
:0303B30001400CFA
:0303B400006C06D4
:0303B5000F36A45C
:0303B600049A9A0C
:0303B7000B301BED
:0303B800012A8295
:0303B9000855FFE5
:0303BA0006153EE7
:0303BB00035F18C5
:0303BC000CBC4432
:0303BD00024506F0
:0303BE00079EE3B4
:0303BF0003FA56E8
:0303C000021088A0
:0303C10000210810
:0303C2000FEF84B6
:0303C30006C188E8
:0303C4000D5C3796
:0303C50000021320
:0303C6000E70B501
:0303C7000BDE96B4
:0303C8000EF8D25A
:0303C90001E0EE62
:0303CA00022AA460
:0303CB0000D9A6B0
:0303CC00025F705D
:0303CD000E991472
:0303CE0000CD055A
:0303CF0007A8EF8D
:0303D000053F8165
:0303D1000F0649CB
:0303D2000DD384C4
:0303D3000DDBF946
:0303D4000EB0D098
:0303D500033D6E77
:0303D60001C5500E
:0303D70003E1EA55
:0303D80006808715
:0303D90009E0290F
:0303DA00018F6D23
:0303DB00046A7041
:0303DC000C98B3C7
:0303DD00078B0487
:0303DE0005F968B6
:0303DF000BE1042B
:0303E00000820C8C
:0303E1000E5DAFFF
:0303E200033407DA
:0303E30000020B0A
:0303E40008FF828D
:0303E500059CF67E
:0303E6000081A9EA
:0303E700078992F1
:0303E8000BC34EF6
:0303E900016E2181
:0303EA000FF7EE1C
:0303EB0001FB37DC
:0303EC00053D1DAF
:0303ED000AAB5BFD
:0303EE00065A4F5D
:0303EF000F82FA80
:0303F00000810683
:0303F10006D0CB68
:0303F200030D5B9D
:0303F30008EE8889
:0303F4000F46EEC3
:0303F500000207FC
:0303F60008222FAB
:0303F70007BEBB83
:0303F800020206F8
:0303F9000D278746
:0303FA000279DFA6
:0303FB000E50F7AA
:0303FC0000100CE2
:0303FD000A23D1FF
:0303FE0002008476
:0303FF00002008D3
:00000001ff
