:020000040000FA
:0300000001FE609E
:0300010001FAE21F
:0300020001F758AB
:0300030001F40302
:0300040001F0A860
:0300050001ED6AA0
:0300060001E9FD10
:0300070001E651BE
:0300080001E325EC
:0300090001DFB361
:03000A0001DC8A8C
:03000B0001D91008
:03000C0001D5ED2E
:03000D0001D28A93
:03000E0001CF5EC1
:03000F0001CC5DC4
:0300100001C9041F
:0300110001C60520
:0300120001C30423
:0300130001BFD753
:0300140001BCE448
:0300150001B9F13D
:0300160001B6F53B
:0300170001B40B26
:0300180001B15AD9
:0300190001AE80B5
:03001A0001ABD364
:03001B0001A953E5
:03001C0001A6A397
:03001D0001A3F646
:03001E0001A19DA0
:03001F00019F3D01
:03002000019CCE72
:03002100019AA69B
:0300220001983A08
:0300230001960F34
:030024000194172D
:0300250001920C39
:0300260001901234
:03002700018DF157
:03002800018C4CFC
:03002900018A55F4
:03002A0001889FAB
:03002B0001872723
:03002C00018573D8
:03002D0001840843
:03002E00018269E3
:03002F0001812B21
:0300300001800745
:03003100017EC588
:03003200017D6EDF
:03003300017C7BD2
:03003400017B410C
:03003500017A4D00
:03003600017998B5
:030037000178B19C
:030038000177D974
:03003900017759F3
:03003A000176CD7F
:03003B0001764209
:03003C000175B299
:03003D0001752D1D
:03003E000174C486
:03003F0001749CAD
:03004000017498B0
:0300410001741C2B
:03004200017448FE
:0300430001744203
:030044000174370D
:03004500017484BF
:03004600017474CE
:030047000174BA87
:03004800017562DD
:0300490001758EB0
:03004A000176003C
:03004B0001765BE0
:03004C000176FD3D
:03004D000177A890
:03004E00017852E4
:03004F000178F540
:030050000179989B
:03005100017A7BB6
:03005200017B53DC
:03005300017BE846
:03005400017CB973
:03005500017DA189
:03005600017EF434
:03005700017FBC6A
:030058000180E93B
:030059000182120F
:03005A00018329F6
:03005B0001844ECF
:03005C000185A576
:03005D000186F425
:03005E00018859BD
:03005F0001899F75
:03006000018B1DF4
:03006100018C29E6
:03006200018DBA53
:03006300018F52B8
:030064000190C345
:0300650001920BFA
:030066000193B251
:03006700019539C7
:030068000196B549
:03006900019839C2
:03006A000199AF4A
:03006B00019B896D
:03006C00019CFEF6
:03006D00019E8170
:03006E00019FFDF2
:03006F0001A210DB
:0300700001A38267
:0300710001A55393
:0300720001A6EAFA
:0300730001A87968
:0300740001AA429C
:0300750001ABDA02
:0300760001ADBE1B
:0300770001AF6C6A
:0300780001B115BE
:0300790001B2C60B
:03007A0001B47757
:03007B0001B5F1DB
:03007C0001B7D7F2
:03007D0001B9893D
:03007E0001BB2E95
:03007F0001BCA61B
:0300800001BE8935
:0300810001C04B70
:0300820001C1B207
:0300830001C39422
:0300840001C5159E
:0300850001C6A40D
:0300860001C88F1F
:0300870001C9E8C4
:0300880001CBB3F6
:0300890001CD3F67
:03008A0001CEE8BC
:03008B0001D01988
:03008C0001D1AAF5
:03008D0001D34B51
:03008E0001D4C5D5
:03008F0001D67621
:0300900001D80292
:0300910001D9583A
:0300920001DAB6DA
:0300930001DC533A
:0300940001DD9DEE
:0300950001DF2266
:0300960001E05E28
:0300970001E1A5DF
:0300980001E3552C
:0300990001E4CBB4
:03009A0001E5BAC3
:03009B0001E71565
:03009C0001E86513
:03009D0001E9BEB8
:03009E0001EAD99B
:03009F0001EC6110
:0300A00001EDA5CA
:0300A10001EE9AD3
:0300A20001EFC5A6
:0300A30001F0D099
:0300A40001F24125
:0300A50001F35311
:0300A60001F42042
:0300A70001F573ED
:0300A80001F6441A
:0300A90001F783D9
:0300AA0001F8B0AA
:0300AB0001F965F3
:0300AC0001FA64F2
:0300AD0001FB92C2
:0300AE0001FCA4AE
:0300AF0001FD4D03
:0300B00001FE4E00
:0300B10001FF2A22
:0300B20000000A41
:0300B3000000EB5F
:0300B4000001C187
:0300B500000277CF
:0300B60000031034
:0300B70000042A18
:0300B8000004E160
:0300B90000056DD2
:0300BA0000061627
:0300BB000006F646
:0300BC000007A199
:0300BD00000851E7
:0300BE000008E94E
:0300BF0000097CB9
:0300C000000A2D06
:0300C100000AAD85
:0300C200000B3AF6
:0300C300000C1A14
:0300C400000C69C4
:0300C500000CD05C
:0300C600000D89A1
:0300C700000E1414
:0300C800000E82A5
:0300C900000EE541
:0300CA00000F5ACA
:0300CB00000FB66D
:0300CC0000104BD6
:0300CD0000109D83
:0300CE0000111B03
:0300CF0000118994
:0300D0000011A379
:0300D10000123EDC
:0300D200001277A2
:0300D3000012B266
:0300D400001334E2
:0300D5000013AB6A
:0300D6000013DC38
:0300D7000013D241
:0300D80000142CE5
:0300D9000014729E
:0300DA000014C649
:0300DB0000150409
:0300DC00001540CC
:0300DD0000154AC1
:0300DE0000159971
:0300DF000015D930
:0300E00000161DEA
:0300E10000163EC8
:0300E200001631D4
:0300E30000169470
:0300E4000016D42F
:0300E5000016B052
:0300E600001721DF
:0300E7000016EB15
:0300E800001712EC
:0300E900001731CC
:0300EA0000173AC2
:0300EB0000176794
:0300EC0000176A90
:0300ED0000178277
:0300EE0000175A9E
:0300EF000017698E
:0300F00000178F67
:0300F1000017D71E
:0300F2000017BC38
:0300F3000017B73C
:0300F4000017CE24
:0300F5000017C031
:0300F6000017D21E
:0300F7000017B936
:0300F8000017D01E
:0300F9000017BD30
:0300FA000017C02C
:0300FB000017CE1D
:0300FC000017D119
:0300FD000017C128
:0300FE0000178563
:0300FF000017B730
:00000001ff
