:020000040000FA
:0400000020000004D8
:040001001FF00AA63C
:040002001FE02A6F62
:040003001FD05F2E7D
:040004001FC0A8B5BC
:040005001FB106D64B
:040006001FA1796459
:040007001F92003113
:040008001F829B12A6
:040009001F7349DB3D
:04000A001F640C6102
:04000B001F54E27824
:04000C001F45CBF7CA
:04000D001F36C8B41E
:04000E001F27D8854B
:04000F001F18FB4378
:040010001F0A30C4CF
:040011001EFB78E179
:040012001EECD3739A
:040013001EDE40535A
:040014001ECFBF5AE2
:040015001EC1506355
:040016001EB2F348DB
:040017001EA4A7E498
:040018001E966E12B0
:040019001E8845AF49
:04001A001E7A2E9587
:04001B001E6C28A38C
:04001C001E5E33B47D
:04001D001E504FA77B
:04001E001E427C58AA
:04001F001E34B9A72B
:040020001E2707721E
:040021001E196597A8
:040022001E0BD3F7E7
:040023001DFE526FFD
:040024001DF0E0E209
:040025001DE37F2E2A
:040026001DD62D3581
:040027001DC8EAD82E
:040028001DBBB7F74E
:040029001DAE9476FE
:04002A001DA180355F
:04002B001D947B178E
:04002C001D8784FFA9
:04002D001D7A9DD0CB
:04002E001D6DC56D12
:04002F001D60FBBA9B
:040030001D54409A81
:040031001D4793F2E2
:040032001D3AF5A7D7
:040033001D2E659C7D
:040034001D21E3B8EF
:040035001D156FDF47
:040036001D0909F7A0
:040037001CFCB1E616
:040038001CF06793BE
:040039001CE42AE3B6
:04003A001CD7FBBD17
:04003B001CCBDA09F7
:04003C001CBFC5AD73
:04003D001CB3BE91A1
:04003E001CA7C49D9A
:04003F001C9BD7B877
:040040001C8FF7CB4F
:040041001C8424BF38
:040042001C785E7B4D
:040043001C6CA4EAA3
:040044001C60F7F352
:040045001C5557816E
:040046001C49C37C12
:040047001C3E3BD050
:040048001C32C06541
:040049001C275126F9
:04004A001C1BEDFE90
:04004B001C1096D718
:04004C001C054B9CA8
:04004D001BFA0C3856
:04004E001BEED89736
:04004F001BE3B0A45B
:040050001BD8944ADB
:040051001BCD8375CB
:040052001BC27E133C
:040053001BB7840E45
:040054001BAC9553F9
:040055001BA1B1CF6B
:040056001B96D96FAD
:040057001B8C0C1FD3
:040058001B8149CEF1
:040059001B76926818
:04005A001B6BE5DA5D
:04005B001B614413CE
:04005C001B56AD0082
:04005D001B4C209088
:04005E001B419EB0F4
:04005F001B37274FD5
:040060001B2CBA5C3F
:040061001B2257C542
:040062001B17FF79F0
:040063001B0DB16759
:040064001B036D7E8F
:040065001AF933ADA4
:040066001AEF03E5A5
:040067001AE4DE14A5
:040068001ADAC22AB4
:040069001AD0B018E1
:04006A001AC6A7CD3E
:04006B001ABCA93AD8
:04006C001AB2B44EC2
:04006D001AA8C8FB0A
:04006E001A9EE730BF
:04006F001A950EE0F0
:040070001A8B3FF9AF
:040071001A817A6F07
:040072001A77BE310A
:040073001A6E0B31C5
:040074001A64616049
:040075001A5AC0B0A3
:040076001A512913DF
:040077001A479A7A10
:040078001A3E14D840
:040079001A34981E7F
:04007A001A2B243EDB
:04007B001A21B92B62
:04007C001A1856D721
:04007D001A0EFD3426
:04007E001A05AC367D
:04007F0019FC63CE37
:0400800019F323F15C
:0400810019E9EC90FD
:0400820019E0BD9E26
:0400830019D79710E2
:0400840019CE78D841
:0400850019C562E94E
:0400860019BC553814
:0400870019B34FB7A3
:0400880019AA525A05
:0400890019A15D1646
:04008A0019986FDE74
:04008B00198F8AA59A
:04008C001986AD61C3
:04008D00197DD805FC
:04008E0019750A8650
:04008F00196C44D7CD
:04009000196386EE7C
:04009100195AD0BF69
:040092001952223F9E
:0400930019497B622A
:040094001940DC1E15
:04009500193844676B
:04009600192FB43238
:0400970019272B7486
:04009800191EAA2360
:0400990019163034D0
:04009A00190DBD9CE3
:04009B0019055250A1
:04009C0018FCEE4717
:04009D0018F491764C
:04009E0018EC3BD24D
:04009F0018E3ED5124
:0400A00018DBA5EADA
:0400A10018D3659279
:0400A20018CB2C3F0C
:0400A30018C2F9E79F
:0400A40018BACE8038
:0400A50018B2AA02E1
:0400A60018AA8C61A7
:0400A70018A2759492
:0400A800189A6593AA
:0400A90018925C52FB
:0400AA00188A59CA8D
:0400AB0018825DF169
:0400AC00187A68BD99
:0400AD0018727A2526
:0400AE00186A92201A
:0400AF001862B0A67D
:0400B000185AD5AD58
:0400B1001853012CB3
:0400B200184B331B99
:0400B30018436B7013
:0400B400183BAA2328
:0400B5001833EF2CE1
:0400B600182C3A8246
:0400B70018248C1C61
:0400B800181CE3F23B
:0400B900181541FBDA
:0400BA00180DA63047
:0400BB00180610878C
:0400BC0017FE80FAB1
:0400BD0017F6F77FBC
:0400BE0017EF740EB6
:0400BF0017E7F6A0A9
:0400C00017E07F2D99
:0400C10017D90DAC92
:0400C20017D1A2169A
:0400C30017CA3C63B9
:0400C40017C2DC8BF8
:0400C50017BB82885B
:0400C60017B42E50ED
:0400C70017ACDFDCB7
:0400C80017A59726BB
:0400C900179E542505
:0400CA00179716D29C
:0400CB00178FDF2686
:0400CC001788AD1ACA
:0400CD00178180A572
:0400CE00177A59C282
:0400CF001773386902
:0400D000176C1C92FB
:0400D1001765063772
:0400D200175DF55170
:0400D3001756E9D9FA
:0400D400174FE3C718
:0400D5001748E316CF
:0400D6001741E7BE29
:0400D700173AF1B82B
:0400D800173400FEDB
:0400D900172D158A40
:0400DA0017262F5462
:0400DB00171F4E5647
:0400DC0017187289F6
:0400DD0017119BE775
:0400DE00170ACA6AC9
:0400DF001703FE0BFA
:0400E00016FD36C40F
:0400E10016F6748F0C
:0400E20016EFB764FA
:0400E30016E8FF3FDD
:0400E40016E24C18BC
:0400E50016DB9DEA9F
:0400E60016D4F4AF89
:0400E70016CE506180
:0400E80016C7B0F98E
:0400E90016C11671B5
:0400EA0016BA80C4FE
:0400EB0016B3EFEC6D
:0400EC0016AD63E307
:0400ED0016A6DCA3D4
:0400EE0016A05A26D8
:0400EF001699DC671B
:0400F00016936360A0
:0400F100168CEF0B6F
:0400F20016867F638C
:0400F30016801461FE
:0400F4001679AE02C9
:0400F50016734C3EF4
:0400F600166CEF1085
:0400F700166696747F
:0400F80016604263E9
:0400F9001659F2D9C9
:0400FA001653A7CF23
:0400FB00164D6141FC
:0400FC0016471F2A5A
:0400FD001640E18345
:0400FE00163AA849BD
:0400FF0016347375CB
:04010000162E430371
:0401010016247770D9
:04010200161AB81EF3
:04010300161104F4D9
:0401040016075DD7A6
:0401050015FDC2AE74
:0401060015F4335F5A
:0401070015EAAFD076
:0401080015E137EADC
:0401090015D7CB92A9
:04010A0015CE6AB2F2
:04010B0015C51531D0
:04010C0015BBCAF75E
:04010D0015B28BEDAF
:04010E0015A957FBDD
:04010F0015A02F0CFC
:040110001597110727
:04011100158DFDD774
:040112001584F566F5
:04011300157BF79DC4
:0401140015730468F3
:04011500156A1BB09C
:0401160015613D61D1
:0401170015586965A9
:04011800154F9FA937
:040119001546E01790
:04011A00153E2A9BC9
:04011B0015357F22F5
:04011C00152CDD9829
:04011D00152445E878
:04011E00151BB801F4
:04011F00151333CDB4
:04012000150AB93CC7
:040121001502483A41
:0401220014F9E0B438
:0401230014F18299B8
:0401240014E92DD5D8
:0401250014E0E258A8
:0401260014D8A00F3A
:0401270014D066EAA0
:0401280014C836D6EB
:0401290014C00FC22D
:04012A0014B7F19E77
:04012B0014AFDC59D8
:04012C0014A7CFE263
:04012D00149FCC2827
:04012E001497D11C35
:04012F00148FDEAE9D
:040130001487F4CC70
:0401310014801369BA
:0401320014783A7390
:04013300147069DCFF
:040134001468A19416
:040135001460E18CE5
:04013600145929B57A
:0401370014517A01E4
:040138001449D26034
:04013900144232C476
:04013A00143A9B1FB9
:04013B0014330B630B
:04013C00142B83807D
:04013D001424036B18
:04013E00141C8B14EE
:04013F0014151A6E0B
:04014000140DB16B7E
:0401410014064FFE53
:0401420013FEF61A98
:0401430013F7A3B15A
:0401440013F058B7A5
:0401450013E9151E87
:0401460013E1D8DB0E
:0401470013DAA3DF45
:0401480013D3761F38
:0401490013CC4F8FF5
:04014A0013C5302188
:04014B0013BE17CAFE
:04014C0013B7067E61
:04014D0013AFFC31BF
:04014E0013A8F8D624
:04014F0013A1FC6399
:04015000139B06CB2C
:0401510013941804E7
:04015200138D3001D8
:0401530013864EB809
:04015400137F741D84
:040155001378A02655
:040156001371D2C689
:04015700136B0BF427
:0401580013644BA53C
:04015900135D91CDD4
:04015A001356DE63F7
:04015B001350315CB0
:04015C0013498AAD0C
:04015D001342EA4C13
:04015E00133C5030CE
:04015F001335BC4D4B
:04016000132F2E9A91
:040161001328A70DAB
:040162001322259DA2
:04016300131BAA3E82
:04016400131534E952
:04016500130EC5921E
:0401660013085C31ED
:040167001301F8BDCB
:0401680012FB9B2BC0
:0401690012F54373D5
:04016A0012EEF18C14
:04016B0012E8A56C85
:04016C0012E25F0A32
:04016D0012DC1E5E24
:04016E0012D5E35F64
:04016F0012CFAE03FA
:0401700012C97E43EF
:0401710012C354164B
:0401720012BD2F7219
:0401730012B710505F
:0401740012B0F6A728
:0401750012AAE26F79
:0401760012A4D3A05C
:04017700129ECA31D9
:040178001298C61AF9
:040179001292C753C4
:04017A00128CCDD541
:04017B001286D99778
:04017C001280EA9172
:04017D00127B00BD34
:04017E0012751C11C9
:04017F00126F3C8639
:040180001269621589
:0401810012638CB6C3
:04018200125DBC62EC
:040183001257F1120C
:0401840012522ABD2C
:04018500124C695D52
:040186001246ACEA87
:040187001240F55ECF
:04018800123B42B133
:04018900123594DCBB
:04018A00122FEBD86D
:04018B00122A479E4F
:04018C001224A82869
:04018D00121F0D6EC2
:04018E001219776962
:04018F001213E6144D
:04019000120E59678B
:040191001208D15B24
:0401920012034DEB1C
:0401930011FDCF0F7C
:0401940011F854C248
:0401950011F2DEFC89
:0401960011ED6DB743
:0401970011E800EE7D
:0401980011E298993F
:0401990011DD34B38D
:04019A0011D7D5356F
:04019B0011D27A1AE9
:04019C0011CD235B03
:04019D0011C7D0F2C4
:04019E0011C282DA2E
:04019F0011BD390B4A
:0401A00011B7F3821E
:0401A10011B2B236AF
:0401A20011AD752402
:0401A30011A83C451E
:0401A40011A3079309
:0401A500119DD708C9
:0401A6001198AAA062
:0401A70011938254DA
:0401A800118E5E1F37
:0401A90011893DFC7F
:0401AA00118421E4B7
:0401AB00117F09D3E4
:0401AC001179F5C40C
:0401AD001174E5B034
:0401AE00116FD99262
:0401AF00116AD1669A
:0401B0001165CD27E1
:0401B1001160CCCE3F
:0401B200115BD057B6
:0401B3001156D7BC4E
:0401B4001151E2F90A
:0401B500114CF209EE
:0401B600114804E602
:0401B70011431B8C49
:0401B800113E35F6C9
:0401B9001139541E86
:0401BA001134760185
:0401BB00112F9B98CD
:0401BC00112AC4E060
:0401BD001125F1D443
:0401BE001121226F7A
:0401BF00111C56AC0D
:0401C00011178E86FF
:0401C1001112C9FA54
:0401C200110E09020F
:0401C30011094B993A
:0401C400110491BCD5
:0401C50010FFDB66E6
:0401C60010FB28936F
:0401C70010F6793D78
:0401C80010F1CD6104
:0401C90010ED24FB16
:0401CA0010E88005B4
:0401CB0010E3DE7CE3
:0401CC0010DF405BA5
:0401CD0010DAA59F00
:0401CE0010D60E42F7
:0401CF0010D17A4190
:0401D00010CCE998CE
:0401D10010C85C42B4
:0401D20010C3D23B49
:0401D30010BF4B808E
:0401D40010BAC80C89
:0401D50010B647DB3E
:0401D60010B1CAEAB0
:0401D70010AD5134E2
:0401D80010A8DAB5DC
:0401D90010A4676A9D
:0401DA00109FF74E2D
:0401DB00109B8A5E8D
:0401DC0010972096C2
:0401DD001092B9F2D1
:0401DE00108E566FBA
:0401DF001089F60885
:0401E000108598BA34
:0401E10010813E81CA
:0401E200107CE7594D
:0401E30010789340BD
:0401E4001074423021
:0401E500106FF4287B
:0401E600106BA922CF
:0401E7001067611C20
:0401E80010631C1272
:0401E900105EDA00CA
:0401EA00105A9AE32A
:0401EB0010565EB894
:0401EC001052257B0D
:0401ED00104DEF289A
:0401EE001049BBBC3D
:0401EF0010458B35F7
:0401F00010415D8ECF
:0401F100103D32C4C7
:0401F20010390AD4E2
:0401F3001034E5BB24
:0401F4001030C3758F
:0401F500102CA3FE29
:0401F60010288755F1
:0401F70010246D76ED
:0401F8001020565D20
:0401F900101C42078D
:0401FA001018307138
:0401FB001014219823
:0401FC001010157A50
:0401FD00100C0C12C4
:0401FE001008055D83
:0401FF001004015A8D
:00000001ff
