:020000040000FA
:020000000000FE
:02000100018874
:02000200008775
:020003000029D2
:02000400005E9C
:0200050001D325
:0200060001F007
:0200070002D025
:02000800033CB7
:0200090002A94A
:02000A000131C2
:02000B00038F61
:02000C00031AD5
:02000D0001C030
:02000E000202EC
:02000F0002EFFE
:02001000001FCF
:0200110001AD3F
:020012000037B5
:0200130000D417
:020014000112D7
:0200150002F2F5
:0200160000E305
:0200170001BB2B
:0200180000B630
:02001900017173
:02001A0003E3FE
:02001B00005B88
:02001C00037C63
:02001D000235AA
:02001E0001C21D
:02001F0003A23A
:02002000019845
:0200210001A13B
:0200220001F7E4
:020023000106D4
:02002400016A6F
:0200250001EDEB
:02002600017F58
:0200270003359F
:02002800024490
:0200290001FCD8
:02002A0001C40F
:02002B000116BC
:02002C00037E51
:02002D00008E43
:02002E0003E5E8
:02002F000120AE
:0200300003DFEC
:0200310003BB0F
:02003200004587
:020033000101C9
:02003400016168
:0200350000C504
:02003600027353
:02003700019531
:02003800013491
:0200390000368F
:02003A0001596A
:02003B00033090
:02003C00001CA6
:02003D00024E71
:02003E0003BEFF
:02003F00022B92
:020040000315A6
:0200410003B901
:02004200010FAC
:0200430003C7F1
:02004400004278
:02004500029225
:02004600027442
:02004700034E66
:0200480000288E
:0200490003B002
:02004A00002D87
:02004B0003822E
:02004C00032986
:02004D00002F82
:02004E00032F7E
:02004F0000525D
:02005000034A61
:02005100034C5E
:02005200031198
:0200530000D1DA
:02005400023C6C
:02005500007D2C
:02005600003276
:02005700016B3B
:0200580003A5FE
:0200590001C8DC
:02005A0002237F
:02005B00026A37
:02005C0003AFF0
:02005D0002653A
:02005E00025648
:02005F0002A7F6
:0200600001CDD0
:0200610001900C
:02006200030693
:02006300028C0D
:0200640003CACD
:0200650001ABED
:02006600025C3A
:02006700034450
:02006800010B8A
:02006900038B07
:02006A0001D8BB
:02006B0002335E
:02006C00020F81
:02006D00020B84
:02006E0001EBA4
:02006F00009EF1
:0200700000315D
:0200710001D4B8
:0200720001D3B8
:020073000393F5
:020074000192F7
:02007500016226
:0200760003A3E2
:0200770000097E
:02007800014F36
:02007900013A4A
:02007A000096EE
:02007B0003314F
:02007C0003D9A6
:02007D00005C25
:02007E00017F00
:02007F0003017B
:020080000397E4
:0200810000E697
:020082000385F4
:0200830002F683
:0200840001A7D2
:0200850000EE8B
:02008600010275
:02008700010274
:0200880002E78D
:02008900038BE7
:02008A0002A0D2
:02008B0002B0C1
:02008C00011C55
:02008D0002145B
:02008E00009BD5
:02008F00027FEE
:02009000005A14
:02009100018EDE
:0200920000412B
:0200930001600A
:020094000093D7
:02009500004524
:02009600019ACD
:02009700006FF8
:0200980003590A
:02009900039FC3
:02009A00013B28
:02009B0002D78A
:02009C0001C899
:02009D00020E51
:02009E0002510D
:02009F0003DF7D
:0200A00002A8B4
:0200A100013D1F
:0200A20000CE8E
:0200A300012634
:0200A40000ACAE
:0200A500005BFE
:0200A60003C68F
:0200A700010F47
:0200A80000ED69
:0200A90002A0B3
:0200AA0003F958
:0200AB00014E04
:0200AC00017ED3
:0200AD0001EE62
:0200AE000284CA
:0200AF0001A6A8
:0200B000003B13
:0200B10001A3A9
:0200B20003B990
:0200B30002D079
:0200B40001AF9A
:0200B5000191B7
:0200B600022323
:0200B7000180C6
:0200B800002E18
:0200B900012123
:0200BA0001B291
:0200BB0001A2A0
:0200BC00031629
:0200BD000294AB
:0200BE00030538
:0200BF0001AB93
:0200C000022814
:0200C1000276C5
:0200C20002E654
:0200C300021F1A
:0200C400011D1C
:0200C500032B0B
:0200C60001E453
:0200C700013204
:0200C8000348EB
:0200C90000A68F
:0200CA00000E26
:0200CB00028DA4
:0200CC00036FC0
:0200CD000045EC
:0200CE0000DC54
:0200CF000341EB
:0200D00003BB70
:0200D10000CC61
:0200D200032DFC
:0200D30001CD5D
:0200D40001CE5B
:0200D5000285A2
:0200D6000177B0
:0200D7000255D0
:0200D800030023
:0200D9000380A2
:0200DA0002081A
:0200DB0002EF32
:0200DC0000B36F
:0200DD0003F42A
:0200DE000374A9
:0200DF0000130C
:0200E00000CF4F
:0200E10002C259
:0200E2000120FB
:0200E3000133E7
:0200E400025EBA
:0200E500021700
:0200E60003E72E
:0200E7000167AF
:0200E8000241D3
:0200E900002AEB
:0200EA0002E62C
:0200EB00003FD4
:0200EC00000909
:0200ED00001FF2
:0200EE000061AF
:0200EF0002AF5E
:0200F00002EE1E
:0200F10003000A
:0200F20002C743
:0200F300001FEC
:0200F40002DF29
:0200F50000D930
:0200F60001D433
:0200F700038C78
:0200F80001B451
:0200F90001EE16
:0200FA0003CD34
:0200FB0000D62D
:0200FC0000778B
:0200FD00000EF3
:0200FE0002DE20
:0200FF000218E5
:0201000000D12C
:020101000002FA
:02010200028A6F
:02010300012BCE
:02010400028473
:020105000317DE
:02010600013FB7
:020107000138BD
:020108000113E1
:0201090000BF35
:02010A0001FEF4
:02010B00006B87
:02010C0001727E
:02010D0000549C
:02010E000223CA
:02010F0001C02D
:0201100003D911
:0201110002ECFE
:02011200033FA9
:0201130002E206
:0201140001B137
:0201150001499E
:020116000110D6
:020117000230B4
:0201180003934F
:0201190001E6FD
:02011A0003954B
:02011B0000C919
:02011C00036A74
:02011D000317C6
:02011E00012EB0
:02011F0000C21C
:02012000029D3E
:0201210001409B
:0201220000E0FB
:02012300036374
:02012400006376
:020125000128AF
:0201260000A92E
:02012700038B48
:02012800001FB6
:02012900025E74
:02012A0003EFE1
:02012B00001BB7
:02012C0003D7F7
:02012D0001BA15
:02012E0001FFCF
:02012F00028448
:0201300002C803
:0201310003EBDE
:0201320000AA21
:02013300016069
:020134000003C6
:020135000026A2
:0201360002F3D2
:02013700032C97
:02013800012B99
:0201390002E0E2
:02013A0003CEF2
:02013B00010BB6
:02013C00014080
:02013D0000A41C
:02013E0000FFC0
:02013F0001A815
:0201400003803A
:0201410000F6C6
:020142000201B8
:02014300002397
:02014400026453
:02014500015463
:020146000308AC
:0201470003189B
:0201480002A211
:02014900004173
:02014A0000159E
:02014B0003BBF4
:02014C00024F60
:02014D00006947
:02014E00001F90
:02014F0000FEB0
:0201500000119C
:0201510003D7D2
:02015200004863
:0201530002D4D4
:02015400025D4A
:0201550003386D
:02015600033173
:02015700018025
:0201580002D2D1
:02015900013F64
:02015A00005053
:02015B0000FAA8
:02015C00019D03
:02015D00020599
:02015E00036834
:02015F0000613D
:0201600000F6A7
:02016100029208
:02016200000695
:02016300018514
:0201640000A7F2
:02016500006434
:0201660001187E
:02016700007C1A
:0201680001A8EC
:02016900011380
:02016A00009003
:02016B00034C43
:02016C0001D1BF
:02016D0002018D
:02016E00031676
:02016F0001A3EA
:02017000038FFB
:02017100001973
:0201720003D2B6
:0201730000A0EA
:0201740001B9CF
:0201750003A6DF
:02017600003F48
:0201770002ADD7
:0201780003661C
:02017900002C58
:02017A00000F74
:02017B00036916
:02017C0003E09E
:02017D00006020
:02017E0001215D
:02017F00039EDD
:02018000029DDE
:02018100022555
:020182000384F4
:02018300014A2F
:02018400034A2C
:020185000299DD
:02018600018AEC
:0201870003B3C0
:0201880001E78D
:0201890002353D
:02018A0003EB85
:02018B000391DE
:02018C0002ED82
:02018D0000FA76
:02018E0001F07E
:02018F00033D2E
:020190000386E4
:0201910002A9C1
:0201920001B6B4
:0201930002F177
:0201940001D692
:02019500030E57
:020196000077F0
:02019700012045
:0201980001451F
:0201990002540E
:02019A0002E77A
:02019B0002C799
:02019C0002E877
:02019D000169F6
:02019E000196C8
:02019F0003E279
:0201A00001EA72
:0201A1000272E8
:0201A2000168F2
:0201A30003DD7A
:0201A400000851
:0201A500014512
:0201A600001542
:0201A700021A3A
:0201A80002183B
:0201A90003F65B
:0201AA0000B99A
:0201AB000286CA
:0201AC0000A2AF
:0201AD00036EDF
:0201AE00006AE5
:0201AF0002311B
:0201B0000078D5
:0201B10000113B
:0201B20002E663
:0201B30003FB4C
:0201B400036BDB
:0201B500026ADC
:0201B600034004
:0201B700014CF9
:0201B800010341
:0201B90003EC55
:0201BA0000A2A1
:0201BB0002D46C
:0201BC000340FE
:0201BD0003B786
:0201BE00031923
:0201BF000156E7
:0201C000036DCD
:0201C100036BCE
:0201C2000067D4
:0201C3000289AF
:0201C400030036
:0201C50000092F
:0201C60000EB4C
:0201C70001F342
:0201C800007ABB
:0201C90002DF53
:0201CA000088AB
:0201CB0001E24F
:0201CC00005FD2
:0201CD000276B8
:0201CE0003A28A
:0201CF000060CE
:0201D0000232F9
:0201D100039B8E
:0201D200001C0F
:0201D300003CEE
:0201D400017DAB
:0201D5000262C4
:0201D600026BBA
:0201D70002180C
:0201D80002E241
:0201D9000341E0
:0201DA0002A879
:0201DB0001849D
:0201DC00013BE5
:0201DD00002EF2
:0201DE0001B668
:0201DF000223F9
:0201E00002BE5D
:0201E10001C556
:0201E200026CAD
:0201E30000DC3E
:0201E4000233E4
:0201E500008296
:0201E60002CD48
:0201E700010D08
:0201E8000028ED
:0201E90001F81B
:0201EA000148CA
:0201EB0001D140
:0201EC00003CD5
:0201ED00021FEF
:0201EE0001FF0F
:0201EF00034EBD
:0201F000026BA0
:0201F100009E6E
:0201F200001DEE
:0201F300000703
:0201F4000065A4
:0201F5000229DD
:0201F600032FD5
:0201F7000238CC
:0201F80002F013
:0201F90001E51E
:0201FA00008E75
:0201FB000148B9
:0201FC000351AD
:0201FD0002D02E
:0201FE0000CA35
:0201FF00032CCF
:0202000000C23A
:02020100013AC0
:020202000123D6
:0202030001EE0A
:0202040001E80F
:020205000042B5
:020206000108ED
:020207000124D0
:02020800025E94
:02020900035D93
:02020A00039F50
:02020B0003826C
:02020C00003DB3
:02020D0003E20A
:02020E00015B92
:02020F00006D80
:0202100001B437
:0202110002A643
:02021200018E5B
:02021300019058
:0202140002A442
:0202150001994D
:020216000013D3
:0202170000895C
:0202180002479B
:02021900016E74
:02021A0002EEF2
:02021B00008C55
:02021C0000DE02
:02021D00034A92
:02021E000008D6
:02021F00001FBE
:02022000016477
:02022100027E5B
:0202220002E1F7
:0202230002CC0B
:02022400034F86
:02022500024491
:02022600025381
:0202270002EDE6
:02022800005183
:0202290003864A
:02022A00025D73
:02022B0003725C
:02022C000228A6
:02022D0002AC21
:02022E0001F1DC
:02022F0001B21A
:0202300000715B
:02023100017555
:0202320000CCFE
:0202330003487E
:02023400028046
:0202350000CFF8
:02023600015471
:0202370003EFD3
:0202380001467D
:0202390002BE03
:02023A00027E42
:02023B0003704E
:02023C00013A85
:02023D00004778
:02023E0001BFFE
:02023F00038832
:02024000004874
:02024100036256
:0202420000F7C3
:0202430001E5D3
:0202440003C6EF
:0202450000EFC8
:02024600007343
:02024700021E95
:0202480002763C
:0202490002BDF4
:02024A0000ECC6
:02024B0003B7F7
:02024C00028A24
:02024D00018826
:02024E00018D20
:02024F00002B82
:0202500003ABFE
:02025100030D9B
:020252000204A4
:0202530000FAAF
:02025400010F98
:02025500001592
:02025600009214
:0202570001C1E3
:02025800038D14
:0202590002960B
:02025A00002D75
:02025B0002544B
:02025C0003BEDF
:02025D0003CFCD
:02025E00029A02
:02025F0000E4B9
:02026000001F7D
:02026100026B2E
:020262000299FF
:02026300002673
:02026400033B5A
:0202650000B2E5
:02026600020E86
:02026700017E16
:0202680001DFB4
:0202690002B7DA
:02026A0000385A
:02026B00033C52
:02026C00014A45
:02026D000090FF
:02026E0003E6A5
:02026F0002CDBE
:02027000016C1F
:020271000094F7
:0202720001BBCE
:02027300030185
:0202740003285D
:02027500019CEA
:02027600026C18
:02027700024D36
:020278000299E9
:02027900014E34
:02027A00010D74
:02027B00011C64
:02027C0001611E
:02027D00026A13
:02027E0001611C
:02027F00001667
:0202800000F983
:02028100031A5E
:02028200022C4C
:020283000280F7
:02028400010770
:02028500035123
:020286000390E3
:020287000090E5
:0202880001BEB5
:0202890003244C
:02028A00016A07
:02028B0001D39D
:02028C0002402E
:02028D00012E40
:02028E0001B7B6
:02028F00038DDD
:02029000030069
:0202910000FA71
:0202920002FE6A
:0202930003293D
:02029400003434
:02029500016DF9
:0202960002BEA6
:0202970000A7BE
:02029800004123
:02029900033C24
:02029A0003E17E
:02029B00010D53
:02029C0002342A
:02029D000362FA
:02029E00013627
:02029F0000E677
:0202A000003C20
:0202A1000198C2
:0202A20003EC6B
:0202A30002BE99
:0202A400022A2C
:0202A50002DC79
:0202A600021440
:0202A70001A4B0
:0202A80003F160
:0202A90003F15F
:0202AA00012928
:0202AB0003B39B
:0202AC00003719
:0202AD0003EC60
:0202AE00009CB2
:0202AF00009EAF
:0202B00002D971
:0202B10002C287
:0202B200005EEC
:0202B300003F0A
:0202B4000384C1
:0202B50003DA6A
:0202B600037CC7
:0202B700012F15
:0202B8000048FC
:0202B90000A49F
:0202BA0002AF91
:0202BB00035EE0
:0202BC0000320E
:0202BD00033606
:0202BE0003013A
:0202BF0002B08B
:0202C00001EE4D
:0202C10000ED4E
:0202C2000067D3
:0202C30001A197
:0202C4000267CF
:0202C500010D29
:0202C600006DC9
:0202C70003EB47
:0202C8000370C1
:0202C900036DC3
:0202CA0000D85A
:0202CB00012D03
:0202CC00026FBF
:0202CD00032408
:0202CE00025AD2
:0202CF0003A08A
:0202D000030C1D
:0202D1000137F3
:0202D200033FE8
:0202D30002C265
:0202D40001E641
:0202D500034FD5
:0202D6000225FF
:0202D70002150E
:0202D8000348D9
:0202D900026FB2
:0202DA0000B76B
:0202DB0003CF4F
:0202DC0001E936
:0202DD0001B569
:0202DE000263B9
:0202DF0003A476
:0202E00001A576
:0202E100011703
:0202E2000326F1
:0202E300017D9B
:0202E4000245D1
:0202E5000027F0
:0202E6000246CE
:0202E7000045D0
:0202E8000243CF
:0202E90000DA39
:0202EA000124ED
:0202EB0000B25F
:0202EC0001957A
:0202ED000257B6
:0202EE0001FF0E
:0202EF00000D00
:0202F000007C90
:0202F10003C246
:0202F20002CE3A
:0202F3000308FE
:0202F4000255B1
:0202F500030EF6
:0202F6000009FD
:0202F700009174
:0202F800006D97
:0202F90003D828
:0202FA00038877
:0202FB0000A859
:0202FC0000DB25
:0202FD00023CC1
:0202FE00035AA1
:0202FF00033BBF
:02030000015E9C
:0203010001B247
:0203020000A158
:020303000307EE
:020304000235C0
:0203050003F201
:0203060002787B
:0203070000757F
:02030800010CE6
:0203090003D21D
:02030A0000D120
:02030B0000846C
:02030C0003DA12
:02030D000033BB
:02030E00036486
:02030F0003B039
:0203100003CE1A
:0203110002E602
:02031200009257
:0203130000DB0D
:02031400003BAC
:02031500039D46
:02031600005B8A
:020317000040A4
:0203180001865C
:0203190002D709
:02031A00034995
:02031B0002647A
:02031C00001DC2
:02031D0000D806
:02031E00016676
:02031F000307D2
:02032000036771
:0203210000A03A
:020322000138A0
:020323000023B5
:0203240000C116
:0203250002DEF6
:0203260002B221
:0203270000E1F3
:02032800027A57
:0203290000F6DC
:02032A00023C93
:02032B00009B35
:02032C0002CEFF
:02032D0003F8D3
:02032E0003AA20
:02032F0001DBF0
:0203300002ECDD
:0203310003A91E
:02033200014682
:02033300015F68
:0203340001F9CD
:02033500018342
:0203360002D1F2
:020337000121A2
:020338000017AC
:0203390003C1FE
:02033A00009031
:02033B0003605D
:02033C0001704E
:02033D00006955
:02033E00025665
:02033F0001AB10
:02034000014278
:02034100005862
:02034200029027
:0203430003F3C2
:0203440000EFC8
:02034500025460
:02034600015A5A
:02034700039918
:020348000310A0
:0203490002218F
:02034A00038F1F
:02034B0002842A
:02034C00028B22
:02034D0003901B
:02034E0001E4C8
:02034F00023B6F
:0203500001A703
:0203510001A009
:0203520003FDA9
:0203530002F8AE
:02035400012B7B
:02035500019114
:0203560003881A
:0203570002CBD7
:02035800037729
:02035900020997
:02035A00035F3F
:02035B0000B4EC
:02035C0003A5F7
:02035D00022D6F
:02035E0002A5F6
:02035F0003C7D2
:0203600000ABF0
:0203610000C6D4
:0203620003ECAA
:02036300024F47
:02036400007F18
:0203650003682B
:0203660000573E
:0203670000F1A3
:02036800033B55
:020369000198F9
:02036A0002C4CB
:02036B0001D9B6
:02036C00024D40
:02036D0003F299
:02036E0002F695
:02036F0003E2A7
:020370000399EF
:02037100035B2C
:0203720000C3C6
:0203730001C4C3
:0203740000AED9
:02037500002B5B
:02037600033E44
:0203770001443F
:0203780001F48E
:02037900015F22
:02037A0003EE90
:02037B0002641A
:02037C0001DCA2
:02037D0003CBB0
:02037E0001FE7E
:02037F000298E2
:02038000001863
:02038100015227
:02038200017206
:0203830003FD78
:0203840000CFA8
:0203850000185E
:02038600026310
:020387000090E4
:0203880003D69A
:0203890001C1B0
:02038A0000343D
:02038B00016906
:02038C0003EE7E
:02038D0002A8C4
:02038E0000D09D
:02038F0001F675
:0203900001FD6D
:02039100011F4A
:0203920003E97D
:02039300033D28
:02039400005215
:0203950000B1B5
:0203960002392A
:02039700031C45
:0203980001DF83
:02039900015C05
:02039A0000BFA2
:02039B000387D6
:02039C000186D8
:02039D0002E07C
:02039E00000D50
:02039F0001D586
:0203A000015505
:0203A10003FA5D
:0203A2000383D3
:0203A300020155
:0203A40001D581
:0203A50001B4A1
:0203A60000A1B4
:0203A70001F360
:0203A800014E04
:0203A90002AAA6
:0203AA00024D02
:0203AB0000CE82
:0203AC00031438
:0203AD000257F5
:0203AE00001C31
:0203AF00023A10
:0203B00002D673
:0203B1000064E6
:0203B20001A8A0
:0203B30001B493
:0203B40003E95B
:0203B50003F64D
:0203B60001D96B
:0203B70001DE65
:0203B800009EA5
:0203B90003013E
:0203BA00023B04
:0203BB0003D16C
:0203BC000190AE
:0203BD000197A6
:0203BE000250EB
:0203BF000270CA
:0203C00000FD3E
:0203C1000144F5
:0203C20002E453
:0203C30001C374
:0203C40002171E
:0203C500005FD7
:0203C6000167CD
:0203C7000247EB
:0203C8000062D1
:0203C9000164CD
:0203CA000347E7
:0203CB00004FE1
:0203CC00030923
:0203CD000250DC
:0203CE000146E6
:0203CF000358D1
:0203D000003FEC
:0203D10003FC2B
:0203D20002DA4D
:0203D300016EB9
:0203D400009790
:0203D500017BAA
:0203D600018C98
:0203D70002839F
:0203D8000264BD
:0203D9000378A7
:0203DA000055CC
:0203DB0003D548
:0203DC00011D01
:0203DD00039B80
:0203DE00030119
:0203DF00034CCD
:0203E00000BF5C
:0203E10003E631
:0203E200019385
:0203E30002DF37
:0203E400012BEB
:0203E500021FF5
:0203E60003A86A
:0203E70003FC15
:0203E80001947E
:0203E9000333DC
:0203EA0003E02E
:0203EB0002E925
:0203EC0003E02C
:0203ED00029F6D
:0203EE000343C7
:0203EF000232D8
:0203F0000013F8
:0203F10001D633
:0203F20000AD5C
:0203F3000210F6
:0203F40003BB49
:0203F50003B152
:0203F6000036CF
:0203F70003D42D
:0203F8000159A9
:0203F90003D728
:0203FA0002A35C
:0203FB000156A9
:0203FC0003CF2D
:0203FD00022BD1
:0203FE0000D02D
:0203FF00006399
:0204000001CF2A
:0204010001D226
:02040200010FE8
:020403000229CC
:02040400026193
:02040500019163
:02040600022BC7
:020407000139B9
:0204080002559B
:0204090003AA44
:02040A0001F1FE
:02040B00006C83
:02040C0000E806
:02040D0003B634
:02040E0003AB3E
:02040F00021BCE
:0204100002DA0E
:020411000037B2
:0204120002F9ED
:02041300026085
:02041400001EC8
:0204150000578E
:02041600019F44
:0204170000F6ED
:0204180001C51C
:0204190001E1FF
:02041A00017F60
:02041B00033CA0
:02041C000013CB
:02041D00035D7D
:02041E0002D109
:02041F00027D5C
:0204200000C911
:02042100026F68
:02042200027D59
:02042300025382
:02042400019D38
:02042500025281
:0204260000B321
:02042700034B85
:0204280002E5EB
:0204290002933C
:02042A0003A528
:02042B0001A925
:02042C00026B61
:02042D0001F0DC
:02042E00027258
:02042F00006566
:02043000026E5A
:02043100016167
:02043200004583
:02043300004B7C
:0204340000D0F6
:0204350003586A
:02043600039031
:02043700034779
:02043800027050
:02043900031DA1
:02043A00017F40
:02043B0003E2DA
:02043C0002AE0E
:02043D0000605D
:02043E00018D2E
:02043F0000DFDC
:02044000030FA8
:0204410002E8CF
:02044200014275
:020443000103B3
:0204440003179C
:0204450002763D
:02044600001C98
:020447000309A7
:02044800004171
:0204490002C5EA
:02044A00039815
:02044B0001B7F7
:02044C00021B91
:02044D0003B4F6
:02044E00036940
:02044F00001992
:02045000029018
:02045100019216
:0204520001CDDA
:0204530001DFC7
:02045400025153
:0204550001950F
:0204560000079D
:0204570003E8B8
:02045800015D44
:02045900026D32
:02045A0003039A
:02045B0000E4BB
:02045C0003B8E3
:02045D0000FDA0
:02045E00000F8D
:02045F00022079
:0204600002395F
:02046100013662
:0204620001C9CE
:02046300007126
:02046400038013
:0204650003137F
:0204660001177C
:02046700013E54
:0204680001078A
:0204690003B5D9
:02046A0002543A
:02046B0003B0DC
:02046C00005935
:02046D00029FEC
:02046E000291F9
:02046F0001FB8F
:02047000006525
:02047100031076
:0204720000F692
:0204730002C9BC
:0204740002EE96
:02047500017F05
:0204760000483C
:0204770002C4BD
:02047800021F61
:0204790001324E
:02047A00008000
:02047B00023944
:02047C00023448
:02047D0001EF8D
:02047E000090EC
:02047F0002DE9B
:02048000034532
:0204810001D2A6
:02048200003147
:0204830001ADC9
:02048400032D46
:0204850003353D
:0204860001E093
:0204870000E48F
:02048800038DE2
:0204890002BCB3
:02048A0000E888
:02048B00021756
:02048C0003E487
:02048D000179F3
:02048E00038BDE
:02048F0000610A
:0204900003CB9C
:02049100032244
:02049200014B1C
:0204930002AFB6
:02049400014025
:020495000073F2
:02049600014023
:0204970002223F
:0204980003154A
:020499000193CD
:02049A000094CC
:02049B00008DD2
:02049C00036FEC
:02049D0000A5B8
:02049E00010F4C
:02049F00030A4E
:0204A0000264F4
:0204A1000064F5
:0204A20003C095
:0204A30000A4B3
:0204A40000ABAB
:0204A50002DF74
:0204A60003B998
:0204A700012032
:0204A8000265EB
:0204A90000440D
:0204AA0000E46C
:0204AB0003D17B
:0204AC0002014B
:0204AD0001CC80
:0204AE0002F258
:0204AF000292B7
:0204B000033116
:0204B10000B297
:0204B2000059EF
:0204B30000C681
:0204B40001F84D
:0204B5000149FB
:0204B600016FD4
:0204B7000277CA
:0204B80001C978
:0204B90002211E
:0204BA000395A8
:0204BB00038BB1
:0204BC0000C27C
:0204BD000346F4
:0204BE000078C4
:0204BF00030830
:0204C00002F543
:0204C100018DAB
:0204C2000169CE
:0204C300026EC7
:0204C40001CD68
:0204C50001FE36
:0204C60002C46E
:0204C70001280A
:0204C8000378B7
:0204C9000149E7
:0204CA000372BB
:0204CB00000E21
:0204CC00027AB2
:0204CD000352D8
:0204CE000074B8
:0204CF0000FA31
:0204D000013EEB
:0204D10002D354
:0204D200008B9D
:0204D300026FB6
:0204D40001C560
:0204D50001081C
:0204D60003EA37
:0204D7000356CA
:0204D8000169B8
:0204D9000176AA
:0204DA0000031D
:0204DB0002C657
:0204DC0000A975
:0204DD0001C359
:0204DE00035CBD
:0204DF0003E92F
:0204E000030C0B
:0204E100019583
:0204E200017B9C
:0204E30001E333
:0204E4000319FA
:0204E500029083
:0204E60002E52D
:0204E70003D937
:0204E8000253BD
:0204E900005EB3
:0204EA000127E8
:0204EB0000FF10
:0204EC000158B5
:0204ED0000C449
:0204EE0002F416
:0204EF0000B952
:0204F00003FF08
:0204F10003D135
:0204F2000055B3
:0204F30002CC39
:0204F400018F76
:0204F5000012F3
:0204F60002E220
:0204F70003A060
:0204F8000105FC
:0204F90002DF20
:0204FA000210EE
:0204FB0000906F
:0204FC00016697
:0204FD0000AC51
:0204FE00038F6A
:0204FF000048B3
:020500000224D3
:0205010001797E
:0205020003AF45
:020503000336BD
:02050400038F63
:020505000140B3
:0205060001DD15
:020507000003EF
:0205080003539B
:02050900007B75
:02050A00012CC2
:02050B00001ED0
:02050C00010CE0
:02050D0000B834
:02050E0000E506
:02050F00005991
:0205100002DC0B
:020511000135B2
:02051200012DB9
:02051300018C59
:020514000216CD
:02051500039051
:0205160003B729
:02051700014998
:0205180003FBE3
:02051900007F61
:02051A00007F60
:02051B00029F3D
:02051C00027863
:02051D00009E3E
:02051E00029841
:02051F0002E5F3
:0205200000F9E0
:0205210001399E
:020522000100D6
:02052300029B39
:0205240001488C
:0205250001379C
:02052600038848
:02052700024987
:02052800007958
:020529000204CA
:02052A0003C20A
:02052B00037A51
:02052C0003DDED
:02052D00008745
:02052E0001FFCB
:02052F0001B613
:020530000205C2
:02053100022D99
:0205320002576E
:02053300039330
:0205340003D5ED
:0205350001F9CA
:0205360001BD05
:0205370003C6F9
:02053800019828
:02053900019D22
:02053A00031F9D
:02053B00024A72
:02053C00002994
:02053D0002A812
:02053E0000912A
:02053F00018C2D
:02054000022196
:0205410003B302
:02054200008037
:0205430003A40F
:0205440001159F
:0205450001A310
:0205460002F8B9
:02054700039619
:0205480002D9D6
:0205490000F2BE
:02054A0002EBC2
:02054B0002A408
:02054C0002D1DA
:02054D0002FEAC
:02054E00038820
:02054F0001A108
:02055000035056
:02055100036A3B
:02055200019B0B
:02055300025B49
:0205540002F6AD
:0205550001861D
:0205560000F7AC
:0205570000FFA3
:0205580002257A
:0205590001BEE1
:02055A0001E9B5
:02055B00019409
:02055C00007726
:02055D00031485
:02055E0002BADF
:02055F00017E1B
:02056000024156
:0205610000ABED
:02056200012D69
:0205630000FE98
:02056400021D76
:02056500034E43
:02056600001A79
:0205670000D1C1
:0205680002840B
:02056900030C81
:02056A0001018D
:02056B0003C0CB
:02056C00036822
:02056D0000D7B5
:02056E0001AFDB
:02056F00004F3B
:0205700003DAAC
:02057100002D5B
:0205720001E89E
:0205730002651F
:0205740003BFC3
:0205750000CCB8
:02057600011F63
:0205770001047D
:020578000187F9
:02057900006B15
:02057A00002F50
:02057B00000975
:02057C0003EB8F
:02057D00007EFE
:02057E00032355
:02057F0001F287
:0205800003BABC
:02058100000177
:02058200030272
:0205830001AEC7
:0205840001A9CB
:02058500014D26
:0205860003A7C9
:020587000076FC
:02058800002E43
:0205890003F37A
:02058A00019CD2
:02058B0003AEBD
:02058C00016309
:02058D0002A1C9
:02058E0000016A
:02058F0002C7A1
:0205900000EA7F
:02059100010B5C
:02059200027AEB
:02059300013530
:0205940001E57F
:0205950001DF84
:0205960003253B
:02059700006101
:0205980000EB76
:0205990000C39D
:02059A000092CD
:02059B0001ABB2
:02059C00020952
:02059D0000510B
:02059E0003CC8C
:02059F00006CEE
:0205A00002CA8D
:0205A100002533
:0205A2000260F5
:0205A300000650
:0205A400004411
:0205A50002EC66
:0205A6000074DF
:0205A70001F65B
:0205A800012E22
:0205A900007AD6
:0205AA0002DA73
:0205AB0003F05B
:0205AC0003FF4B
:0205AD0003EA5F
:0205AE00013416
:0205AF0001FF4A
:0205B000010F39
:0205B10001C285
:0205B20000192E
:0205B30000B096
:0205B40000C085
:0205B500022121
:0205B6000345FB
:0205B700033D02
:0205B80001B28E
:0205B90002EC52
:0205BA0003C973
:0205BB0001C677
:0205BC0002F843
:0205BD00020B2F
:0205BE000248F1
:0205BF00038EA9
:0205C0000254E3
:0205C10003AA8B
:0205C200013600
:0205C3000136FF
:0205C400027DB6
:0205C5000076BE
:0205C600031F11
:0205C700030D22
:0205C800016AC6
:0205C90003F23B
:0205CA0000F639
:0205CB00035DCE
:0205CC00029D8E
:0205CD0002C06A
:0205CE000065C6
:0205CF0000B971
:0205D000017DAB
:0205D100010126
:0205D2000227FE
:0205D3000061C5
:0205D40003B171
:0205D50000A77D
:0205D6000065BE
:0205D700009989
:0205D80003809E
:0205D90003E439
:0205DA00011FFF
:0205DB00031506
:0205DC000239E2
:0205DD00038990
:0205DE0000908B
:0205DF000362B5
:0205E00002A176
:0205E10001799E
:0205E20003A074
:0205E3000155C0
:0205E4000363AF
:0205E500031BF6
:0205E600025AB7
:0205E70003858A
:0205E80001868A
:0205E90003D23B
:0205EA000265A8
:0205EB0001C14C
:0205EC0002EF1C
:0205ED00037E8B
:0205EE00018387
:0205EF0003996E
:0205F00000E029
:0205F10000FB0D
:0205F2000016F1
:0205F30002DB29
:0205F400027D86
:0205F50000AF55
:0205F60003A957
:0205F7000224DC
:0205F800035DA1
:0205F9000311EC
:0205FA0001817D
:0205FB00036D8E
:0205FC000217E4
:0205FD000342B7
:0205FE00012FCB
:0205FF0002A256
:0206000002DC1A
:02060100019E58
:020602000329CA
:02060300003ABB
:02060400020EE4
:02060500025F92
:02060600036689
:0206070003D618
:0206080002E20C
:020609000037B8
:02060A000001ED
:02060B0002E407
:02060C000203E7
:02060D0002FAEF
:02060E0003E106
:02060F0003499D
:02061000003EAA
:0206110002479E
:02061200016283
:020613000208DB
:02061400012BB8
:020615000034AF
:020616000106DB
:0206170001FAE6
:0206180001E2FD
:020619000006D9
:02061A000028B6
:02061B00027C5F
:02061C0003AF2A
:02061D0000E5F6
:02061E0003B522
:02061F00022DAA
:0206200002D006
:02062100009641
:0206220002EAEA
:0206230001AC28
:020624000131A2
:02062500023F92
:020626000212BE
:02062700025778
:02062800012EA1
:02062900012AA4
:02062A00014F7E
:02062B000113B9
:02062C00005E6E
:02062D0003893F
:02062E00035E69
:02062F000116B2
:02063000025B6B
:0206310001497D
:0206320000695D
:0206330002B40F
:0206340003922F
:0206350002DBE6
:0206360000D5ED
:0206370002338C
:020638000017A9
:02063900000FB0
:02063A00001AA4
:02063B0002A01B
:02063C00027941
:02063D0002E7D2
:02063E0003981F
:02063F0000AA0F
:0206400002A214
:02064100027243
:0206420001783D
:02064300017B39
:0206440000B004
:0206450001B101
:02064600038629
:0206470001A10F
:0206480003DAD3
:02064900027538
:02064A00021E8E
:02064B0003EAC0
:02064C00015655
:02064D00004764
:02064E00030B9C
:02064F00005554
:02065000034263
:0206510003554F
:0206520000772F
:0206530002F8AB
:02065400039011
:02065500035A46
:0206560003D9C6
:0206570002F3AC
:0206580002F7A7
:02065900029607
:02065A0000E5B9
:02065B0001613B
:02065C0003E8B1
:02065D0000BCDF
:02065E00008614
:02065F00004E4B
:02066000018215
:0206610001F2A4
:0206620003D1C2
:0206630001B3E1
:02066400029101
:0206650001C4CE
:0206660003058A
:0206670002731C
:02066800008907
:02066900022766
:02066A00008C02
:02066B00015636
:02066C00028703
:02066D00027D0C
:02066E0003F790
:02066F00021572
:02067000005533
:020671000293F2
:02067200010C79
:0206730000592C
:02067400017310
:0206750001B1D1
:0206760002C7B9
:0206770002C7B8
:02067800002060
:02067900019FDF
:02067A00026D0F
:02067B00020F6C
:02067C00006814
:02067D0001B7C3
:02067E000295E3
:02067F0003F97D
:02068000033441
:0206810001F482
:02068200023F35
:020683000279FA
:02068400015E15
:0206850002076A
:0206860003E48B
:0206870002C2AD
:0206880002C6A8
:02068900006E01
:02068A000092DC
:02068B00006409
:02068C00016CFF
:02068D00018EDC
:02068E00030364
:02068F00006009
:02069000008DDB
:0206910002CF96
:0206920002BEA6
:02069300004C19
:0206940003C1A0
:0206950001BCA6
:0206960003322D
:020697000171EF
:02069800021945
:02069900032438
:02069A0002DF7D
:02069B0003EF6B
:02069C00014B10
:02069D00024217
:02069E000277E1
:02069F0001E276
:0206A00000D088
:0206A10003E074
:0206A20000074F
:0206A300028FC4
:0206A400011340
:0206A5000183CF
:0206A60002232D
:0206A7000189C7
:0206A800029DB1
:0206A900009CB3
:0206AA00031338
:0206AB0001E468
:0206AC0001410A
:0206AD0001AE9C
:0206AE00000248
:0206AF000164E4
:0206B000034DF8
:0206B1000388BC
:0206B200002F17
:0206B30003AE94
:0206B40000C282
:0206B5000276CB
:0206B60000271B
:0206B7000183BD
:0206B8000284BA
:0206B9000377C5
:0206BA0000F747
:0206BB0003EF4B
:0206BC000197A4
:0206BD000378C0
:0206BE000367D0
:0206BF00038CAA
:0206C0000257DF
:0206C100028BAA
:0206C2000337FC
:0206C30003B87A
:0206C40003B77A
:0206C500032D03
:0206C600025DD3
:0206C70001D957
:0206C8000280AE
:0206C900017CB2
:0206CA000043EB
:0206CB00009B92
:0206CC0000909C
:0206CD000280A9
:0206CE00011019
:0206CF000332F4
:0206D000002404
:0206D100036EB6
:0206D20000E442
:0206D30000A481
:0206D40003160B
:0206D50000EE35
:0206D6000329F6
:0206D700030E10
:0206D800022FEF
:0206D9000265B8
:0206DA0001D647
:0206DB0002EF2C
:0206DC000066B6
:0206DD00013DDD
:0206DE0000BA60
:0206DF000271A6
:0206E0000239DD
:0206E1000036E1
:0206E20000D046
:0206E30000BC59
:0206E40000F123
:0206E50002B25F
:0206E600038887
:0206E7000143CD
:0206E80001FA15
:0206E900000B04
:0206EA00021CF0
:0206EB000318F2
:0206EC000231D9
:0206ED0002DF2A
:0206EE0000E228
:0206EF00003ECB
:0206F000013CCB
:0206F100006D9A
:0206F20002A65E
:0206F300010103
:0206F40000DF25
:0206F50003E41C
:0206F60003FA05
:0206F700034FAF
:0206F8000056AA
:0206F90001C638
:0206FA00029A62
:0206FB000211EA
:0206FC0003AE4B
:0206FD000339BF
:0206FE0000BC3E
:0206FF00008475
:020700000323D1
:02070100016D88
:0207020000787D
:02070300019F54
:02070400027E73
:0207050000F3FF
:020706000321CD
:02070700036A83
:0207080000737C
:020709000125C8
:02070A0000A746
:02070B00026486
:02070C000208E1
:02070D00038166
:02070E0002FBEC
:02070F0000E701
:0207100001F4F2
:020711000313D0
:0207120001756F
:02071300028B57
:020714000008DB
:0207150003DB04
:020716000038A9
:02071700038F4E
:0207180000924D
:020719000230AC
:02071A00039A40
:02071B00003F9D
:02071C0003CC0C
:02071D00022EAA
:02071E00039145
:02071F00006078
:02072000014294
:020721000320B3
:02072200031DB5
:02072300029E34
:0207240003428E
:0207250002EBE5
:0207260003B31B
:0207270003F4D9
:02072800024786
:0207290001804D
:02072A0000AF1E
:02072B000324A5
:02072C00006A61
:02072D00004981
:02072E0002C502
:02072F00001FA9
:0207300000D4F3
:02073100019D28
:02073200036F53
:02073300037C45
:02073400032F91
:02073500003290
:0207360000675A
:0207370001EDD2
:02073800031F9D
:0207390002922A
:02073A000315A5
:02073B0003B405
:02073C0003B305
:02073D00029226
:02073E00000CAD
:02073F000016A2
:0207400002DDD8
:0207410000CAEC
:02074200028033
:0207430000DBD9
:0207440000F0C3
:02074500000FA3
:0207460003BFEF
:0207470001C3EC
:0207480000159A
:0207490000EAC4
:02074A0002ADFE
:02074B000003A9
:02074C0003CBDD
:02074D00011B8E
:02074E00034165
:02074F0001C3E4
:02075000006245
:02075100031291
:0207520002049F
:02075300019C07
:02075400027928
:02075500017130
:02075600038F0F
:02075700021787
:02075800028419
:02075900028913
:02075A00000D90
:02075B0001306B
:02075C00004754
:02075D0003E0B7
:02075E0002BDDA
:02075F0003D7BE
:02076000025D38
:0207610001B5E0
:0207620001781C
:0207630001781B
:0207640001BCD6
:02076500027E12
:02076600003160
:02076700037B12
:02076800013856
:02076900027814
:02076A0000820B
:02076B0000CFBD
:02076C00010F7B
:02076D00032760
:02076E00012D5B
:02076F00017017
:02077000026F16
:0207710002E0A4
:0207720001ACD8
:0207730001F093
:0207740002FD84
:0207750000572B
:0207760001B6CA
:02077700030578
:0207780000641B
:02077900022557
:02077A0000CCB1
:02077B00011269
:02077C0003E296
:02077D0002591F
:02077E0001C9AF
:02077F0003B4C1
:0207800001D0A6
:02078100020470
:02078200026B08
:02078300015221
:0207840001353D
:0207850000C6AC
:0207860002E788
:0207870002ABC3
:02078800035715
:0207890000620C
:02078A000175F7
:02078B00026901
:02078C00034721
:02078D00004D1D
:02078E0001E781
:02078F0000B1B7
:02079000017AEC
:02079100014124
:0207920001362E
:0207930002B7AB
:0207940003550B
:0207950000D191
:02079600011B45
:0207970002530B
:0207980002C994
:0207990000FF5F
:02079A0003A2B8
:02079B000194C7
:02079C0001E377
:02079D0003CE89
:02079E0002C196
:02079F00025BFB
:0207A0000266EF
:0207A10002DF75
:0207A20003EE64
:0207A30001ED66
:0207A4000162F0
:0207A50003054A
:0207A60003B896
:0207A7000090C0
:0207A80002CD80
:0207A90003DF6C
:0207AA000163E9
:0207AB00012526
:0207AC00011E2C
:0207AD000375D2
:0207AE00027FC8
:0207AF0000BF89
:0207B00000E562
:0207B10001CF76
:0207B2000287BC
:0207B3000245FD
:0207B400006ED5
:0207B5000095AD
:0207B600027AC5
:0207B700020737
:0207B8000357E5
:0207B90002AD8F
:0207BA00007DC0
:0207BB000166D5
:0207BC00023108
:0207BD0003D661
:0207BE000379BD
:0207BF000269CD
:0207C000022213
:0207C100004AEC
:0207C20002B77C
:0207C3000365CC
:0207C4000081B2
:0207C5000060D2
:0207C6000184AC
:0207C700029A94
:0207C800027BB2
:0207C900002905
:0207CA0002D457
:0207CB0001D655
:0207CC0000B279
:0207CD0003180F
:0207CE0000E346
:0207CF0002170F
:0207D00002E342
:0207D10003A281
:0207D20000D84D
:0207D3000332EF
:0207D400038A96
:0207D50002E33D
:0207D600026AB5
:0207D7000374A9
:0207D800038498
:0207D9000044DA
:0207DA00038793
:0207DB00034CCD
:0207DC0001B961
:0207DD000121F8
:0207DE0003FB1B
:0207DF0000ED2B
:0207E00002C253
:0207E1000070A6
:0207E2000115FF
:0207E30003F918
:0207E400008D86
:0207E500026AA6
:0207E6000150C0
:0207E700012BE4
:0207E800020EFF
:0207E9000033DB
:0207EA0003FE0C
:0207EB0001FC0F
:0207EC0002DF2A
:0207ED00038582
:0207EE0000F118
:0207EF00004FB9
:0207F00002F312
:0207F1000259AB
:0207F2000024E1
:0207F300021FE3
:0207F400023CC5
:0207F50002956B
:0207F600016C94
:0207F7000128D7
:0207F8000059A6
:0207F90001B746
:0207FA00001EDF
:0207FB00029466
:0207FC000044B7
:0207FD00008179
:0207FE0002C433
:0207FF0002AC4A
:00000001ff
