:020000040000FA
:020000000004FA
:0200010001FB01
:0200020000D329
:02000300006B90
:02000400000DED
:0200050002B047
:02000600034BAA
:02000700014CAA
:020008000123D2
:0200090000E411
:02000A000102F1
:02000B00012AC8
:02000C000129C8
:02000D0001F8F8
:02000E0002D618
:02000F0002816C
:02001000007E70
:02001100028467
:0200120001F7F4
:02001300017971
:02001400029A4E
:0200150003974F
:020016000136B1
:0200170000B334
:0200180001CB1A
:0200190000D510
:02001A0000FCE8
:02001B0002835E
:02001C000128B9
:02001D00029D42
:02001E000111CE
:02001F0001D40A
:02002000000ED0
:02002100038C4E
:0200220003A732
:020023000237A2
:0200240002A137
:0200250000FEDB
:02002600014C8B
:0200270002C114
:020028000326AD
:02002900024D86
:02002A0001A132
:02002B0003BC14
:02002C00001DB5
:02002D0002F3DC
:02002E0000EDE3
:02002F00033498
:02003000036566
:0200310003A921
:0200320002E1E9
:0200330000DEED
:0200340002B513
:020035000321A5
:0200360002F9CD
:0200370001B90D
:020038000220A4
:0200390002DBE8
:02003A00034C75
:02003B00005B68
:02003C00015C65
:02003D000109B7
:02003E0002902E
:02003F0002AA13
:0200400000D0EE
:02004100007C41
:02004200027743
:02004300024574
:02004400039720
:0200450003D2E4
:0200460003AF06
:0200470000DDDA
:0200480003C6ED
:02004900015460
:02004A0000D7DD
:02004B0001EDC5
:02004C00028927
:02004D0000FEB3
:02004E00022589
:02004F00038C20
:0200500001BBF2
:02005100028427
:02005200036C3D
:02005300001794
:0200540000D2D8
:02005500012484
:02005600027234
:0200570002B2F3
:02005800032E75
:02005900035C46
:02005A0003B7EA
:02005B0000BBE8
:02005C0001E0C1
:02005D0000AEF3
:02005E0003DBC2
:02005F00027E1F
:02006000034952
:0200610003D8C2
:02006200000F8D
:02006300018515
:0200640002FA9E
:0200650003E7AF
:02006600000C8C
:02006700031E76
:0200680000791D
:0200690002DDB6
:02006A0000484C
:02006B0001CFC3
:02006C00038D02
:02006D00009EF3
:02006E00032865
:02006F0000741B
:0200700001127B
:02007100010A82
:0200720000206C
:02007300021D6C
:02007400033156
:02007500005831
:0200760003D1B4
:0200770001A2E4
:0200780000295D
:0200790000BCC9
:02007A00005133
:02007B00003A49
:02007C0002E799
:02007D0000BAC7
:02007E0000E799
:02007F00025D20
:0200800000C1BD
:02008100017408
:0200820000A0DC
:02008300025C1D
:0200840003D2A5
:02008500007900
:0200860003561F
:02008700004F28
:020088000181F4
:0200890000AFC6
:02008A0000AFC5
:02008B0002ED84
:02008C0000F87A
:02008D00021659
:02008E0000EA86
:02008F0001244A
:02009000013736
:02009100002449
:02009200034B1E
:02009300004427
:0200940002CE9A
:0200950002C1A6
:02009600020B5B
:0200970002BBAA
:02009800011A4B
:0200990001CB99
:02009A0003F36E
:02009B000375EB
:02009C0003312E
:02009D0003540A
:02009E0003AAB3
:02009F00020657
:0200A00000ADB1
:0200A10000CD90
:0200A200010259
:0200A30003E078
:0200A400028DCB
:0200A5000361F5
:0200A6000093C5
:0200A70002F263
:0200A80000A2B4
:0200A90003EA68
:0200AA0002084A
:0200AB0002143D
:0200AC0003E26D
:0200AD0002FF50
:0200AE0001A8A7
:0200AF0003D478
:0200B000024507
:0200B10001A4A8
:0200B20001A4A7
:0200B300003417
:0200B40000B397
:0200B50003380E
:0200B60003D86D
:0200B70001FD49
:0200B80003C77C
:0200B9000170D4
:0200BA0000C183
:0200BB00008AB9
:0200BC0000281A
:0200BD0003122C
:0200BE00006ED2
:0200BF0002B38A
:0200C0000350EB
:0200C100025EDD
:0200C200025BDF
:0200C30003EF49
:0200C40001B584
:0200C500001722
:0200C600012512
:0200C7000081B6
:0200C800034EE5
:0200C90000270E
:0200CA0003230E
:0200CB0001DC56
:0200CC000383AC
:0200CD0000FC35
:0200CE0000FE32
:0200CF000043EC
:0200D00001B974
:0200D10002C269
:0200D2000374B5
:0200D30002EB3E
:0200D400039D8A
:0200D50003B670
:0200D6000180A7
:0200D70003CE56
:0200D8000278AC
:0200D90002D152
:0200DA000033F1
:0200DB0000899A
:0200DC0000EA38
:0200DD00022FF0
:0200DE0001A27D
:0200DF0001A17D
:0200E000025EBE
:0200E100029289
:0200E2000047D5
:0200E30001A476
:0200E40001BF5A
:0200E50001799F
:0200E6000060B8
:0200E700019B7B
:0200E80000DB3B
:0200E9000355BD
:0200EA0000C153
:0200EB000061B2
:0200EC000216FA
:0200ED00036EA0
:0200EE0000CB45
:0200EF00027F8E
:0200F00001FF0E
:0200F1000313F7
:0200F2000112F9
:0200F3000022E9
:0200F400028088
:0200F50001D236
:0200F600007C8C
:0200F70002FD08
:0200F8000154B1
:0200F900006A9B
:0200FA0003867B
:0200FB0001C53D
:0200FC00039768
:0200FD000049B8
:0200FE0003906D
:0200FF00031EDE
:020100000039C4
:02010100016299
:0201020003F404
:0201030001DB1E
:020104000340B6
:02010500004CAC
:0201060002E411
:02010700007185
:0201080003B240
:02010900028D65
:02010A0003EB05
:02010B00019B56
:02010C000236B9
:02010D00030FDE
:02010E000226C7
:02010F000025C9
:02011000025C8F
:0201110000C824
:020112000023C8
:0201130003F3F4
:0201140000A544
:0201150001A740
:02011600039351
:0201170002558F
:02011800035E84
:0201190003D60B
:02011A0002DD04
:02011B0003CB14
:02011C00007869
:02011D00038855
:02011E0002C21B
:02011F00016479
:02012000028556
:02012100037C5D
:02012200024396
:0201230003EDEA
:020124000317BF
:0201250002676F
:020126000309CB
:0201270003359E
:0201280000BE17
:02012900039D34
:02012A00008F44
:02012B0003A728
:02012C0002F9D6
:02012D00013996
:02012E00006B64
:02012F0000933B
:02013000026962
:02013100021AB0
:020132000203C6
:02013300017C4D
:0201340003A026
:020135000220A6
:020136000015B2
:0201370000DFE7
:020138000302C0
:02013900030EB3
:02013A0002833E
:02013B0002C8F8
:02013C000017AA
:02013D00007D43
:02013E0002D3EA
:02013F0001C4F9
:0201400002D2E9
:02014100016457
:0201420001DAE0
:02014300009F1B
:02014400014870
:0201450001B007
:02014600012294
:02014700037D36
:0201480000674E
:02014900027E34
:02014A00028F22
:02014B0002D3DD
:02014C0002327D
:02014D00038429
:02014E0000E0CF
:02014F0002EAC2
:0201500000238A
:02015100004567
:02015200039D0B
:02015300026E3A
:02015400005554
:0201550003B3F2
:02015600011D89
:0201570002CBD9
:0201580000168F
:0201590000EBB9
:02015A00015250
:02015B0000F1B1
:02015C0002910E
:02015D0003AEEF
:02015E00000897
:02015F00013A63
:02016000024F4C
:02016100036534
:02016200014C4E
:02016300012F6A
:02016400003D5C
:0201650003563F
:0201660002C4D1
:0201670001E9AC
:02016800030290
:0201690002E4AE
:02016A0000BBD8
:02016B0001D7BA
:02016C0001751B
:02016D00008E02
:02016E0001ABE3
:02016F0000BAD4
:0201700002EF9C
:02017100029CEE
:0201720003196F
:0201730000AAE0
:02017400006821
:02017500003355
:0201760002A2E3
:0201770002FA8A
:02017800012A5A
:0201790001C6BD
:02017A00020B76
:02017B0003E798
:02017C0001FD83
:02017D0003B5C8
:02017E00014D31
:02017F0003EE8D
:0201800001C3B9
:02018100021763
:0201820001700A
:0201830001B8C1
:02018400026017
:02018500008BED
:02018600034034
:020187000393E0
:0201880000E491
:02018900011162
:02018A0000B5BE
:02018B00036906
:02018C00000170
:02018D0000DD93
:02018E00002946
:02018F0000323C
:0201900003B4B6
:02019100022D3D
:02019200003932
:0201930003EC7B
:02019400012D3B
:02019500021D49
:02019600037BE9
:02019700010C59
:0201980002075C
:020199000186DD
:02019A0002F66B
:02019B000290D0
:02019C0001D28E
:02019D0003F766
:02019E00027EDF
:02019F0001A7B6
:0201A00000FD60
:0201A10003DB7E
:0201A200020059
:0201A300001545
:0201A400004A0F
:0201A50002E274
:0201A60002D77E
:0201A700026BE9
:0201A80003D181
:0201A90001CA89
:0201AA00004C07
:0201AB00012B26
:0201AC0000C48D
:0201AD0002ACA2
:0201AE000262EB
:0201AF0000034B
:0201B000010547
:0201B10000EB61
:0201B200020940
:0201B300024206
:0201B40003CD79
:0201B50001F94E
:0201B60001FA4C
:0201B70003B093
:0201B800027FC4
:0201B90002172B
:0201BA000351EF
:0201BB0001033E
:0201BC0000DB66
:0201BD00004000
:0201BE00012B13
:0201BF00031526
:0201C00003D169
:0201C1000080BC
:0201C2000274C5
:0201C300002416
:0201C400021B1C
:0201C50003EA4B
:0201C600012214
:0201C700024EE6
:0201C80001E84C
:0201C9000163D0
:0201CA00022110
:0201CB00027FB1
:0201CC0002D956
:0201CD0002949A
:0201CE00012806
:0201CF000332F9
:0201D0000385A5
:0201D1000039F3
:0201D20003C95F
:0201D300022800
:0201D40001DB4D
:0201D500011D0A
:0201D60002F92C
:0201D7000074B2
:0201D80001AE76
:0201D900030D14
:0201DA000267BA
:0201DB000030F2
:0201DC0000A978
:0201DD0001150A
:0201DE0000EB34
:0201DF00030F0C
:0201E000030B0F
:0201E100024ECC
:0201E2000166B4
:0201E3000145D4
:0201E400008495
:0201E50000A771
:0201E6000369AB
:0201E700000214
:0201E80000799C
:0201E90002F022
:0201EA0002F819
:0201EB0002E42C
:0201EC000120F0
:0201ED00018A85
:0201EE0002CD40
:0201EF0003C04B
:0201F00000C14C
:0201F100011FEC
:0201F200007794
:0201F300001FEB
:0201F400008C7D
:0201F50002C244
:0201F60001BA4C
:0201F70003DA29
:0201F800005FA6
:0201F90000D82C
:0201FA0002976A
:0201FB00002ED4
:0201FC0002E51A
:0201FD00003BC5
:0201FE00036399
:0201FF0002C537
:02020000018279
:0202010000FCFF
:020202000257A1
:02020300000BEE
:02020400036A8B
:02020500022FC6
:020206000012E4
:020207000055A0
:02020800035C95
:020209000041B2
:02020A00026E82
:02020B000338B6
:02020C00037A73
:02020D000134BA
:02020E00012CC1
:02020F0000915C
:0202100002A149
:02021100024B9E
:0202120003DF08
:0202130002B037
:0202140002CA1C
:0202150002994C
:02021600009F47
:020217000123C1
:0202180003E7FA
:0202190001E200
:02021A0002F1EF
:02021B00039846
:02021C0002BB23
:02021D00035F7D
:02021E00026874
:02021F00005B82
:020220000324B5
:0202210003D800
:02022200008456
:0202230001EEEA
:02022400016770
:02022500029540
:02022600014491
:0202270003379B
:0202280001F8DB
:0202290000B221
:02022A000204CC
:02022B0001D9F7
:02022C00034588
:02022D00025D70
:02022E00021BB1
:02022F00023695
:02023000010AC1
:02023100017852
:0202320000CA00
:02023300009D2C
:0202340000C602
:02023500013F87
:020236000010B6
:02023700034181
:0202380002C5FD
:02023900026E53
:02023A0003DDE2
:02023B00007B46
:02023C00036B52
:02023D00038339
:02023E00014974
:02023F0000E8D5
:02024000003488
:0202410000A219
:02024200014E6B
:0202430000FABF
:020244000012A6
:0202450002B104
:0202460002A90B
:02024700018C28
:0202480002B3FF
:02024900014D65
:02024A00026C44
:02024B0003119D
:02024C0002436B
:02024D00031A92
:02024E0002D6D6
:02024F0002F6B5
:02025000034D5C
:02025100001992
:02025200002189
:0202530002CDDA
:02025400024660
:02025500019412
:0202560002BBE9
:0202570000E2C3
:0202580002732F
:0202590003415F
:02025A0002AFF1
:02025B0001D4CC
:02025C0001ACF3
:02025D00013B63
:02025E0003BDDE
:02025F0002D5C6
:0202600000BAE2
:02026100026930
:0202620001D7C2
:02026300002574
:0202640003D5C0
:02026500030292
:02026600019401
:02026700038012
:0202680002FD95
:0202690002C4CD
:02026A00004D45
:02026B00020F80
:02026C0001BDD2
:02026D00028D00
:02026E00037B10
:02026F00018A02
:02027000020E7C
:0202710000F398
:02027200030384
:02027300003851
:0202740001FE89
:020275000189FD
:02027600021D67
:0202770003641E
:0202780003B9C8
:02027900027F02
:02027A0002750B
:02027B00000978
:02027C0003AFCE
:02027D00003C43
:02027E00013C41
:02027F00014C30
:02028000007C00
:0202810002A5D4
:0202820001CBAE
:02028300007EFB
:02028400003840
:0202850003C2B2
:020286000198DD
:02028700024B28
:0202880002EB87
:02028900036C04
:02028A00011061
:02028B0000D1A0
:02028C0001CDA2
:02028D0003B0BC
:02028E00012647
:02028F00024625
:02029000030663
:0202910001AAC0
:02029200013732
:0202930003E87E
:0202940001A5C2
:020295000274F1
:0202960000F76F
:0202970000E184
:020298000172F1
:0202990003F070
:02029A0002263A
:02029B0000E180
:02029C00026EF0
:02029D00011B43
:02029E0001B7A6
:02029F00021744
:0202A0000398C1
:0202A10001A0BA
:0202A200002C2E
:0202A300025106
:0202A40000C593
:0202A500006AED
:0202A60000D87E
:0202A70002E76C
:0202A800033E13
:0202A90000E271
:0202AA0003BE91
:0202AB00033E10
:0202AC0000D878
:0202AD00029FAE
:0202AE0001DB72
:0202AF00019AB2
:0202B000014803
:0202B100034305
:0202B2000375D2
:0202B30001ED5B
:0202B4000178CF
:0202B500023D08
:0202B6000058EE
:0202B700027AC9
:0202B8000084C0
:0202B900022A17
:0202BA000191B0
:0202BB0001F050
:0202BC00023608
:0202BD0003A993
:0202BE000091AD
:0202BF0002D764
:0202C00002B189
:0202C1000146F4
:0202C200035ADD
:0202C30003F73F
:0202C40003171E
:0202C5000051E6
:0202C6000185B0
:0202C700018BA9
:0202C80002E34F
:0202C9000261D0
:0202CA0001E44D
:0202CB0003022C
:0202CC0001BF70
:0202CD000341EB
:0202CE000081AD
:0202CF00010725
:0202D000019D8E
:0202D100030721
:0202D20000BD6D
:0202D30003A680
:0202D40000D058
:0202D500002FF8
:0202D6000357CC
:0202D700003CE9
:0202D80003F130
:0202D9000164BE
:0202DA00002200
:0202DB00031A04
:0202DC00035AC3
:0202DD0002D845
:0202DE000333E8
:0202DF00007BA2
:0202E00003F524
:0202E10002E237
:0202E2000149D0
:0202E30000BF5A
:0202E4000332E3
:0202E50001B264
:0202E600033DD6
:0202E700038E84
:0202E80001E82B
:0202E90003E729
:0202EA00004AC8
:0202EB0001CC44
:0202EC0001ED22
:0202ED0003CA42
:0202EE0002E923
:0202EF000217F4
:0202F0000232D8
:0202F100010505
:0202F200001EEC
:0202F30003A363
:0202F400012BDC
:0202F50002996C
:0202F60000F313
:0202F700033FC3
:0202F800015CA7
:0202F90002E31E
:0202FA0001FF02
:0202FB000250AF
:0202FC0003C538
:0202FD0001817D
:0202FE0000B846
:0202FF00039268
:02030000000EED
:0203010002E414
:02030200026790
:02030300017087
:02030400023EB7
:02030500015D98
:02030600009263
:0203070001BC37
:0203080001C32F
:02030900037E71
:02030A0002A04F
:02030B0002A24C
:02030C0001AE40
:02030D00038E5D
:02030E00009954
:02030F0000A24A
:0203100001E505
:0203110003FAED
:0203120002C423
:02031300016384
:020314000127BF
:02031500008363
:020316000200E3
:020317000333AE
:0203180003B12F
:020319000006DC
:02031A0000AE33
:02031B000109D6
:02031C00025687
:02031D0002AB31
:02031E0003F2E8
:02031F0002DEFC
:0203200001ECEE
:02032100005D7D
:020322000134A4
:020323000230A6
:0203240002D005
:02032500034F84
:0203260003A42E
:0203270002834F
:02032800006172
:02032900026F61
:02032A0001A62A
:02032B0001C30C
:02032C00004F80
:02032D0003A526
:02032E0001F3D9
:02032F00004587
:02033000018B3F
:02033100019E2B
:02033200004C7D
:02033300006167
:0203340002AD18
:020335000114B1
:0203360001962E
:02033700015A69
:0203380003BE02
:0203390001635E
:02033A00033886
:02033B00018D32
:02033C00032399
:02033D00003589
:02033E0001912B
:02033F0003A514
:02034000019327
:0203410000407A
:02034200016C4C
:0203430002C5F1
:0203440000F9BE
:0203450002CEE6
:0203460000397C
:02034700017043
:020348000207AA
:020349000004AE
:02034A0002F9B6
:02034B00031F8E
:02034C00006B44
:02034D0001B0FD
:02034E0003B2F8
:02034F00004864
:02035000017733
:02035100008C1E
:02035200013F69
:0203530000CCDC
:02035400011690
:0203550003C6DD
:0203560001693B
:02035700009212
:0203580000FEA5
:0203590002B0F0
:02035A00011C84
:02035B0002435B
:02035C0001DBC3
:02035D0000722C
:02035E00029407
:02035F0003EFAA
:02036000027C1D
:0203610001A4F5
:02036200016830
:02036300018A0D
:0203640000B4E3
:0203650003A4EF
:02036600005144
:02036700011D76
:0203680003F898
:020369000193FE
:02036A0000850C
:02036B00008010
:02036C00017717
:02036D0002CFBD
:02036E000290FB
:02036F00008FFD
:0203700001A3E7
:0203710002D1B7
:02037200008009
:0203730001A8DF
:0203740003067E
:02037500024C38
:0203760001582C
:0203770001641F
:02037800023B46
:02037900017011
:02037A000190F0
:02037B00015C23
:02037C0002FA83
:02037D0003314A
:02037E00009FDE
:02037F0002EE8C
:02038000021267
:02038100017EFB
:02038200035F17
:0203830003D69F
:02038400003344
:02038500023341
:0203860003353D
:02038700037DF4
:02038800016E04
:0203890000C7AB
:02038A0001E38D
:02038B0000F67A
:02038C00014B23
:02038D000086E8
:02038E0001E18B
:02038F000171FA
:02039000036206
:02039100033B2C
:02039200032244
:02039300031A4B
:02039400004A1D
:02039500003E28
:02039600002F36
:02039700004321
:0203980002D48D
:0203990003B5AA
:02039A00037CE2
:02039B0002C29C
:02039C00016FEF
:02039D0002005C
:02039E0000D08D
:02039F00035EFB
:0203A000039ABE
:0203A100032B2C
:0203A20002BC9B
:0203A300014215
:0203A400034D07
:0203A500025103
:0203A60003EF63
:0203A70001450E
:0203A800023B16
:0203A90000CE84
:0203AA000061F0
:0203AB00010847
:0203AC0002D875
:0203AD00013914
:0203AE00023219
:0203AF0001BA91
:0203B000010C3E
:0203B10001F356
:0203B200022027
:0203B3000279CD
:0203B400026FD6
:0203B500034BF8
:0203B600038BB7
:0203B700022B17
:0203B800020140
:0203B900011130
:0203BA0003DD61
:0203BB0000C27E
:0203BC000348F4
:0203BD00037EBD
:0203BE00014DEF
:0203BF0003CF6A
:0203C00000AC8F
:0203C100036EC9
:0203C20000DA5F
:0203C300024BEB
:0203C400010D29
:0203C50001B184
:0203C6000370C2
:0203C700037FB2
:0203C800006FC4
:0203C9000185AC
:0203CA00021B14
:0203CB0000F739
:0203CC0003AF7D
:0203CD0002002C
:0203CE000130FC
:0203CF00036BBE
:0203D000032206
:0203D100026ABE
:0203D200025FC8
:0203D300027EA8
:0203D40000091E
:0203D5000169BC
:0203D600018E96
:0203D7000350D1
:0203D80000D251
:0203D90002E53B
:0203DA00006BB6
:0203DB0001B867
:0203DC0003FB21
:0203DD00009B83
:0203DE0000A27B
:0203DF000021FB
:0203E00001908A
:0203E100013BDE
:0203E20000A376
:0203E30001EA2D
:0203E4000332E2
:0203E500020C08
:0203E60002DC37
:0203E7000043D1
:0203E80002858C
:0203E90002F41C
:0203EA00035AB4
:0203EB000161AE
:0203EC0001FD11
:0203ED0000D836
:0203EE0003BD4D
:0203EF00020109
:0203F00003F216
:0203F100023ECA
:0203F2000167A1
:0203F3000127E0
:0203F40003E51F
:0203F500021EE6
:0203F60001D331
:0203F70001F90A
:0203F80001E919
:0203F90000CA38
:0203FA000106FA
:0203FB0003B647
:0203FC000013EC
:0203FD0002E913
:0203FE000203F8
:0203FF0003A257
:0204000001EB0E
:020401000235C2
:0204020002FCFA
:0204030003ED07
:0204040001F9FC
:02040500009E57
:02040600034DA4
:0204070002CC25
:0204080002B63A
:0204090002F8F7
:02040A00016C83
:02040B0003707C
:02040C00039A51
:02040D00036D7D
:02040E000123C8
:02040F00017B6F
:02041000019F4A
:02041100010EDA
:0204120003964F
:0204130003588C
:0204140002DC08
:020415000332B0
:020416000217CB
:020417000035AE
:02041800035C83
:0204190000DB06
:02041A0003D508
:02041B0003AE2E
:02041C00027864
:02041D00037961
:02041E0001B12A
:02041F00027564
:02042000000BCF
:02042100005E7B
:0204220003B71E
:02042300037D57
:020424000108CD
:02042500007F56
:0204260003BA17
:0204270001369C
:020428000312BD
:020429000217B8
:02042A0000CC04
:02042B00028F3E
:02042C0002C408
:02042D000004C9
:02042E00035D6C
:02042F00039A2E
:02043000009931
:0204310002A423
:0204320001DEE9
:0204330001B313
:0204340000586E
:02043500024F74
:0204360001FBC8
:02043700033D83
:020438000318A7
:0204390003615D
:02043A00027B43
:02043B000319A3
:02043C00000FAF
:02043D00002796
:02043E000204B6
:02043F00000EAD
:02044000006456
:0204410000E0D9
:02044200031B9A
:02044300008136
:02044400026B49
:0204450002446F
:0204460001B8FB
:0204470002ECC5
:0204480000BCF6
:020449000307A7
:02044A000301AC
:02044B0003901C
:02044C0001B3FA
:02044D0000EAC3
:02044E0003B5F4
:02044F00000F9C
:0204500003F7B0
:020451000207A0
:020452000206A0
:02045300019313
:0204540000CED8
:02045500030B97
:02045600039110
:02045700025F42
:0204580000FAA8
:02045900034658
:02045A00005F41
:02045B00038814
:02045C00011489
:02045D00036139
:02045E0003D8C1
:02045F0003F4A4
:02046000025444
:0204610003D0C6
:02046200009EFA
:0204630001781E
:0204640000CCCA
:0204650003F49E
:0204660000771D
:02046700015240
:0204680000454D
:02046900032D61
:02046A0001602F
:02046B00011678
:02046C0000DAB4
:02046D0000F895
:02046E00010487
:02046F00015634
:02047000009EEC
:02047100017216
:0204720003ED98
:02047300034F35
:0204740003A8DB
:020475000389F9
:0204760001BBC8
:02047700030080
:0204780003D9A6
:0204790002532C
:02047A0003DBA2
:02047B00031B61
:02047C0001DF9E
:02047D0002F883
:02047E00003349
:02047F00004C2F
:0204800000F189
:0204810000C0B9
:02048200015A1D
:02048300017204
:0204840002E490
:0204850000DA9B
:0204860001F083
:02048700025E13
:0204880002323E
:020489000385E9
:02048A0000BDB3
:02048B0002D499
:02048C0003A9C2
:02048D00004D20
:02048E00036207
:02048F00037DEB
:020490000186E3
:02049100032D39
:0204920001580F
:02049300029EC7
:0204940001C99C
:0204950000570E
:0204960001095A
:020497000275EC
:02049800019EC3
:020499000090D1
:02049A0001045B
:02049B00030D4F
:02049C0003C596
:02049D00000459
:02049E00031841
:02049F00018DCD
:0204A00003ED6A
:0204A1000190C8
:0204A2000371E4
:0204A300030153
:0204A40001084D
:0204A5000089CC
:0204A60001AAA9
:0204A70000A1B2
:0204A80000ACA6
:0204A900030A44
:0204AA0001F659
:0204AB0003B19B
:0204AC00018AC3
:0204AD0002EE5D
:0204AE00007CD0
:0204AF00032028
:0204B000033413
:0204B10003A2A4
:0204B200011136
:0204B300011432
:0204B400015CE9
:0204B50002F74C
:0204B600018AB9
:0204B7000297AA
:0204B80000C979
:0204B900033E00
:0204BA0000DE62
:0204BB0003B18B
:0204BC00003FFF
:0204BD0000F04D
:0204BE000176C5
:0204BF00023603
:0204C00003C077
:0204C100023BFC
:0204C20000EB4D
:0204C30001A98D
:0204C400006CCA
:0204C50002D063
:0204C60003A78A
:0204C700028AA7
:0204C8000372BD
:0204C9000253DC
:0204CA0002BF6F
:0204CB00038BA1
:0204CC00027AB2
:0204CD0003EA40
:0204CE00028AA0
:0204CF00031315
:0204D000000129
:0204D1000158D0
:0204D2000066C2
:0204D300039391
:0204D400022AFA
:0204D500002EF7
:0204D6000232F0
:0204D7000136EC
:0204D80002859B
:0204D900039C82
:0204DA00020E10
:0204DB000378A4
:0204DC00016FAE
:0204DD000176A6
:0204DE0000F527
:0204DF00013FDB
:0204E000038D8A
:0204E100010711
:0204E20002D046
:0204E300021302
:0204E4000019FD
:0204E500025AB9
:0204E60002A072
:0204E7000321EF
:0204E80002A26E
:0204E90000A170
:0204EA0001808F
:0204EB0002B35A
:0204EC0002F11B
:0204ED0002719A
:0204EE00031FEA
:0204EF0000E02B
:0204F00001D039
:0204F100028C7B
:0204F200027C8A
:0204F3000022E5
:0204F40001689D
:0204F50003FC06
:0204F60001A65D
:0204F70000A65D
:0204F8000016EC
:0204F900004CB5
:0204FA00034AB3
:0204FB000120DE
:0204FC00006698
:0204FD0002A655
:0204FE0000DD1F
:0204FF0003EF09
:020500000126D2
:0205010002B73F
:020502000048AF
:02050300037380
:02050400005A9B
:020505000234BE
:0205060003DF11
:02050700007A78
:0205080003FEF0
:0205090003DE0F
:02050A0003A448
:02050B00019C51
:02050C00037773
:02050D0002F9F1
:02050E0002A940
:02050F00028266
:0205100000A742
:02051100021FC7
:02051200039252
:020513000203E1
:02051400039B47
:0205150000677D
:020516000327B9
:020517000219C7
:0205180003C816
:0205190003DEFF
:02051A0003FEDE
:02051B00009B43
:02051C0001D309
:02051D0000508C
:02051E00022DAC
:02051F0003D8FF
:0205200000FCDD
:02052100017067
:020522000221B4
:020523000209CB
:020524000322B0
:02052500035C75
:02052600019C36
:0205270002B917
:02052800027C53
:0205290000A42C
:02052A0001EFDF
:02052B000124A9
:02052C00001CB1
:02052D0000D7F5
:02052E00028B3E
:02052F0002BD0B
:02053000025572
:0205310002BD09
:020532000300C4
:0205330000E7DF
:02053400021FA4
:02053500016063
:0205360003962A
:02053700010FB2
:0205380002A718
:0205390002F9C5
:02053A00039A22
:02053B00024973
:02053C00022B90
:02053D00010AB1
:02053E00009427
:02053F0003991E
:02054000035363
:0205410000AF09
:02054200019224
:02054300022A8A
:02054400023C77
:0205450002743E
:0205460001BCF6
:0205470002921E
:02054800006150
:0205490000DED2
:02054A00016747
:02054B0000644A
:02054C0002A902
:02054D0000E0CC
:02054E0000EDBE
:02054F00035D4A
:0205500000D5D4
:02055100037D28
:02055200007631
:02055300015154
:02055400018321
:0205550003DFC2
:0205560000178C
:0205570000366C
:0205580002237C
:0205590001257A
:02055A00036933
:02055B00038A11
:02055C00021A81
:02055D00033465
:02055E00000695
:02055F00006436
:02056000006138
:0205610001DCBB
:02056200022372
:0205630003850E
:0205640002F59E
:0205650001A6ED
:0205660002B0E1
:0205670000B0E2
:0205680003721C
:020569000196F9
:02056A00023D50
:02056B0002B6D6
:02056C00002964
:02056D00014D3E
:02056E00001972
:02056F00037B0C
:02057000010E7A
:0205710002D2B4
:0205720000EE99
:0205730003681B
:0205740003E89A
:02057500037A07
:02057600005330
:020577000394EB
:02057800031866
:02057900033B42
:02057A0000A7D8
:02057B00022359
:02057C00026615
:02057D0001E497
:02057E0000AAD1
:02057F00003149
:02058000013543
:020581000196E1
:02058200022E47
:0205830000B5C1
:02058400019DD7
:0205850001FA79
:0205860001630F
:0205870003DB94
:0205880003B8B6
:02058900038DE0
:02058A00001857
:02058B0002323A
:02058C0000BAB3
:02058D00028DDD
:02058E000077F4
:02058F0003283F
:02059000012F39
:0205910000F177
:0205920002A7BE
:0205930002580C
:0205940001DC88
:0205950002DB87
:0205960000D093
:02059700030E51
:0205980002C798
:0205990001144B
:02059A0000FF60
:02059B000190CD
:02059C0003D783
:02059D0001015A
:02059E000066F5
:02059F00019CBD
:0205A000028EC9
:0205A100018DCA
:0205A2000372E2
:0205A30001ACA9
:0205A4000067EE
:0205A50000A0B4
:0205A600024B06
:0205A7000271DF
:0205A8000152FE
:0205A900008AC6
:0205AA00013618
:0205AB00021E2E
:0205AC0001DC70
:0205AD00010645
:0205AE00005EED
:0205AF0002FD4B
:0205B0000085C4
:0205B100034EF7
:0205B20002A1A4
:0205B30000E660
:0205B40001DA6A
:0205B50000CE76
:0205B60002D869
:0205B70001132E
:0205B80002DA65
:0205B900000838
:0205BA00033408
:0205BB0003F843
:0205BC00012F0D
:0205BD00033AFF
:0205BE000249F0
:0205BF0000A09A
:0205C00000E257
:0205C1000058E0
:0205C2000142F4
:0205C300012114
:0205C40003072B
:0205C50001E94A
:0205C60002EF42
:0205C70003C966
:0205C80001062A
:0205C9000064CC
:0205CA000330FC
:0205CB00009A94
:0205CC00001419
:0205CD0003AA7F
:0205CE000263C6
:0205CF00029F89
:0205D000007AAF
:0205D100002AFE
:0205D2000066C1
:0205D30000CA5C
:0205D400003EE7
:0205D500035AC7
:0205D60002D74A
:0205D70001F130
:0205D80000D849
:0205D900031D00
:0205DA000220FD
:0205DB00037F9C
:0205DC00038991
:0205DD0003B168
:0205DE00010119
:0205DF00029187
:0205E00003FB1B
:0205E10003D83D
:0205E2000233E2
:0205E300030C07
:0205E40000CD48
:0205E50002CB47
:0205E60003C44C
:0205E700005FB3
:0205E80001AE62
:0205E90003B05D
:0205EA0003D735
:0205EB00038A81
:0205EC0002AE5D
:0205ED00022BDF
:0205EE00027B8E
:0205EF00022DDB
:0205F000007693
:0205F10003BD48
:0205F2000025E2
:0205F3000221E3
:0205F4000106FE
:0205F50001966D
:0205F60000996A
:0205F700016F92
:0205F80000A55C
:0205F90002906E
:0205FA0001DC22
:0205FB000230CC
:0205FC0002C03B
:0205FD0000ED0F
:0205FE0002DF1A
:0205FF000225D3
:020600000253A3
:0206010003A351
:02060200019560
:0206030001955F
:0206040001985B
:0206050002CA27
:02060600002BC7
:02060700013FB1
:0206080000AF41
:0206090002F4F9
:02060A000108E5
:02060B000308E2
:02060C0002E802
:02060D00031ECA
:02060E00015396
:02060F000110D8
:02061000027373
:0206110000E007
:0206120001B332
:0206130002F8EB
:02061400021DC5
:0206150002AB36
:0206160000FFE3
:0206170000FFE2
:0206180000D907
:0206190003BB21
:02061A00008E50
:02061B0000B726
:02061C0002D406
:02061D00017862
:02061E0001F2E7
:02061F000308CE
:0206200003BB1A
:020621000210C5
:0206220001CB0A
:02062300033F93
:02062400020AC8
:0206250003E7E9
:02062600036E61
:0206270002E5EA
:020628000302CB
:0206290001C00E
:02062A000127A6
:02062B000217B4
:02062C00031DAC
:02062D00033E8A
:02062E0000C802
:02062F000027A2
:0206300002B313
:0206310001873F
:02063200005472
:0206330000368F
:02063400028E34
:0206350003D3ED
:0206360002724E
:02063700019F21
:02063800003987
:02063900039B21
:02063A0002813B
:02063B0003DEDC
:02063C0001C0FB
:02063D00002C8F
:02063E0003FCBB
:02063F0001C4F4
:0206400000B206
:02064100016D49
:020642000102B3
:0206430003BCF6
:020644000014A0
:02064500019220
:0206460003B4FB
:0206470000DBD6
:02064800012B84
:0206490001802E
:02064A00024E5E
:02064B00029318
:02064C0002C5E5
:02064D0003B9EF
:02064E00019613
:02064F0002C3E4
:0206500002D6D0
:02065100018620
:02065200019E07
:0206530003EBB7
:0206540002346E
:02065500022D74
:02065600006B37
:02065700035B43
:02065800023866
:0206590000049B
:02065A00027E1E
:02065B00011F7D
:02065C00000F8D
:02065D00032672
:02065E0000E2B8
:02065F0001692F
:02066000018116
:02066100019204
:0206620000A4F2
:02066300035E34
:02066400030889
:02066500008B08
:0206660003751A
:0206670000F998
:0206680002F797
:0206690002FD90
:02066A00014D40
:02066B0003E5A5
:02066C00018506
:02066D0000B6D5
:02066E0002D2B6
:02066F00031076
:02067000018AFD
:02067100024D38
:02067200006026
:0206730000D0B5
:0206740001C2C1
:02067500017C06
:0206760001760B
:02067700016818
:02067800025B23
:0206790001BAC4
:02067A0000621C
:02067B0001B6C6
:02067C0002B0CA
:02067D0000F982
:02067E0001F881
:02067F0001EA8E
:0206800002F87E
:02068100004D2A
:02068200012E47
:02068300001164
:0206840001B8BB
:0206850000472C
:0206860002620E
:0206870002452A
:0206880000E090
:0206890000F57A
:02068A00023537
:02068B00005A13
:02068C00024B1F
:02068D00013733
:02068E0003B5B2
:02068F0000E782
:020690000398CD
:02069100016006
:0206920001C89D
:020693000167FD
:02069400010D56
:0206950000E281
:020696000391CE
:020697000167F9
:02069800037FDE
:0206990002E677
:02069A0003C497
:02069B000085D8
:02069C0001005B
:02069D0001A5B5
:02069E0002A3B5
:02069F00031541
:0206A000002C2C
:0206A1000061F6
:0206A2000299BB
:0206A300015CF8
:0206A40001FC57
:0206A50003C68A
:0206A600033619
:0206A700012030
:0206A80001E669
:0206A90000A6A9
:0206AA000270DC
:0206AB000174D8
:0206AC00003814
:0206AD0000CE7D
:0206AE00000248
:0206AF000096B3
:0206B0000274D2
:0206B10001E561
:0206B20002C77D
:0206B30003C87A
:0206B4000199AA
:0206B500022A17
:0206B60003E55A
:0206B70000E25F
:0206B800022816
:0206B90002E459
:0206BA0003A695
:0206BB00019D9F
:0206BC0001D368
:0206BD00006FCC
:0206BE0003EA4D
:0206BF000057E2
:0206C000029D99
:0206C10003B77D
:0206C20003F73C
:0206C3000242F1
:0206C4000357DA
:0206C500010D25
:0206C600019899
:0206C70002CA65
:0206C8000159D6
:0206C900001F10
:0206CA000366C5
:0206CB00002508
:0206CC00034DDC
:0206CD00010A20
:0206CE00000E1C
:0206CF0000D653
:0206D00000F335
:0206D1000253D2
:0206D20002899B
:0206D30002180B
:0206D40003BB66
:0206D50003B46C
:0206D60003120D
:0206D70003001E
:0206D80000130D
:0206D90001918D
:0206DA0000C45A
:0206DB000046D7
:0206DC00034FCA
:0206DD00010317
:0206DE0003C552
:0206DF00008396
:0206E00002090D
:0206E1000051C6
:0206E20003D43F
:0206E30000DD38
:0206E40002DD35
:0206E50003BA56
:0206E6000326E9
:0206E70001F020
:0206E800015EB1
:0206E900027C91
:0206EA0001739A
:0206EB0000E22B
:0206EC000131DA
:0206ED0003EC1C
:0206EE000314F3
:0206EF00007D8C
:0206F0000126E1
:0206F100008F78
:0206F2000011F5
:0206F3000240C3
:0206F400023CC6
:0206F5000312EE
:0206F6000314EB
:0206F7000336C8
:0206F800026D91
:0206F9000106F8
:0206FA000008F6
:0206FB0000906D
:0206FC00032ECB
:0206FD000346B2
:0206FE00026F89
:0206FF0003CF27
:02070000038074
:0207010001EB0A
:02070200032FC3
:02070300027E74
:02070400017F73
:0207050003B33C
:0207060001D51B
:020707000140AF
:02070800034F9D
:0207090000C529
:02070A00012CC0
:02070B000241A9
:02070C00035692
:02070D0000B436
:02070E000309DD
:02070F0002C91D
:0207100003964E
:0207110003AB38
:020712000340A2
:0207130003F2EF
:020714000031B2
:0207150002A53B
:02071600019947
:0207170002637B
:0207180000D40B
:02071900029D3F
:02071A0002BF1C
:02071B0000F2EA
:02071C000116C4
:02071D00029F39
:02071E0003FED8
:02071F000214C2
:02072000039C38
:02072100009A3C
:0207220001CC08
:020723000017BD
:0207240003F5DB
:0207250000EBE7
:0207260000F1E0
:0207270003ECE1
:020728000315B7
:02072900007559
:02072A00024D7E
:02072B00029238
:02072C00025772
:02072D00014683
:02072E000112B6
:02072F0000EADE
:0207300000EED9
:0207310001A322
:02073200036B57
:0207330001F5CE
:0207340003BA06
:02073500016B56
:02073600017050
:02073700035A63
:02073800035963
:0207390001BA03
:02073A00025A61
:02073B00001E9E
:02073C00007249
:02073D0002BAFE
:02073E0003D3E3
:02073F00018A2D
:020740000213A2
:02074100038A29
:02074200036B47
:02074300020DA5
:02074400021F92
:0207450000258D
:0207460001F1BF
:02074700022688
:0207480003ADFF
:02074900013D70
:02074A0000D0DD
:02074B00032584
:02074C00034167
:02074D0001E9C0
:02074E00012880
:02074F0003C7DE
:0207500000D4D3
:02075100032083
:0207520000BEE7
:0207530002871B
:02075400039B05
:0207550000E2C0
:02075600008E13
:02075700019F00
:02075800036537
:02075900010598
:02075A0000FAA3
:02075B00009903
:02075C00039800
:02075D00039205
:02075E0003890D
:02075F00036E27
:0207600003A7ED
:02076100009402
:0207620002147F
:02076300030E83
:0207640000F89B
:02076500035B34
:02076600035E30
:02076700034E3F
:02076800022469
:02076900030F7C
:02076A0000FC91
:02076B00022169
:02076C00038503
:02076D00008BFF
:02076E00027C0B
:02076F00000E7A
:0207700000F790
:02077100016F16
:0207720001C2C2
:0207730001D8AB
:0207740000C4BF
:02077500004D35
:02077600007F02
:02077700033449
:0207780003A4D8
:0207790001F18C
:02077A0002B7C4
:02077B000297E3
:02077C0001C9B1
:02077D0003A8CF
:02077E00024532
:02077F0001F384
:0207800000D5A2
:020781000275FF
:02078200034F23
:02078300006212
:0207840002C3AE
:02078500032C43
:020786000190E0
:0207870000ADC3
:020788000198D6
:02078900035A11
:02078A00027AF1
:02078B000092DA
:02078C0003E682
:02078D0002F474
:02078E00000960
:02078F0000D395
:0207900001FB6B
:0207910002B4B0
:02079200005312
:0207930001E380
:0207940003BDA3
:02079500031946
:0207960001ABB5
:0207970001342B
:02079800031A42
:0207990000005E
:02079A00035CFE
:02079B00031247
:02079C00030751
:02079D0000BB9F
:02079E0002E275
:02079F0000FD5B
:0207A00002F362
:0207A10000A7AF
:0207A2000197BD
:0207A300006FE5
:0207A40002AAA7
:0207A50000282A
:0207A60002C887
:0207A700020747
:0207A8000296B7
:0207A90001F855
:0207AA00021F2C
:0207AB00010645
:0207AC00004A01
:0207AD0000CF7B
:0207AE000254F3
:0207AF00031233
:0207B000035FE5
:0207B100014302
:0207B200001A2B
:0207B30000350F
:0207B400026FD2
:0207B50003D768
:0207B6000144FC
:0207B70002FC42
:0207B800004EF1
:0207B900033605
:0207BA0003F743
:0207BB0000C17B
:0207BC00014DED
:0207BD00027EBA
:0207BE00020532
:0207BF0001FE39
:0207C0000092A5
:0207C100039A99
:0207C2000041F4
:0207C30002A38F
:0207C4000171C1
:0207C50001949D
:0207C60001D060
:0207C7000265C9
:0207C80000B37C
:0207C90002DD4F
:0207CA00036EBC
:0207CB0000FC30
:0207CC0001CB5F
:0207CD000375B2
:0207CE0002899E
:0207CF000234F2
:0207D00003E53F
:0207D10002F232
:0207D200003EE7
:0207D30001DD46
:0207D40002BE63
:0207D500024BD5
:0207D60000150C
:0207D700037AA3
:0207D8000347D5
:0207D9000166B7
:0207DA0002809B
:0207DB0001A774
:0207DC0003FE1A
:0207DD00005FBB
:0207DE0003070F
:0207DF000139DE
:0207E00000ED2A
:0207E1000074A2
:0207E2000222F1
:0207E30003F918
:0207E4000354BC
:0207E500008B87
:0207E60002A46B
:0207E70002F717
:0207E80000DC33
:0207E9000157B6
:0207EA0002BF4C
:0207EB00006BA1
:0207EC00025FAA
:0207ED0000F416
:0207EE00008683
:0207EF000120E7
:0207F0000229DC
:0207F100020DF7
:0207F20001EC18
:0207F3000148BB
:0207F40001B052
:0207F500026D93
:0207F6000032CF
:0207F70000C53B
:0207F80002B449
:0207F90000FB03
:0207FA0002B744
:0207FB0002D624
:0207FC0003C137
:0207FD00030DEA
:0207FE00012ACE
:0207FF000116E1
:00000001ff
