:020000040000FA
:0100000033CC
:0100010032CC
:0100020032CB
:0100030032CA
:0100040032C9
:0100050032C8
:0100060031C8
:0100070031C7
:0100080031C6
:0100090031C5
:01000A0031C4
:01000B0030C4
:01000C0030C3
:01000D0030C2
:01000E0030C1
:01000F0030C0
:010010002FC0
:010011002FBF
:010012002FBE
:010013002FBD
:010014002FBC
:010015002EBC
:010016002EBB
:010017002EBA
:010018002EB9
:010019002EB8
:01001A002EB7
:01001B002DB7
:01001C002DB6
:01001D002DB5
:01001E002DB4
:01001F002DB3
:010020002CB3
:010021002CB2
:010022002CB1
:010023002CB0
:010024002CAF
:010025002CAE
:010026002BAE
:010027002BAD
:010028002BAC
:010029002BAB
:01002A002BAA
:01002B002BA9
:01002C002AA9
:01002D002AA8
:01002E002AA7
:01002F002AA6
:010030002AA5
:010031002AA4
:0100320029A4
:0100330029A3
:0100340029A2
:0100350029A1
:0100360029A0
:01003700299F
:01003800289F
:01003900289E
:01003A00289D
:01003B00289C
:01003C00289B
:01003D00289A
:01003E002899
:01003F002799
:010040002798
:010041002797
:010042002796
:010043002795
:010044002794
:010045002694
:010046002693
:010047002692
:010048002691
:010049002690
:01004A00268F
:01004B00268E
:01004C00258E
:01004D00258D
:01004E00258C
:01004F00258B
:01005000258A
:010051002589
:010052002588
:010053002488
:010054002487
:010055002486
:010056002485
:010057002484
:010058002483
:010059002482
:01005A002382
:01005B002381
:01005C002380
:01005D00237F
:01005E00237E
:01005F00237D
:01006000237C
:01006100237B
:01006200227B
:01006300227A
:010064002279
:010065002278
:010066002277
:010067002276
:010068002275
:010069002274
:01006A002174
:01006B002173
:01006C002172
:01006D002171
:01006E002170
:01006F00216F
:01007000216E
:01007100216D
:01007200206D
:01007300206C
:01007400206B
:01007500206A
:010076002069
:010077002068
:010078002067
:010079002066
:01007A001F66
:01007B001F65
:01007C001F64
:01007D001F63
:01007E001F62
:01007F001F61
:010080001F60
:010081001F5F
:010082001F5E
:010083001E5E
:010084001E5D
:010085001E5C
:010086001E5B
:010087001E5A
:010088001E59
:010089001E58
:01008A001E57
:01008B001E56
:01008C001D56
:01008D001D55
:01008E001D54
:01008F001D53
:010090001D52
:010091001D51
:010092001D50
:010093001D4F
:010094001D4E
:010095001C4E
:010096001C4D
:010097001C4C
:010098001C4B
:010099001C4A
:01009A001C49
:01009B001C48
:01009C001C47
:01009D001C46
:01009E001C45
:01009F001B45
:0100A0001B44
:0100A1001B43
:0100A2001B42
:0100A3001B41
:0100A4001B40
:0100A5001B3F
:0100A6001B3E
:0100A7001B3D
:0100A8001B3C
:0100A9001B3B
:0100AA001A3B
:0100AB001A3A
:0100AC001A39
:0100AD001A38
:0100AE001A37
:0100AF001A36
:0100B0001A35
:0100B1001A34
:0100B2001A33
:0100B3001A32
:0100B4001932
:0100B5001931
:0100B6001930
:0100B700192F
:0100B800192E
:0100B900192D
:0100BA00192C
:0100BB00192B
:0100BC00192A
:0100BD001929
:0100BE001928
:0100BF001927
:0100C0001827
:0100C1001826
:0100C2001825
:0100C3001824
:0100C4001823
:0100C5001822
:0100C6001821
:0100C7001820
:0100C800181F
:0100C900181E
:0100CA00181D
:0100CB00181C
:0100CC00171C
:0100CD00171B
:0100CE00171A
:0100CF001719
:0100D0001718
:0100D1001717
:0100D2001716
:0100D3001715
:0100D4001714
:0100D5001713
:0100D6001712
:0100D7001711
:0100D8001611
:0100D9001610
:0100DA00160F
:0100DB00160E
:0100DC00160D
:0100DD00160C
:0100DE00160B
:0100DF00160A
:0100E0001609
:0100E1001608
:0100E2001607
:0100E3001606
:0100E4001605
:0100E5001604
:0100E6001504
:0100E7001503
:0100E8001502
:0100E9001501
:0100EA001500
:0100EB0015FF
:0100EC0015FE
:0100ED0015FD
:0100EE0015FC
:0100EF0015FB
:0100F00015FA
:0100F10015F9
:0100F20015F8
:0100F30015F7
:0100F40014F7
:0100F50014F6
:0100F60014F5
:0100F70014F4
:0100F80014F3
:0100F90014F2
:0100FA0014F1
:0100FB0014F0
:0100FC0014EF
:0100FD0014EE
:0100FE0014ED
:0100FF0014EC
:0101000014EA
:0101010014E9
:0101020013E9
:0101030013E8
:0101040013E7
:0101050013E6
:0101060013E5
:0101070013E4
:0101080013E3
:0101090013E2
:01010A0013E1
:01010B0013E0
:01010C0013DF
:01010D0013DE
:01010E0013DD
:01010F0013DC
:0101100013DB
:0101110013DA
:0101120012DA
:0101130012D9
:0101140012D8
:0101150012D7
:0101160012D6
:0101170012D5
:0101180012D4
:0101190012D3
:01011A0012D2
:01011B0012D1
:01011C0012D0
:01011D0012CF
:01011E0012CE
:01011F0012CD
:0101200012CC
:0101210012CB
:0101220012CA
:0101230011CA
:0101240011C9
:0101250011C8
:0101260011C7
:0101270011C6
:0101280011C5
:0101290011C4
:01012A0011C3
:01012B0011C2
:01012C0011C1
:01012D0011C0
:01012E0011BF
:01012F0011BE
:0101300011BD
:0101310011BC
:0101320011BB
:0101330011BA
:0101340011B9
:0101350010B9
:0101360010B8
:0101370010B7
:0101380010B6
:0101390010B5
:01013A0010B4
:01013B0010B3
:01013C0010B2
:01013D0010B1
:01013E0010B0
:01013F0010AF
:0101400010AE
:0101410010AD
:0101420010AC
:0101430010AB
:0101440010AA
:0101450010A9
:0101460010A8
:0101470010A7
:010148000FA7
:010149000FA6
:01014A000FA5
:01014B000FA4
:01014C000FA3
:01014D000FA2
:01014E000FA1
:01014F000FA0
:010150000F9F
:010151000F9E
:010152000F9D
:010153000F9C
:010154000F9B
:010155000F9A
:010156000F99
:010157000F98
:010158000F97
:010159000F96
:01015A000F95
:01015B000F94
:01015C000F93
:01015D000F92
:01015E000E92
:01015F000E91
:010160000E90
:010161000E8F
:010162000E8E
:010163000E8D
:010164000E8C
:010165000E8B
:010166000E8A
:010167000E89
:010168000E88
:010169000E87
:01016A000E86
:01016B000E85
:01016C000E84
:01016D000E83
:01016E000E82
:01016F000E81
:010170000E80
:010171000E7F
:010172000E7E
:010173000E7D
:010174000D7D
:010175000D7C
:010176000D7B
:010177000D7A
:010178000D79
:010179000D78
:01017A000D77
:01017B000D76
:01017C000D75
:01017D000D74
:01017E000D73
:01017F000D72
:010180000D71
:010181000D70
:010182000D6F
:010183000D6E
:010184000D6D
:010185000D6C
:010186000D6B
:010187000D6A
:010188000D69
:010189000D68
:01018A000D67
:01018B000D66
:01018C000D65
:01018D000C65
:01018E000C64
:01018F000C63
:010190000C62
:010191000C61
:010192000C60
:010193000C5F
:010194000C5E
:010195000C5D
:010196000C5C
:010197000C5B
:010198000C5A
:010199000C59
:01019A000C58
:01019B000C57
:01019C000C56
:01019D000C55
:01019E000C54
:01019F000C53
:0101A0000C52
:0101A1000C51
:0101A2000C50
:0101A3000C4F
:0101A4000C4E
:0101A5000C4D
:0101A6000C4C
:0101A7000C4B
:0101A8000B4B
:0101A9000B4A
:0101AA000B49
:0101AB000B48
:0101AC000B47
:0101AD000B46
:0101AE000B45
:0101AF000B44
:0101B0000B43
:0101B1000B42
:0101B2000B41
:0101B3000B40
:0101B4000B3F
:0101B5000B3E
:0101B6000B3D
:0101B7000B3C
:0101B8000B3B
:0101B9000B3A
:0101BA000B39
:0101BB000B38
:0101BC000B37
:0101BD000B36
:0101BE000B35
:0101BF000B34
:0101C0000B33
:0101C1000B32
:0101C2000B31
:0101C3000B30
:0101C4000B2F
:0101C5000B2E
:0101C6000A2E
:0101C7000A2D
:0101C8000A2C
:0101C9000A2B
:0101CA000A2A
:0101CB000A29
:0101CC000A28
:0101CD000A27
:0101CE000A26
:0101CF000A25
:0101D0000A24
:0101D1000A23
:0101D2000A22
:0101D3000A21
:0101D4000A20
:0101D5000A1F
:0101D6000A1E
:0101D7000A1D
:0101D8000A1C
:0101D9000A1B
:0101DA000A1A
:0101DB000A19
:0101DC000A18
:0101DD000A17
:0101DE000A16
:0101DF000A15
:0101E0000A14
:0101E1000A13
:0101E2000A12
:0101E3000A11
:0101E4000A10
:0101E5000A0F
:0101E6000A0E
:0101E7000A0D
:0101E800090D
:0101E900090C
:0101EA00090B
:0101EB00090A
:0101EC000909
:0101ED000908
:0101EE000907
:0101EF000906
:0101F0000905
:0101F1000904
:0101F2000903
:0101F3000902
:0101F4000901
:0101F5000900
:0101F60009FF
:0101F70009FE
:0101F80009FD
:0101F90009FC
:0101FA0009FB
:0101FB0009FA
:0101FC0009F9
:0101FD0009F8
:0101FE0009F7
:0101FF0009F6
:0102000009F4
:0102010009F3
:0102020009F2
:0102030009F1
:0102040009F0
:0102050009EF
:0102060009EE
:0102070009ED
:0102080009EC
:0102090009EB
:01020A0009EA
:01020B0009E9
:01020C0009E8
:01020D0009E7
:01020E0009E6
:01020F0008E6
:0102100008E5
:0102110008E4
:0102120008E3
:0102130008E2
:0102140008E1
:0102150008E0
:0102160008DF
:0102170008DE
:0102180008DD
:0102190008DC
:01021A0008DB
:01021B0008DA
:01021C0008D9
:01021D0008D8
:01021E0008D7
:01021F0008D6
:0102200008D5
:0102210008D4
:0102220008D3
:0102230008D2
:0102240008D1
:0102250008D0
:0102260008CF
:0102270008CE
:0102280008CD
:0102290008CC
:01022A0008CB
:01022B0008CA
:01022C0008C9
:01022D0008C8
:01022E0008C7
:01022F0008C6
:0102300008C5
:0102310008C4
:0102320008C3
:0102330008C2
:0102340008C1
:0102350008C0
:0102360008BF
:0102370008BE
:0102380008BD
:0102390008BC
:01023A0007BC
:01023B0007BB
:01023C0007BA
:01023D0007B9
:01023E0007B8
:01023F0007B7
:0102400007B6
:0102410007B5
:0102420007B4
:0102430007B3
:0102440007B2
:0102450007B1
:0102460007B0
:0102470007AF
:0102480007AE
:0102490007AD
:01024A0007AC
:01024B0007AB
:01024C0007AA
:01024D0007A9
:01024E0007A8
:01024F0007A7
:0102500007A6
:0102510007A5
:0102520007A4
:0102530007A3
:0102540007A2
:0102550007A1
:0102560007A0
:01025700079F
:01025800079E
:01025900079D
:01025A00079C
:01025B00079B
:01025C00079A
:01025D000799
:01025E000798
:01025F000797
:010260000796
:010261000795
:010262000794
:010263000793
:010264000792
:010265000791
:010266000790
:01026700078F
:01026800078E
:01026900078D
:01026A00078C
:01026B00078B
:01026C00078A
:01026D00068A
:01026E000689
:01026F000688
:010270000687
:010271000686
:010272000685
:010273000684
:010274000683
:010275000682
:010276000681
:010277000680
:01027800067F
:01027900067E
:01027A00067D
:01027B00067C
:01027C00067B
:01027D00067A
:01027E000679
:01027F000678
:010280000677
:010281000676
:010282000675
:010283000674
:010284000673
:010285000672
:010286000671
:010287000670
:01028800066F
:01028900066E
:01028A00066D
:01028B00066C
:01028C00066B
:01028D00066A
:01028E000669
:01028F000668
:010290000667
:010291000666
:010292000665
:010293000664
:010294000663
:010295000662
:010296000661
:010297000660
:01029800065F
:01029900065E
:01029A00065D
:01029B00065C
:01029C00065B
:01029D00065A
:01029E000659
:01029F000658
:0102A0000657
:0102A1000656
:0102A2000655
:0102A3000654
:0102A4000653
:0102A5000652
:0102A6000651
:0102A7000650
:0102A800064F
:0102A900064E
:0102AA00064D
:0102AB00054D
:0102AC00054C
:0102AD00054B
:0102AE00054A
:0102AF000549
:0102B0000548
:0102B1000547
:0102B2000546
:0102B3000545
:0102B4000544
:0102B5000543
:0102B6000542
:0102B7000541
:0102B8000540
:0102B900053F
:0102BA00053E
:0102BB00053D
:0102BC00053C
:0102BD00053B
:0102BE00053A
:0102BF000539
:0102C0000538
:0102C1000537
:0102C2000536
:0102C3000535
:0102C4000534
:0102C5000533
:0102C6000532
:0102C7000531
:0102C8000530
:0102C900052F
:0102CA00052E
:0102CB00052D
:0102CC00052C
:0102CD00052B
:0102CE00052A
:0102CF000529
:0102D0000528
:0102D1000527
:0102D2000526
:0102D3000525
:0102D4000524
:0102D5000523
:0102D6000522
:0102D7000521
:0102D8000520
:0102D900051F
:0102DA00051E
:0102DB00051D
:0102DC00051C
:0102DD00051B
:0102DE00051A
:0102DF000519
:0102E0000518
:0102E1000517
:0102E2000516
:0102E3000515
:0102E4000514
:0102E5000513
:0102E6000512
:0102E7000511
:0102E8000510
:0102E900050F
:0102EA00050E
:0102EB00050D
:0102EC00050C
:0102ED00050B
:0102EE00050A
:0102EF000509
:0102F0000508
:0102F1000507
:0102F2000506
:0102F3000505
:0102F4000504
:0102F5000503
:0102F6000403
:0102F7000402
:0102F8000401
:0102F9000400
:0102FA0004FF
:0102FB0004FE
:0102FC0004FD
:0102FD0004FC
:0102FE0004FB
:0102FF0004FA
:0103000004F8
:0103010004F7
:0103020004F6
:0103030004F5
:0103040004F4
:0103050004F3
:0103060004F2
:0103070004F1
:0103080004F0
:0103090004EF
:01030A0004EE
:01030B0004ED
:01030C0004EC
:01030D0004EB
:01030E0004EA
:01030F0004E9
:0103100004E8
:0103110004E7
:0103120004E6
:0103130004E5
:0103140004E4
:0103150004E3
:0103160004E2
:0103170004E1
:0103180004E0
:0103190004DF
:01031A0004DE
:01031B0004DD
:01031C0004DC
:01031D0004DB
:01031E0004DA
:01031F0004D9
:0103200004D8
:0103210004D7
:0103220004D6
:0103230004D5
:0103240004D4
:0103250004D3
:0103260004D2
:0103270004D1
:0103280004D0
:0103290004CF
:01032A0004CE
:01032B0004CD
:01032C0004CC
:01032D0004CB
:01032E0004CA
:01032F0004C9
:0103300004C8
:0103310004C7
:0103320004C6
:0103330004C5
:0103340004C4
:0103350004C3
:0103360004C2
:0103370004C1
:0103380004C0
:0103390004BF
:01033A0004BE
:01033B0004BD
:01033C0004BC
:01033D0004BB
:01033E0004BA
:01033F0004B9
:0103400004B8
:0103410004B7
:0103420004B6
:0103430004B5
:0103440004B4
:0103450004B3
:0103460004B2
:0103470004B1
:0103480004B0
:0103490004AF
:01034A0004AE
:01034B0004AD
:01034C0004AC
:01034D0004AB
:01034E0004AA
:01034F0004A9
:0103500004A8
:0103510004A7
:0103520004A6
:0103530004A5
:0103540004A4
:0103550004A3
:0103560004A2
:0103570003A2
:0103580004A0
:0103590003A0
:01035A00039F
:01035B00039E
:01035C00039D
:01035D00039C
:01035E00039B
:01035F00039A
:010360000399
:010361000398
:010362000397
:010363000396
:010364000395
:010365000394
:010366000393
:010367000392
:010368000391
:010369000390
:01036A00038F
:01036B00038E
:01036C00038D
:01036D00038C
:01036E00038B
:01036F00038A
:010370000389
:010371000388
:010372000387
:010373000386
:010374000385
:010375000384
:010376000383
:010377000382
:010378000381
:010379000380
:01037A00037F
:01037B00037E
:01037C00037D
:01037D00037C
:01037E00037B
:01037F00037A
:010380000379
:010381000378
:010382000377
:010383000376
:010384000375
:010385000374
:010386000373
:010387000372
:010388000371
:010389000370
:01038A00036F
:01038B00036E
:01038C00036D
:01038D00036C
:01038E00036B
:01038F00036A
:010390000369
:010391000368
:010392000367
:010393000366
:010394000365
:010395000364
:010396000363
:010397000362
:010398000361
:010399000360
:01039A00035F
:01039B00035E
:01039C00035D
:01039D00035C
:01039E00035B
:01039F00035A
:0103A0000359
:0103A1000358
:0103A2000357
:0103A3000356
:0103A4000355
:0103A5000354
:0103A6000353
:0103A7000352
:0103A8000351
:0103A9000350
:0103AA00034F
:0103AB00034E
:0103AC00034D
:0103AD00034C
:0103AE00034B
:0103AF00034A
:0103B0000349
:0103B1000348
:0103B2000347
:0103B3000346
:0103B4000345
:0103B5000344
:0103B6000343
:0103B7000342
:0103B8000341
:0103B9000340
:0103BA00033F
:0103BB00033E
:0103BC00033D
:0103BD00033C
:0103BE00033B
:0103BF00033A
:0103C0000339
:0103C1000338
:0103C2000337
:0103C3000336
:0103C4000335
:0103C5000334
:0103C6000333
:0103C7000332
:0103C8000331
:0103C9000330
:0103CA00032F
:0103CB00032E
:0103CC00032D
:0103CD00032C
:0103CE00032B
:0103CF00032A
:0103D0000329
:0103D1000328
:0103D2000327
:0103D3000326
:0103D4000325
:0103D5000324
:0103D6000323
:0103D7000322
:0103D8000321
:0103D9000320
:0103DA00031F
:0103DB00021F
:0103DC00031D
:0103DD00021D
:0103DE00021C
:0103DF00021B
:0103E000021A
:0103E1000219
:0103E2000218
:0103E3000217
:0103E4000216
:0103E5000215
:0103E6000214
:0103E7000213
:0103E8000212
:0103E9000211
:0103EA000210
:0103EB00020F
:0103EC00020E
:0103ED00020D
:0103EE00020C
:0103EF00020B
:0103F000020A
:0103F1000209
:0103F2000208
:0103F3000207
:0103F4000206
:0103F5000205
:0103F6000204
:0103F7000203
:0103F8000202
:0103F9000201
:0103FA000200
:0103FB0002FF
:0103FC0002FE
:0103FD0002FD
:0103FE0002FC
:0103FF0002FB
:010400001CDF
:010401001BDF
:010402001BDE
:010403001BDD
:010404001BDC
:010405001BDB
:010406001BDA
:010407001BD9
:010408001BD8
:010409001BD7
:01040A001AD7
:01040B001AD6
:01040C001AD5
:01040D001AD4
:01040E001AD3
:01040F001AD2
:010410001AD1
:010411001AD0
:010412001ACF
:010413001ACE
:0104140019CE
:0104150019CD
:0104160019CC
:0104170019CB
:0104180019CA
:0104190019C9
:01041A0019C8
:01041B0019C7
:01041C0019C6
:01041D0019C5
:01041E0018C5
:01041F0018C4
:0104200018C3
:0104210018C2
:0104220018C1
:0104230018C0
:0104240018BF
:0104250018BE
:0104260018BD
:0104270018BC
:0104280017BC
:0104290017BB
:01042A0017BA
:01042B0017B9
:01042C0017B8
:01042D0017B7
:01042E0017B6
:01042F0017B5
:0104300017B4
:0104310017B3
:0104320017B2
:0104330016B2
:0104340016B1
:0104350016B0
:0104360016AF
:0104370016AE
:0104380016AD
:0104390016AC
:01043A0016AB
:01043B0016AA
:01043C0016A9
:01043D0016A8
:01043E0016A7
:01043F0015A7
:0104400015A6
:0104410015A5
:0104420015A4
:0104430015A3
:0104440015A2
:0104450015A1
:0104460015A0
:01044700159F
:01044800159E
:01044900159D
:01044A00159C
:01044B00149C
:01044C00149B
:01044D00149A
:01044E001499
:01044F001498
:010450001497
:010451001496
:010452001495
:010453001494
:010454001493
:010455001492
:010456001491
:010457001490
:010458001390
:01045900138F
:01045A00138E
:01045B00138D
:01045C00138C
:01045D00138B
:01045E00138A
:01045F001389
:010460001388
:010461001387
:010462001386
:010463001385
:010464001384
:010465001383
:010466001283
:010467001282
:010468001281
:010469001280
:01046A00127F
:01046B00127E
:01046C00127D
:01046D00127C
:01046E00127B
:01046F00127A
:010470001279
:010471001278
:010472001277
:010473001276
:010474001275
:010475001175
:010476001174
:010477001173
:010478001172
:010479001171
:01047A001170
:01047B00116F
:01047C00116E
:01047D00116D
:01047E00116C
:01047F00116B
:01048000116A
:010481001169
:010482001168
:010483001167
:010484001166
:010485001066
:010486001065
:010487001064
:010488001063
:010489001062
:01048A001061
:01048B001060
:01048C00105F
:01048D00105E
:01048E00105D
:01048F00105C
:01049000105B
:01049100105A
:010492001059
:010493001058
:010494001057
:010495001056
:010496000F56
:010497000F55
:010498000F54
:010499000F53
:01049A000F52
:01049B000F51
:01049C000F50
:01049D000F4F
:01049E000F4E
:01049F000F4D
:0104A0000F4C
:0104A1000F4B
:0104A2000F4A
:0104A3000F49
:0104A4000F48
:0104A5000F47
:0104A6000F46
:0104A7000F45
:0104A8000F44
:0104A9000E44
:0104AA000E43
:0104AB000E42
:0104AC000E41
:0104AD000E40
:0104AE000E3F
:0104AF000E3E
:0104B0000E3D
:0104B1000E3C
:0104B2000E3B
:0104B3000E3A
:0104B4000E39
:0104B5000E38
:0104B6000E37
:0104B7000E36
:0104B8000E35
:0104B9000E34
:0104BA000E33
:0104BB000E32
:0104BC000E31
:0104BD000D31
:0104BE000D30
:0104BF000D2F
:0104C0000D2E
:0104C1000D2D
:0104C2000D2C
:0104C3000D2B
:0104C4000D2A
:0104C5000D29
:0104C6000D28
:0104C7000D27
:0104C8000D26
:0104C9000D25
:0104CA000D24
:0104CB000D23
:0104CC000D22
:0104CD000D21
:0104CE000D20
:0104CF000D1F
:0104D0000D1E
:0104D1000D1D
:0104D2000D1C
:0104D3000C1C
:0104D4000C1B
:0104D5000C1A
:0104D6000C19
:0104D7000C18
:0104D8000C17
:0104D9000C16
:0104DA000C15
:0104DB000C14
:0104DC000C13
:0104DD000C12
:0104DE000C11
:0104DF000C10
:0104E0000C0F
:0104E1000C0E
:0104E2000C0D
:0104E3000C0C
:0104E4000C0B
:0104E5000C0A
:0104E6000C09
:0104E7000C08
:0104E8000C07
:0104E9000C06
:0104EA000C05
:0104EB000C04
:0104EC000B04
:0104ED000B03
:0104EE000B02
:0104EF000B01
:0104F0000B00
:0104F1000BFF
:0104F2000BFE
:0104F3000BFD
:0104F4000BFC
:0104F5000BFB
:0104F6000BFA
:0104F7000BF9
:0104F8000BF8
:0104F9000BF7
:0104FA000BF6
:0104FB000BF5
:0104FC000BF4
:0104FD000BF3
:0104FE000BF2
:0104FF000BF1
:010500000BEF
:010501000BEE
:010502000BED
:010503000BEC
:010504000BEB
:010505000BEA
:010506000AEA
:010507000AE9
:010508000AE8
:010509000AE7
:01050A000AE6
:01050B000AE5
:01050C000AE4
:01050D000AE3
:01050E000AE2
:01050F000AE1
:010510000AE0
:010511000ADF
:010512000ADE
:010513000ADD
:010514000ADC
:010515000ADB
:010516000ADA
:010517000AD9
:010518000AD8
:010519000AD7
:01051A000AD6
:01051B000AD5
:01051C000AD4
:01051D000AD3
:01051E000AD2
:01051F000AD1
:010520000AD0
:010521000ACF
:010522000ACE
:010523000ACD
:010524000ACC
:0105250009CC
:0105260009CB
:0105270009CA
:0105280009C9
:0105290009C8
:01052A0009C7
:01052B0009C6
:01052C0009C5
:01052D0009C4
:01052E0009C3
:01052F0009C2
:0105300009C1
:0105310009C0
:0105320009BF
:0105330009BE
:0105340009BD
:0105350009BC
:0105360009BB
:0105370009BA
:0105380009B9
:0105390009B8
:01053A0009B7
:01053B0009B6
:01053C0009B5
:01053D0009B4
:01053E0009B3
:01053F0009B2
:0105400009B1
:0105410009B0
:0105420009AF
:0105430009AE
:0105440009AD
:0105450009AC
:0105460009AB
:0105470008AB
:0105480008AA
:0105490008A9
:01054A0008A8
:01054B0008A7
:01054C0008A6
:01054D0008A5
:01054E0008A4
:01054F0008A3
:0105500008A2
:0105510008A1
:0105520008A0
:01055300089F
:01055400089E
:01055500089D
:01055600089C
:01055700089B
:01055800089A
:010559000899
:01055A000898
:01055B000897
:01055C000896
:01055D000895
:01055E000894
:01055F000893
:010560000892
:010561000891
:010562000890
:01056300088F
:01056400088E
:01056500088D
:01056600088C
:01056700088B
:01056800088A
:010569000889
:01056A000888
:01056B000887
:01056C000886
:01056D000885
:01056E000785
:01056F000784
:010570000783
:010571000782
:010572000781
:010573000780
:01057400077F
:01057500077E
:01057600077D
:01057700077C
:01057800077B
:01057900077A
:01057A000779
:01057B000778
:01057C000777
:01057D000776
:01057E000775
:01057F000774
:010580000773
:010581000772
:010582000771
:010583000770
:01058400076F
:01058500076E
:01058600076D
:01058700076C
:01058800076B
:01058900076A
:01058A000769
:01058B000768
:01058C000767
:01058D000766
:01058E000765
:01058F000764
:010590000763
:010591000762
:010592000761
:010593000760
:01059400075F
:01059500075E
:01059600075D
:01059700075C
:01059800075B
:01059900075A
:01059A00065A
:01059B000659
:01059C000658
:01059D000657
:01059E000656
:01059F000655
:0105A0000654
:0105A1000653
:0105A2000652
:0105A3000651
:0105A4000650
:0105A500064F
:0105A600064E
:0105A700064D
:0105A800064C
:0105A900064B
:0105AA00064A
:0105AB000649
:0105AC000648
:0105AD000647
:0105AE000646
:0105AF000645
:0105B0000644
:0105B1000643
:0105B2000642
:0105B3000641
:0105B4000640
:0105B500063F
:0105B600063E
:0105B700063D
:0105B800063C
:0105B900063B
:0105BA00063A
:0105BB000639
:0105BC000638
:0105BD000637
:0105BE000636
:0105BF000635
:0105C0000634
:0105C1000633
:0105C2000632
:0105C3000631
:0105C4000630
:0105C500062F
:0105C600062E
:0105C700062D
:0105C800062C
:0105C900062B
:0105CA00062A
:0105CB000629
:0105CC000628
:0105CD000627
:0105CE000626
:0105CF000625
:0105D0000624
:0105D1000623
:0105D2000523
:0105D3000522
:0105D4000521
:0105D5000520
:0105D600051F
:0105D700051E
:0105D800051D
:0105D900051C
:0105DA00051B
:0105DB00051A
:0105DC000519
:0105DD000518
:0105DE000517
:0105DF000516
:0105E0000515
:0105E1000514
:0105E2000513
:0105E3000512
:0105E4000511
:0105E5000510
:0105E600050F
:0105E700050E
:0105E800050D
:0105E900050C
:0105EA00050B
:0105EB00050A
:0105EC000509
:0105ED000508
:0105EE000507
:0105EF000506
:0105F0000505
:0105F1000504
:0105F2000503
:0105F3000502
:0105F4000501
:0105F5000500
:0105F60005FF
:0105F70005FE
:0105F80005FD
:0105F90005FC
:0105FA0005FB
:0105FB0005FA
:0105FC0005F9
:0105FD0005F8
:0105FE0005F7
:0105FF0005F6
:0106000005F4
:0106010005F3
:0106020005F2
:0106030005F1
:0106040005F0
:0106050005EF
:0106060005EE
:0106070005ED
:0106080005EC
:0106090005EB
:01060A0005EA
:01060B0005E9
:01060C0005E8
:01060D0005E7
:01060E0005E6
:01060F0005E5
:0106100005E4
:0106110005E3
:0106120005E2
:0106130005E1
:0106140005E0
:0106150004E0
:0106160004DF
:0106170004DE
:0106180004DD
:0106190004DC
:01061A0004DB
:01061B0004DA
:01061C0004D9
:01061D0004D8
:01061E0004D7
:01061F0004D6
:0106200004D5
:0106210004D4
:0106220004D3
:0106230004D2
:0106240004D1
:0106250004D0
:0106260004CF
:0106270004CE
:0106280004CD
:0106290004CC
:01062A0004CB
:01062B0004CA
:01062C0004C9
:01062D0004C8
:01062E0004C7
:01062F0004C6
:0106300004C5
:0106310004C4
:0106320004C3
:0106330004C2
:0106340004C1
:0106350004C0
:0106360004BF
:0106370004BE
:0106380004BD
:0106390004BC
:01063A0004BB
:01063B0004BA
:01063C0004B9
:01063D0004B8
:01063E0004B7
:01063F0004B6
:0106400004B5
:0106410004B4
:0106420004B3
:0106430004B2
:0106440004B1
:0106450004B0
:0106460004AF
:0106470004AE
:0106480004AD
:0106490004AC
:01064A0004AB
:01064B0004AA
:01064C0004A9
:01064D0004A8
:01064E0004A7
:01064F0004A6
:0106500004A5
:0106510004A4
:0106520004A3
:0106530004A2
:0106540004A1
:0106550004A0
:01065600049F
:01065700049E
:01065800049D
:01065900049C
:01065A00049B
:01065B00049A
:01065C000499
:01065D000498
:01065E000497
:01065F000496
:010660000495
:010661000494
:010662000493
:010663000492
:010664000491
:010665000490
:01066600048F
:01066700048E
:01066800048D
:01066900048C
:01066A00048B
:01066B00038B
:01066C00038A
:01066D000389
:01066E000388
:01066F000387
:010670000386
:010671000385
:010672000384
:010673000383
:010674000382
:010675000381
:010676000380
:01067700037F
:01067800037E
:01067900037D
:01067A00037C
:01067B00037B
:01067C00037A
:01067D000379
:01067E000378
:01067F000377
:010680000376
:010681000375
:010682000374
:010683000373
:010684000372
:010685000371
:010686000370
:01068700036F
:01068800036E
:01068900036D
:01068A00036C
:01068B00036B
:01068C00036A
:01068D000369
:01068E000368
:01068F000367
:010690000366
:010691000365
:010692000364
:010693000363
:010694000362
:010695000361
:010696000360
:01069700035F
:01069800035E
:01069900035D
:01069A00035C
:01069B00035B
:01069C00035A
:01069D000359
:01069E000358
:01069F000357
:0106A0000356
:0106A1000355
:0106A2000354
:0106A3000353
:0106A4000352
:0106A5000351
:0106A6000350
:0106A700034F
:0106A800034E
:0106A900034D
:0106AA00034C
:0106AB00034B
:0106AC00034A
:0106AD000349
:0106AE000348
:0106AF000347
:0106B0000346
:0106B1000345
:0106B2000344
:0106B3000343
:0106B4000342
:0106B5000341
:0106B6000340
:0106B700033F
:0106B800033E
:0106B900033D
:0106BA00033C
:0106BB00033B
:0106BC00033A
:0106BD000339
:0106BE000338
:0106BF000337
:0106C0000336
:0106C1000335
:0106C2000334
:0106C3000333
:0106C4000332
:0106C5000331
:0106C6000330
:0106C700032F
:0106C800032E
:0106C900032D
:0106CA00032C
:0106CB00032B
:0106CC00032A
:0106CD000329
:0106CE000328
:0106CF000327
:0106D0000326
:0106D1000325
:0106D2000324
:0106D3000323
:0106D4000322
:0106D5000321
:0106D6000320
:0106D700031F
:0106D800031E
:0106D900031D
:0106DA00031C
:0106DB00031B
:0106DC00031A
:0106DD000319
:0106DE000318
:0106DF000317
:0106E0000217
:0106E1000315
:0106E2000215
:0106E3000214
:0106E4000213
:0106E5000212
:0106E6000211
:0106E7000210
:0106E800020F
:0106E900020E
:0106EA00020D
:0106EB00020C
:0106EC00020B
:0106ED00020A
:0106EE000209
:0106EF000208
:0106F0000207
:0106F1000206
:0106F2000205
:0106F3000204
:0106F4000203
:0106F5000202
:0106F6000201
:0106F7000200
:0106F80002FF
:0106F90002FE
:0106FA0002FD
:0106FB0002FC
:0106FC0002FB
:0106FD0002FA
:0106FE0002F9
:0106FF0002F8
:0107000002F6
:0107010002F5
:0107020002F4
:0107030002F3
:0107040002F2
:0107050002F1
:0107060002F0
:0107070002EF
:0107080002EE
:0107090002ED
:01070A0002EC
:01070B0002EB
:01070C0002EA
:01070D0002E9
:01070E0002E8
:01070F0002E7
:0107100002E6
:0107110002E5
:0107120002E4
:0107130002E3
:0107140002E2
:0107150002E1
:0107160002E0
:0107170002DF
:0107180002DE
:0107190002DD
:01071A0002DC
:01071B0002DB
:01071C0002DA
:01071D0002D9
:01071E0002D8
:01071F0002D7
:0107200002D6
:0107210002D5
:0107220002D4
:0107230002D3
:0107240002D2
:0107250002D1
:0107260002D0
:0107270002CF
:0107280002CE
:0107290002CD
:01072A0002CC
:01072B0002CB
:01072C0002CA
:01072D0002C9
:01072E0002C8
:01072F0002C7
:0107300002C6
:0107310002C5
:0107320002C4
:0107330002C3
:0107340002C2
:0107350002C1
:0107360002C0
:0107370002BF
:0107380002BE
:0107390002BD
:01073A0002BC
:01073B0002BB
:01073C0002BA
:01073D0002B9
:01073E0002B8
:01073F0002B7
:0107400002B6
:0107410002B5
:0107420002B4
:0107430002B3
:0107440002B2
:0107450002B1
:0107460002B0
:0107470002AF
:0107480002AE
:0107490002AD
:01074A0002AC
:01074B0002AB
:01074C0002AA
:01074D0002A9
:01074E0002A8
:01074F0002A7
:0107500002A6
:0107510002A5
:0107520002A4
:0107530002A3
:0107540002A2
:0107550002A1
:0107560002A0
:01075700029F
:01075800029E
:01075900029D
:01075A00029C
:01075B00029B
:01075C00029A
:01075D000299
:01075E000298
:01075F000297
:010760000296
:010761000295
:010762000294
:010763000293
:010764000292
:010765000291
:010766000290
:01076700028F
:01076800028E
:01076900028D
:01076A00028C
:01076B00028B
:01076C00028A
:01076D000289
:01076E000288
:01076F000287
:010770000286
:010771000285
:010772000284
:010773000283
:010774000282
:010775000281
:010776000280
:01077700027F
:01077800027E
:01077900027D
:01077A00027C
:01077B00027B
:01077C00027A
:01077D000279
:01077E000278
:01077F000277
:010780000276
:010781000275
:010782000274
:010783000273
:010784000272
:010785000271
:010786000270
:01078700026F
:01078800026E
:01078900026D
:01078A00026C
:01078B00026B
:01078C00026A
:01078D000269
:01078E000268
:01078F000267
:010790000266
:010791000265
:010792000264
:010793000164
:010794000262
:010795000162
:010796000161
:010797000160
:01079800015F
:01079900015E
:01079A00015D
:01079B00015C
:01079C00015B
:01079D00015A
:01079E000159
:01079F000158
:0107A0000157
:0107A1000156
:0107A2000155
:0107A3000154
:0107A4000153
:0107A5000152
:0107A6000151
:0107A7000150
:0107A800014F
:0107A900014E
:0107AA00014D
:0107AB00014C
:0107AC00014B
:0107AD00014A
:0107AE000149
:0107AF000148
:0107B0000147
:0107B1000146
:0107B2000145
:0107B3000144
:0107B4000143
:0107B5000142
:0107B6000141
:0107B7000140
:0107B800013F
:0107B900013E
:0107BA00013D
:0107BB00013C
:0107BC00013B
:0107BD00013A
:0107BE000139
:0107BF000138
:0107C0000137
:0107C1000136
:0107C2000135
:0107C3000134
:0107C4000133
:0107C5000132
:0107C6000131
:0107C7000130
:0107C800012F
:0107C900012E
:0107CA00012D
:0107CB00012C
:0107CC00012B
:0107CD00012A
:0107CE000129
:0107CF000128
:0107D0000127
:0107D1000126
:0107D2000125
:0107D3000124
:0107D4000123
:0107D5000122
:0107D6000121
:0107D7000120
:0107D800011F
:0107D900011E
:0107DA00011D
:0107DB00011C
:0107DC00011B
:0107DD00011A
:0107DE000119
:0107DF000118
:0107E0000117
:0107E1000116
:0107E2000115
:0107E3000114
:0107E4000113
:0107E5000112
:0107E6000111
:0107E7000110
:0107E800010F
:0107E900010E
:0107EA00010D
:0107EB00010C
:0107EC00010B
:0107ED00010A
:0107EE000109
:0107EF000108
:0107F0000107
:0107F1000106
:0107F2000105
:0107F3000104
:0107F4000103
:0107F5000102
:0107F6000101
:0107F7000100
:0107F80001FF
:0107F90001FE
:0107FA0001FD
:0107FB0001FC
:0107FC0001FB
:0107FD0001FA
:0107FE0001F9
:0107FF0001F8
:00000001ff
