:020000040000FA
:07000000028BE60DB9391077
:07000100028BE60DB9391076
:07000200028BE60DB9391075
:07000300028BE60DB9391074
:07000400028BE60DB9391073
:07000500028BE60DB9391072
:07000600028BE60DB9391071
:07000700028BE60DB9391070
:07000800028BE60DB939106F
:07000900028BE60DB939106E
:07000A00028BE60DB939106D
:07000B00028BE60DB939106C
:07000C00028BE60DB939106B
:07000D00028BE60DB939106A
:07000E00028BE60DB9391069
:07000F00028BE60DB9391068
:07001000028BE60DB9391067
:07001100028BE60DB9391066
:07001200028BE60DB9391065
:07001300028BE60DB9391064
:07001400028BE60DB9391063
:07001500028BE60DB9391062
:07001600028BE60DB9391061
:07001700028BE60DB9391060
:07001800028BE60DB939105F
:07001900028BE60DB939105E
:07001A00028BE60DB939105D
:07001B00028BE60DB939105C
:07001C00028BE60DB939105B
:07001D00028BE60DB939105A
:07001E00028BE60DB9391059
:07001F00028BE60DB9391058
:07002000028BE60DB9391057
:07002100028BE60DB9391056
:07002200028BE60DB9391055
:07002300028BE60DB9391054
:07002400028BE60DB9391053
:07002500028BE60DB9391052
:07002600028BE60DB9391051
:07002700028BE60DB9391050
:07002800028BE60DB939104F
:07002900028BE60DB939104E
:07002A00028BE60DB939104D
:07002B00028BE60DB939104C
:07002C00028BE60DB939104B
:07002D00028BE60DB939104A
:07002E00028BE60DB9391049
:07002F00028BE60DB9391048
:07003000028BE60DB9391047
:07003100028BE60DB9391046
:07003200028BE60DB9391045
:07003300028BE60DB9391044
:07003400028BE60DB9391043
:07003500028BE60DB9391042
:07003600022F9836E4E441BB
:07003700022F9836E4E441BA
:0700380002F9836E4E44152E
:0700390002F9836E4E44152D
:07003A0002F9836E4E44152C
:07003B0002F9836E4E44152B
:07003C0003E60DB939105471
:07003D0003E60DB939105470
:07003E0003CC1B727220A924
:07003F00039836E4E441528E
:0700400003306DC9C882A561
:070041000260DB9391054A08
:070042000306DC9C882A5331
:070043000306DC9C882A5330
:070044000306DC9C882A532F
:07004500020DB9391054A7A8
:07004600036E4E441529FC76
:07004700036E4E441529FC75
:07004800036E4E441529FC74
:07004900036E4E441529FC73
:07004A00036E4E441529FC72
:07004B00036E4E441529FC71
:07004C0002DC9C882A53F836
:07004D0003727220A94FE1CC
:07004E0003727220A94FE1CB
:07004F0002E4E441529FC2EC
:07005000039391054A7F09AB
:07005100039391054A7F09AA
:070052000327220A94FE13AC
:07005300024E441529FC27B1
:07005400027220A94FE13AFE
:07005500027220A94FE13AFD
:07005600027220A94FE13AFC
:070057000391054A7F09D562
:070058000391054A7F09D561
:070059000391054A7F09D560
:07005A0003220A94FE13AB20
:07005B0002441529FC2757A0
:07005C000220A94FE13ABEAA
:07005D000220A94FE13ABEA9
:07005E000220A94FE13ABEA8
:07005F00020A94FE13ABE856
:07006000020A94FE13ABE855
:07006100020A94FE13ABE854
:07006200020A94FE13ABE853
:0700630002A53F84EAFA3E0A
:0700640002A53F84EAFA3E09
:0700650002A53F84EAFA3E08
:0700660002A53F84EAFA3E07
:0700670002A53F84EAFA3E06
:0700680002A53F84EAFA3E05
:070069000294FE13ABE8FA5C
:07006A000294FE13ABE8FA5B
:07006B000253F84EAFA3EAB7
:07006C000253F84EAFA3EAB6
:07006D00029FC2757D1F53C5
:07006E00029FC2757D1F53C4
:07006F00029FC2757D1F53C3
:07007000027F09D5F47D4D6C
:07007100027F09D5F47D4D6B
:0700720003F84EAFA3EA6999
:0700730003F84EAFA3EA6998
:0700740003F84EAFA3EA6997
:0700750003F09D5F47D4D3A7
:0700760003E13ABE8FA9A6C9
:0700770003C2757D1F534D0C
:070078000384EAFA3EA69B97
:070079000309D5F47D4D37AA
:07007A000213ABE8FA9A6ED5
:07007B0002757D1F534DDCEF
:07007C0002757D1F534DDCEE
:07007D0002757D1F534DDCED
:07007E0002757D1F534DDCEC
:07007F0002757D1F534DDCEB
:0700800003ABE8FA9A6EE001
:0700810003ABE8FA9A6EE000
:0700820003ABE8FA9A6EE0FF
:070083000357D1F534DDC085
:0700840002AFA3EA69BB8192
:0700850002BE8FA9A6EE06E2
:0700860002BE8FA9A6EE06E1
:0700870002FA3EA69BB81B24
:0700880002FA3EA69BB81B23
:0700890003E8FA9A6EE06D36
:07008A0003E8FA9A6EE06D35
:07008B0003D1F534DDC0DBF9
:07008C0003A3EA69BB81B682
:07008D000347D4D377036D94
:07008E00028FA9A6EE06DBBC
:07008F00023EA69BB81B6CAA
:07009000023EA69BB81B6CA9
:0700910003EA69BB81B6C55B
:0700920003EA69BB81B6C55A
:0700930003EA69BB81B6C559
:0700940003EA69BB81B6C558
:0700950003D4D377036D8A49
:0700960003A9A6EE06DB142E
:0700970003534DDC0DB629F7
:0700980002A69BB81B6C528D
:07009900029A6EE06DB14A0E
:07009A00029A6EE06DB14A0D
:07009B000269BB81B6C52B11
:07009C000269BB81B6C52B10
:07009D00034DDC0DB62959EB
:07009E00034DDC0DB62959EA
:07009F00034DDC0DB62959E9
:0700A000029BB81B6C52B378
:0700A100026EE06DB14ACCD4
:0700A200026EE06DB14ACCD3
:0700A3000377036D8A566428
:0700A4000377036D8A566427
:0700A5000377036D8A566426
:0700A60002EE06DB14ACC9F9
:0700A70003B81B6C52B327E4
:0700A80003B81B6C52B327E3
:0700A900037036D8A5664F75
:0700AA0002E06DB14ACC9E9B
:0700AB000381B6C52B32787A
:0700AC000381B6C52B327879
:0700AD0003036D8A5664F1A4
:0700AE000206DB14ACC9E2FD
:0700AF00036D8A5664F10E97
:0700B000036D8A5664F10E96
:0700B100036D8A5664F10E95
:0700B200036D8A5664F10E94
:0700B300036D8A5664F10E93
:0700B400036D8A5664F10E92
:0700B500036D8A5664F10E91
:0700B60002DB14ACC9E21CDF
:0700B700036C52B3278872AD
:0700B800036C52B3278872AC
:0700B90002D8A5664F10E418
:0700BA00036295993C43909D
:0700BB00036295993C43909C
:0700BC0002C52B32788720FA
:0700BD000314ACC9E21C8230
:0700BE000314ACC9E21C822F
:0700BF0002295993C4390422
:0700C0000295993C439041B9
:0700C1000295993C439041B8
:0700C2000295993C439041B7
:0700C3000295993C439041B6
:0700C400025664F10E410732
:0700C500025664F10E410731
:0700C60002B3278872083F16
:0700C70002B3278872083F15
:0700C80002B3278872083F14
:0700C90002CC9E21C820FFBC
:0700CA0002CC9E21C820FFBB
:0700CB00033278872083FC5B
:0700CC00033278872083FC5A
:0700CD000264F10E4107F986
:0700CE0003278872083FCAF6
:0700CF0003278872083FCAF5
:0700D00003278872083FCAF4
:0700D100024F10E4107F94C0
:0700D2000278872083FCA2E5
:0700D3000278872083FCA2E4
:0700D4000278872083FCA2E3
:0700D50003C439041FE51606
:0700D60003C439041FE51605
:0700D70003C439041FE51604
:0700D800038872083FCA2CE7
:0700D9000310E4107F9458AE
:0700DA000221C820FF28B13C
:0700DB00021C820FF28B1DD5
:0700DC00021C820FF28B1DD4
:0700DD00021C820FF28B1DD3
:0700DE00021C820FF28B1DD2
:0700DF00039041FE5163ABE9
:0700E000039041FE5163ABE8
:0700E100039041FE5163ABE7
:0700E200039041FE5163ABE6
:0700E300039041FE5163ABE5
:0700E400032083FCA2C757B3
:0700E500024107F9458EAF4F
:0700E60002083FCA2C757BE4
:0700E70002083FCA2C757BE3
:0700E80002083FCA2C757BE2
:0700E900020FF28B1D5EF512
:0700EA00020FF28B1D5EF511
:0700EB00020FF28B1D5EF510
:0700EC00020FF28B1D5EF50F
:0700ED00020FF28B1D5EF50E
:0700EE00020FF28B1D5EF50D
:0700EF0003FCA2C757BD7717
:0700F00003FCA2C757BD7716
:0700F10003FCA2C757BD7715
:0700F20003FCA2C757BD7714
:0700F30003FCA2C757BD7713
:0700F40003FCA2C757BD7712
:0700F50003F9458EAF7AEF1D
:0700F60003F28B1D5EF5DE35
:0700F70003E5163ABDEBBC66
:0700F80003CA2C757BD778C9
:0700F900039458EAF7AEF191
:0700FA000328B1D5EF5DE220
:0700FB00025163ABDEBBC53F
:0700FC00028B1D5EF5DE2BF7
:0700FD00028B1D5EF5DE2BF6
:0700FE00028B1D5EF5DE2BF5
:0700FF00022C757BD778ACE1
:07010000022C757BD778ACDF
:0701010002C757BD778AC356
:0701020002C757BD778AC355
:0701030002C757BD778AC354
:0701040002C757BD778AC353
:07010500031D5EF5DE2B0D6A
:07010600031D5EF5DE2B0D69
:07010700023ABDEBBC561BE0
:0701080003ABDEBBC561B7CC
:0701090003ABDEBBC561B7CB
:07010A0003ABDEBBC561B7CA
:07010B0003ABDEBBC561B7C9
:07010C000357BD778AC36EA3
:07010D0002AF7AEF1586DC5A
:07010E0002BDEBBC561B72A1
:07010F0002BDEBBC561B72A0
:0701100002F7AEF1586DC9C2
:0701110002F7AEF1586DC9C1
:0701120003DEBBC561B72449
:0701130003DEBBC561B72448
:0701140003BD778AC36E48AA
:07011500037AEF1586DC916F
:0701160002F5DE2B0DB923F9
:0701170003D778AC36E48D3C
:0701180003D778AC36E48D3B
:0701190003AEF1586DC91B94
:07011A00035DE2B0DB923748
:07011B0002BBC561B7246EB1
:07011C0002EF1586DC91B82B
:07011D0002EF1586DC91B82A
:07011E0003BC561B7246E30F
:07011F0003BC561B7246E30E
:070120000378AC36E48DC743
:0701210002F1586DC91B8EAD
:0701220003C561B7246E3A2A
:0701230003C561B7246E3A29
:07012400038AC36E48DC747E
:07012500031586DC91B8E927
:07012600022B0DB92371D279
:0701270002B0DB92371D213D
:0701280002B0DB92371D213C
:0701290002B0DB92371D213B
:07012A0002B0DB92371D213A
:07012B0002C36E48DC74847E
:07012C0002C36E48DC74847D
:07012D00030DB92371D2128A
:07012E00030DB92371D21289
:07012F00021B7246E3A42449
:07013000036E48DC74849BA0
:07013100036E48DC74849B9F
:07013200036E48DC74849B9E
:07013300036E48DC74849B9D
:07013400036E48DC74849B9C
:0701350002DC91B8E9093773
:07013600037246E3A424DD7F
:07013700037246E3A424DD7E
:0701380002E48DC74849BA3B
:070139000392371D2126E9A6
:07013A000392371D2126E9A5
:07013B0003246E3A424DD28D
:07013C000248DC74849BA55E
:07013D000246E3A424DD2EBD
:07013E000246E3A424DD2EBC
:07013F000246E3A424DD2EBB
:0701400002371D2126E970C2
:0701410002371D2126E970C1
:0701420002371D2126E970C0
:070143000371D2126E970058
:070144000371D2126E970057
:070145000371D2126E970056
:070146000371D2126E970055
:0701470002E3A424DD2E00F9
:07014800038E909374B801CF
:07014900038E909374B801CE
:07014A00031D2126E97003EB
:07014B00023A424DD2E0062A
:07014C0003A424DD2E006472
:07014D0003A424DD2E006471
:07014E0003A424DD2E006470
:07014F0003A424DD2E00646F
:07015000034849BA5C00C935
:0701510002909374B80192C3
:0701520002424DD2E0064914
:0701530002424DD2E0064913
:0701540002126E9700324910
:0701550002126E970032490F
:0701560002126E970032490E
:07015700024DD2E006492E23
:07015800024DD2E006492E22
:07015900024DD2E006492E21
:07015A00024DD2E006492E20
:07015B00024DD2E006492E1F
:07015C00026E9700324977A3
:07015D00026E9700324977A2
:07015E00026E9700324977A1
:07015F000374B801924BBAD2
:070160000374B801924BBAD1
:070161000374B801924BBAD0
:0701620002E9700324977508
:0701630003A5C00C925DD45E
:0701640003A5C00C925DD45D
:07016500034B801924BBA825
:0701660002970032497750B7
:07016700025C00C925DD4127
:07016800025C00C925DD4126
:0701690002E006492EEA093D
:07016A0002E006492EEA093C
:07016B0002E006492EEA093B
:07016C0003801924BBA82742
:07016D0003801924BBA82741
:07016E000300324977504EF7
:07016F0002006492EEA09D66
:070170000324977504E8C9A0
:070171000324977504E8C99F
:070172000324977504E8C99E
:070173000324977504E8C99D
:070174000324977504E8C99C
:070175000324977504E8C99B
:070176000324977504E8C99A
:070177000324977504E8C999
:070178000324977504E8C998
:070179000324977504E8C997
:07017A000324977504E8C996
:07017B0002492EEA09D192AE
:07017C00024977504E8C9000
:07017D00024977504E8C90FF
:07017E00024977504E8C90FE
:07017F00024BBA8274648791
:07018000024BBA8274648790
:07018100024BBA827464878F
:07018200025DD413A3243930
:07018300025DD413A324392F
:07018400025DD413A324392E
:0701850002EEA09D1921CF3D
:0701860002EEA09D1921CF3C
:0701870002EEA09D1921CF3B
:0701880003BA827464873F93
:0701890003BA827464873F92
:07018A00037504E8C90E7FB4
:07018B0002EA09D1921CFEFB
:07018C0003A827464873F8A1
:07018D0003A827464873F8A0
:07018E0003504E8C90E7F0D6
:07018F0002A09D1921CFE140
:0701900002827464873F87BF
:0701910002827464873F87BE
:070192000209D1921CFE1DC1
:070193000209D1921CFE1DC0
:07019400027464873F877AC3
:07019500027464873F877AC2
:07019600027464873F877AC1
:07019700027464873F877AC0
:07019800027464873F877ABF
:07019900027464873F877ABE
:07019A0003A32439FC3BD64E
:07019B0003A32439FC3BD64D
:07019C0003A32439FC3BD64C
:07019D0003464873F877AC3C
:07019E00028C90E7F0EF581E
:07019F000232439FC3BD6360
:0701A0000232439FC3BD635F
:0701A100032439FC3BD639B1
:0701A200032439FC3BD639B0
:0701A300032439FC3BD639AF
:0701A400032439FC3BD639AE
:0701A500024873F877AC7209
:0701A60002439FC3BD6396F5
:0701A70002439FC3BD6396F4
:0701A80002439FC3BD6396F3
:0701A900021CFE1DEB1CB15E
:0701AA00021CFE1DEB1CB15D
:0701AB00021CFE1DEB1CB15C
:0701AC00039FC3BD6396250C
:0701AD00039FC3BD6396250B
:0701AE00039FC3BD6396250A
:0701AF00039FC3BD63962509
:0701B000039FC3BD63962508
:0701B100033F877AC72C4AC7
:0701B200027F0EF58E589448
:0701B30003F877AC72C4A64B
:0701B40003F877AC72C4A64A
:0701B50003F877AC72C4A649
:0701B60003F0EF58E5894D4D
:0701B70003E1DEB1CB129A57
:0701B80003C3BD639625346B
:0701B90003877AC72C4A6995
:0701BA00030EF58E5894D3EB
:0701BB00021DEB1CB129A796
:0701BC0003BD63962534E743
:0701BD0003BD63962534E742
:0701BE0003BD63962534E741
:0701BF0003BD63962534E740
:0701C00003BD63962534E73F
:0701C100037AC72C4A69CF45
:0701C20002F58E5894D39F53
:0701C30003D63962534E7DA3
:0701C40003D63962534E7DA2
:0701C50003AC72C4A69CFB11
:0701C6000358E5894D39F7EC
:0701C70002B1CB129A73EEA6
:0701C80002C72C4A69CFBAFF
:0701C90002C72C4A69CFBAFE
:0701CA00031CB129A73EE868
:0701CB00031CB129A73EE867
:0701CC00023962534E7DD1A0
:0701CD0003962534E7DD1065
:0701CE0003962534E7DD1064
:0701CF0003962534E7DD1063
:0701D00003962534E7DD1062
:0701D100032C4A69CFBA209C
:0701D200025894D39F744111
:0701D30002C4A69CFBA20878
:0701D40002C4A69CFBA20877
:0701D50002C4A69CFBA20876
:0701D60003129A73EE882367
:0701D70003129A73EE882366
:0701D800022534E7DD1046AB
:0701D90002534E7DD1046BBF
:0701DA0002534E7DD1046BBE
:0701DB0002534E7DD1046BBD
:0701DC0002534E7DD1046BBC
:0701DD00029A73EE88235F14
:0701DE00029A73EE88235F13
:0701DF00029A73EE88235F12
:0701E0000269CFBA208D7DFA
:0701E1000269CFBA208D7DF9
:0701E200034E7DD1046BEA1E
:0701E300034E7DD1046BEA1D
:0701E400034E7DD1046BEA1C
:0701E500029CFBA208D7D425
:0701E6000273EE88235F5253
:0701E7000273EE88235F5252
:0701E800039F74411AFA970E
:0701E900039F74411AFA970D
:0701EA00039F74411AFA970C
:0701EB00033EE88235F52E0A
:0701EC00027DD1046BEA5D06
:0701ED0003EE88235F52EBD3
:0701EE0003EE88235F52EBD2
:0701EF0003EE88235F52EBD1
:0701F00003DD1046BEA5D798
:0701F10003BA208D7D4BAE27
:0701F2000374411AFA975D46
:0701F30002E88235F52EBB86
:0701F40003A208D7D4BAED05
:0701F50003A208D7D4BAED04
:0701F600034411AFA975DA03
:0701F7000288235F52EBB404
:0701F80002208D7D4BAED10A
:0701F90002208D7D4BAED109
:0701FA000208D7D4BAED1290
:0701FB000208D7D4BAED128F
:0701FC000208D7D4BAED128E
:0701FD000208D7D4BAED128D
:0701FE000235F52EBB44841D
:0701FF000235F52EBB44841C
:070200000235F52EBB44841A
:070201000235F52EBB448419
:070202000235F52EBB448418
:070203000235F52EBB448417
:07020400035F52EBB4484E0A
:07020500035F52EBB4484E09
:07020600035F52EBB4484E08
:07020700035F52EBB4484E07
:0702080002BEA5D768909D1E
:0702090002FA975DA24274A6
:07020A0002FA975DA24274A5
:07020B0003EA5D768909D3C7
:07020C0003EA5D768909D3C6
:07020D0003D4BAED1213A6A1
:07020E0003A975DA24274C57
:07020F000352EBB4484E99C5
:0702100002A5D768909D33A1
:0702110002975DA24274CECA
:0702120002975DA24274CEC9
:07021300025D768909D33872
:07021400025D768909D33871
:0702150002EBB4484E99C74B
:0702160002EBB4484E99C74A
:0702170002EBB4484E99C749
:0702180003AED1213A671C7F
:0702190003AED1213A671C7E
:07021A00035DA24274CE381F
:07021B0002BB4484E99C7062
:07021C0002ED1213A671C0F0
:07021D0002ED1213A671C0EF
:07021E0003B4484E99C7022A
:07021F0003B4484E99C70229
:070220000368909D338E047A
:0702210002D1213A671C091C
:07022200034484E99C7026EF
:07022300034484E99C7026EE
:07022400028909D338E04D07
:070225000224274CE38135A0
:070226000224274CE381359F
:07022700024274CE38135AA5
:07022800024274CE38135AA4
:07022900024274CE38135AA3
:07022A00024274CE38135AA2
:07022B000213A671C09AD175
:07022C000213A671C09AD174
:07022D000213A671C09AD173
:07022E000274CE38135A2FB1
:07022F000274CE38135A2FB0
:070230000274CE38135A2FAF
:070231000274CE38135A2FAE
:070232000274CE38135A2FAD
:0702330003A671C09AD17D02
:0702340003A671C09AD17D01
:0702350003A671C09AD17D00
:07023600034CE38135A2FB3C
:070237000299C7026B45F7B5
:0702380002671C09AD17DF8E
:0702390002671C09AD17DF8D
:07023A000338E04D68BEFC33
:07023B000338E04D68BEFC32
:07023C000338E04D68BEFC31
:07023D000271C09AD17DF9A6
:07023E00038E04D68BEFC80C
:07023F00038E04D68BEFC80B
:07024000038E04D68BEFC80A
:07024100031C09AD17DF905B
:070242000238135A2FBF2000
:07024300038135A2FBF20963
:07024400038135A2FBF20962
:07024500038135A2FBF20961
:07024600038135A2FBF20960
:0702470003026B45F7E4130D
:070248000204D68BEFC8276A
:07024900026B45F7E4139975
:07024A00026B45F7E4139974
:07024B00026B45F7E4139973
:07024C00026B45F7E4139972
:07024D00026B45F7E4139971
:07024E00026B45F7E4139970
:07024F00026B45F7E413996F
:07025000035A2FBF209CC8D8
:07025100035A2FBF209CC8D7
:07025200035A2FBF209CC8D6
:0702530002B45F7E41399106
:0702540002D17DF904E64729
:0702550002D17DF904E64728
:070256000345F7E413991DB5
:070257000345F7E413991DB4
:07025800028BEFC827323AC8
:07025900022FBF209CC8EB3F
:07025A00022FBF209CC8EB3E
:07025B0002FBF209CC8EB199
:07025C0002FBF209CC8EB198
:07025D0002FBF209CC8EB197
:07025E0002FBF209CC8EB196
:07025F0003EFC827323AC784
:0702600003EFC827323AC783
:0702610003DF904E64758E6F
:0702620003BF209CC8EB1C48
:07026300037E413991D639F9
:0702640002FC827323AC735E
:0702650003F209CC8EB1CCBD
:0702660003F209CC8EB1CCBC
:0702670003E413991D6398E5
:0702680003C827323AC7303A
:0702690003904E64758E60E6
:07026A0003209CC8EB1CC13E
:07026B0002413991D63983ED
:07026C000209CC8EB1CC1A8F
:07026D000209CC8EB1CC1A8E
:07026E000209CC8EB1CC1A8D
:07026F00027323AC7306A625
:07027000027323AC7306A624
:07027100027323AC7306A623
:07027200027323AC7306A622
:07027300027323AC7306A621
:07027400027323AC7306A620
:0702750003991D6398353366
:0702760003991D6398353365
:0702770003991D6398353364
:0702780003323AC7306A6748
:070279000264758E60D4CE13
:07027A000323AC7306A67319
:07027B000323AC7306A67318
:07027C000323AC7306A67317
:07027D00024758E60D4CE7B3
:07027E00023AC7306A673E37
:07027F00023AC7306A673E36
:07028000023AC7306A673E35
:0702810003AC7306A673E94C
:0702820003AC7306A673E94B
:0702830003AC7306A673E94A
:0702840003AC7306A673E949
:070285000358E60D4CE7D21F
:0702860002B1CC1A99CFA4CC
:0702870002C7306A673E93D5
:0702880002C7306A673E93D4
:07028900031CC1A99CFA4E01
:07028A00031CC1A99CFA4E00
:07028B000239835339F49C92
:07028C00039835339F49C8B8
:07028D00039835339F49C8B7
:07028E00039835339F49C8B6
:07028F00039835339F49C8B5
:0702900003306A673E939002
:070291000260D4CE7D27219D
:070292000306A673E9390819
:070293000306A673E9390818
:070294000306A673E9390817
:07029500020D4CE7D27211CB
:07029600035339F49C845F5F
:07029700035339F49C845F5E
:07029800035339F49C845F5D
:07029900035339F49C845F5C
:07029A00035339F49C845F5B
:07029B00035339F49C845F5A
:07029C0002A673E93908BF57
:07029D000299CFA4E422FC4A
:07029E000299CFA4E422FC49
:07029F0002673E93908BF112
:0702A00002673E93908BF111
:0702A1000339F49C845F8B1C
:0702A2000339F49C845F8B1B
:0702A3000339F49C845F8B1A
:0702A4000273E93908BF17DE
:0702A500039F49C845F8BBA7
:0702A600039F49C845F8BBA6
:0702A700039F49C845F8BBA5
:0702A800033E93908BF177F8
:0702A900027D272117E2EF9F
:0702AA0003E93908BF177BCF
:0702AB0003E93908BF177BCE
:0702AC0003E93908BF177BCD
:0702AD0003D272117E2EF74F
:0702AE0003A4E422FC5DEF54
:0702AF000349C845F8BBDF5D
:0702B0000293908BF177BF70
:0702B100024E422FC5DEFCE6
:0702B200024E422FC5DEFCE5
:0702B3000272117E2EF7E438
:0702B4000272117E2EF7E437
:0702B5000272117E2EF7E436
:0702B60003908BF177BF25D7
:0702B70003908BF177BF25D6
:0702B80003908BF177BF25D5
:0702B900032117E2EF7E4A6A
:0702BA0002422FC5DEFC9497
:0702BB0002117E2EF7E4A002
:0702BC0002117E2EF7E4A001
:0702BD0002117E2EF7E4A000
:0702BE00022FC5DEFC941DB8
:0702BF00022FC5DEFC941DB7
:0702C000022FC5DEFC941DB6
:0702C100022FC5DEFC941DB5
:0702C200022FC5DEFC941DB4
:0702C30002FC5DEFC941D808
:0702C40002FC5DEFC941D807
:0702C50002FC5DEFC941D806
:0702C60002FC5DEFC941D805
:0702C70003F177BF25076377
:0702C80003F177BF25076376
:0702C90003E2EF7E4A0EC7BD
:0702CA0003C5DEFC941D8F4B
:0702CB00038BBDF9283B1F66
:0702CC0003177BF250763F9F
:0702CD00022EF7E4A0EC7F14
:0702CE0002EF7E4A0EC7FE9D
:0702CF0002EF7E4A0EC7FE9C
:0702D00002EF7E4A0EC7FE9B
:0702D10002EF7E4A0EC7FE9A
:0702D20003BDF9283B1FF8F2
:0702D30003BDF9283B1FF8F1
:0702D400037BF250763FF1BD
:0702D50002F7E4A0EC7FE258
:0702D60003DF9283B1FF89F1
:0702D70003DF9283B1FF89F0
:0702D80003BF250763FF12BD
:0702D900037E4A0EC7FE255B
:0702DA0002FC941D8FFC4B98
:0702DB0003F250763FF12F02
:0702DC0003F250763FF12F01
:0702DD0003E4A0EC7FE25FE7
:0702DE0003C941D8FFC4BFB2
:0702DF00039283B1FF897F48
:0702E00003250763FF12FF75
:0702E100024A0EC7FE25FFD3
:0702E2000250763FF12FFFEF
:0702E3000250763FF12FFFEE
:0702E4000250763FF12FFFED
:0702E5000283B1FF897FFDD8
:0702E6000283B1FF897FFDD7
:0702E7000283B1FF897FFDD6
:0702E800020EC7FE25FFF71F
:0702E900020EC7FE25FFF71E
:0702EA0003B1FF897FFDE075
:0702EB0003B1FF897FFDE074
:0702EC0003B1FF897FFDE073
:0702ED0003B1FF897FFDE072
:0702EE0003B1FF897FFDE071
:0702EF0003B1FF897FFDE070
:0702F0000363FF12FFFBC0D6
:0702F10002C7FE25FFF781A3
:0702F200031FF897FFDE0572
:0702F300031FF897FFDE0571
:0702F400023FF12FFFBC0BDC
:0702F50003FF12FFFBC0B381
:0702F60003FF12FFFBC0B380
:0702F70003FF12FFFBC0B37F
:0702F80003FF12FFFBC0B37E
:0702F90003FE25FFF78166FB
:0702FA0003FC4BFFEF02CCF7
:0702FB0003F897FFDE0598F0
:0702FC0003F12FFFBC0B30E2
:0702FD0003E25FFF781660C9
:0702FE0003C4BFFEF02CC099
:0702FF0003897FFDE0598037
:070300000312FFFBC0B30173
:070301000225FFF7816603EE
:07030200025FFF7816603F67
:07030300025FFF7816603F66
:07030400025FFF7816603F65
:07030500025FFF7816603F64
:0703060002FFFBC0B301FD83
:0703070002FFFBC0B301FD82
:0703080002FFFBC0B301FD81
:0703090003FFEF02CC07F730
:07030A0003FFEF02CC07F72F
:07030B0003FFDE05980FEF70
:07030C0003FFBC0B301FDEF4
:07030D0003FF7816603FBCFE
:07030E0003FEF02CC07F7913
:07030F0003FDE05980FEF23E
:0703100003FBC0B301FDE592
:0703110003F7816603FBCB3B
:0703120003EF02CC07F7978F
:0703130003DE05980FEF2F38
:0703140003BC0B301FDE5E8D
:07031500037816603FBCBC39
:0703160002F02CC07F797892
:0703170003C0B301FDE5E2A4
:0703180003C0B301FDE5E2A3
:0703190003816603FBCBC466
:07031A000302CC07F79788EE
:07031B000205980FEF2F11FE
:07031C0002CC07F79788C52A
:07031D0002CC07F79788C529
:07031E0002CC07F79788C528
:07031F0002CC07F79788C527
:0703200002CC07F79788C526
:0703210002CC07F79788C525
:0703220002CC07F79788C524
:0703230003301FDE5E23160C
:0703240003301FDE5E23160B
:0703250002603FBCBC462D45
:070326000301FDE5E2316B6C
:070327000301FDE5E2316B6B
:070328000301FDE5E2316B6A
:070329000203FBCBC462D606
:07032A0003FBCBC462D68285
:07032B0003FBCBC462D68284
:07032C0003FBCBC462D68283
:07032D0003FBCBC462D68282
:07032E0003FBCBC462D68281
:07032F0003FBCBC462D68280
:0703300003FBCBC462D6827F
:0703310003FBCBC462D6827E
:0703320003F79788C5AD0534
:0703330003EF2F118B5A0AA2
:0703340003DE5E2316B41482
:0703350003BCBC462D682942
:070336000379788C5AD053C3
:0703370002F2F118B5A0A6C7
:0703380003CBC462D6829BD7
:0703390003CBC462D6829BD6
:07033A00039788C5AD0536ED
:07033B00032F118B5A0A6D1C
:07033C00025E2316B414DA7F
:07033D0002F118B5A0A6D1E2
:07033E0002F118B5A0A6D1E1
:07033F0002F118B5A0A6D1E0
:0703400003C462D6829B4753
:0703410003C462D6829B4752
:070342000388C5AD05368FED
:0703430003118B5A0A6D1F24
:07034400022316B414DA3E97
:0703450002316B414DA3EDF5
:0703460002316B414DA3EDF4
:0703470002316B414DA3EDF3
:0703480002316B414DA3EDF2
:070349000316B414DA3EDADA
:07034A000316B414DA3EDAD9
:07034B000316B414DA3EDAD8
:07034C000316B414DA3EDAD7
:07034D00022D6829B47DB404
:07034E0002D6829B47DB4D44
:07034F0002D6829B47DB4D43
:0703500002D6829B47DB4D42
:0703510002D6829B47DB4D41
:07035200035A0A6D1F6D360E
:07035300035A0A6D1F6D360D
:0703540002B414DA3EDA6C7A
:0703550002D05368FB69B3FD
:0703560002D05368FB69B3FC
:0703570003414DA3EDA6CF09
:0703580003414DA3EDA6CF08
:0703590002829B47DB4D9F70
:07035A00020A6D1F6D367EE3
:07035B00020A6D1F6D367EE2
:07035C00029B47DB4D9FB33C
:07035D00029B47DB4D9FB33B
:07035E00029B47DB4D9FB33A
:07035F00029B47DB4D9FB339
:07036000029B47DB4D9FB338
:07036100029B47DB4D9FB337
:07036200026D1F6D367ECF16
:07036300026D1F6D367ECF15
:070364000368FB69B3F679A1
:070365000368FB69B3F679A0
:070366000368FB69B3F6799F
:0703670002D1F6D367ECF2AE
:070368000347DB4D9FB3C901
:070369000347DB4D9FB3C900
:07036A00028FB69B3F679371
:07036B00023EDA6CFD9E4F1B
:07036C00023EDA6CFD9E4F1A
:07036D0003EDA6CFD9E4F96E
:07036E0003EDA6CFD9E4F96D
:07036F0003EDA6CFD9E4F96C
:0703700003EDA6CFD9E4F96B
:0703710003DB4D9FB3C9F24D
:0703720003B69B3F6793E512
:07037300036D367ECF27CB9E
:0703740002DA6CFD9E4F96BA
:070375000369B3F6793E585D
:070376000369B3F6793E585C
:0703770002D367ECF27CB039
:07037800034D9FB3C9F2C25F
:07037900034D9FB3C9F2C25E
:07037A00029B3F6793E5843D
:07037B00026CFD9E4F96137A
:07037C00026CFD9E4F961379
:07037D000367ECF27CB09B6A
:07037E000367ECF27CB09B69
:07037F000367ECF27CB09B68
:0703800002CFD9E4F9613658
:07038100033F6793E584DBF5
:07038200033F6793E584DBF4
:07038300027ECF27CB09B772
:0703840003F6793E584DBA63
:0703850003F6793E584DBA62
:0703860003F6793E584DBA61
:0703870003ECF27CB09B7453
:0703880003D9E4F96136E935
:0703890003B3C9F2C26DD3FA
:07038A00036793E584DBA784
:07038B0002CF27CB09B74F99
:07038C00033C9F2C26DD3D20
:07038D00033C9F2C26DD3D1F
:07038E0002793E584DBA7AD6
:07038F0003C9F2C26DD3D1D6
:0703900003C9F2C26DD3D1D5
:0703910003C9F2C26DD3D1D4
:070392000393E584DBA7A340
:070393000327CB09B74F4619
:07039400024F96136E9E8CD0
:07039500027CB09B74F463CD
:07039600027CB09B74F463CC
:07039700027CB09B74F463CB
:0703980003E584DBA7A31FAE
:0703990003E584DBA7A31FAD
:07039A0003E584DBA7A31FAC
:07039B0003CB09B74F463FF9
:07039C000396136E9E8C7E98
:07039D00032C26DD3D18FDD5
:07039E0002584DBA7A31FB51
:07039F0002C26DD3D18FD91A
:0703A00002C26DD3D18FD919
:0703A10002C26DD3D18FD918
:0703A2000309B74F463F6657
:0703A3000309B74F463F6656
:0703A40002136E9E8C7ECD5A
:0703A500026DD3D18FD9A72F
:0703A600026DD3D18FD9A72E
:0703A700026DD3D18FD9A72D
:0703A800026DD3D18FD9A72C
:0703A900026DD3D18FD9A72B
:0703AA00036E9E8C7ECD3C2A
:0703AB00036E9E8C7ECD3C29
:0703AC00036E9E8C7ECD3C28
:0703AD0002DD3D18FD9A7905
:0703AE000374F463F669E536
:0703AF000374F463F669E535
:0703B00002E9E8C7ECD3CB22
:0703B10003A7A31FB34F2FA8
:0703B20003A7A31FB34F2FA7
:0703B300034F463F669E5F09
:0703B400029E8C7ECD3CBFD0
:0703B500027A31FB34F2FF74
:0703B600027A31FB34F2FF73
:0703B70003D18FD9A797FACB
:0703B80003D18FD9A797FACA
:0703B90003D18FD9A797FAC9
:0703BA0003A31FB34F2FF551
:0703BB0003463F669E5FEA66
:0703BC00028C7ECD3CBFD492
:0703BD000231FB34F2FF5195
:0703BE000231FB34F2FF5194
:0703BF00031FB34F2FF516D9
:0703C000031FB34F2FF516D8
:0703C100031FB34F2FF516D7
:0703C200031FB34F2FF516D6
:0703C300023F669E5FEA2D78
:0703C40003F669E5FEA2D774
:0703C50003F669E5FEA2D773
:0703C60003F669E5FEA2D772
:0703C70003F669E5FEA2D771
:0703C80003ECD3CBFD45AEB1
:0703C90003D9A797FA8B5D31
:0703CA0003B34F2FF516BA33
:0703CB0003669E5FEA2D7539
:0703CC0002CD3CBFD45AEA48
:0703CD000334F2FF516BA99C
:0703CE000334F2FF516BA99B
:0703CF000269E5FEA2D7520E
:0703D000034F2FF516BA934D
:0703D100034F2FF516BA934C
:0703D200034F2FF516BA934B
:0703D300029E5FEA2D752771
:0703D40002797FA8B5D49E59
:0703D50002797FA8B5D49E58
:0703D60003CBFD45AEA4F7C7
:0703D70003CBFD45AEA4F7C6
:0703D80003CBFD45AEA4F7C5
:0703D9000397FA8B5D49EE6A
:0703DA00032FF516BA93DDB5
:0703DB00025FEA2D7527BA4D
:0703DC0002FF516BA93DD6A1
:0703DD0002FF516BA93DD6A0
:0703DE0002FF516BA93DD69F
:0703DF0003FD45AEA4F75831
:0703E00003FD45AEA4F75830
:0703E10003FA8B5D49EEB148
:0703E20003F516BA93DD6379
:0703E30003EA2D7527BAC7DC
:0703E40003D45AEA4F758FA4
:0703E50003A8B5D49EEB1F35
:0703E60003516BA93DD63F56
:0703E70002A2D7527BAC7E9D
:0703E800028B5D49EEB1FA42
:0703E900028B5D49EEB1FA41
:0703EA00022D7527BAC7EBD5
:0703EB00022D7527BAC7EBD4
:0703EC0002D7527BAC7EBE7C
:0703ED0002D7527BAC7EBE7B
:0703EE0002D7527BAC7EBE7A
:0703EF0002D7527BAC7EBE79
:0703F000035D49EEB1FAF9CB
:0703F100035D49EEB1FAF9CA
:0703F20002BA93DD63F5F28E
:0703F30002EA4F758FD7CB22
:0703F40002EA4F758FD7CB21
:0703F50003A93DD63F5F2F75
:0703F60003A93DD63F5F2F74
:0703F70003527BAC7EBE5FE8
:0703F80002A4F758FD7CBED2
:0703F9000293DD63F5F2F849
:0703FA000293DD63F5F2F848
:0703FB00024F758FD7CBE222
:0703FC00024F758FD7CBE221
:0703FD00027BAC7EBE5F171E
:0703FE00027BAC7EBE5F171D
:00000001ff
